{"error_events": ["StartFailed", "NegotiateFailed", "TakerFeeSendFailed", "MakerPaymentValidateFailed", "TakerPaymentTransactionFailed", "TakerPaymentDataSendFailed", "TakerPaymentWaitForSpendFailed", "MakerPaymentSpendFailed", "TakerPaymentRefunded", "TakerPaymentRefundFailed"], "events": [{"event": {"data": {"lock_duration": 7800, "maker_amount": "1.02445534", "maker_coin": "KMD", "maker_coin_start_block": 1700528, "maker_payment_confirmations": 2, "maker_payment_lock": 0, "my_persistent_pub": "03683c77e807a47dcd559fa60a6510087e5c5aa0016c094cf5eb4d7e002db18e9f", "secret": "", "started_at": 1578732748, "taker": "", "taker_amount": "22.23519195374357549659674954854840950131962772607306570356994026948187248228920683428253924156132796", "taker_coin": "RVN", "taker_coin_start_block": 1053177, "taker_payment_confirmations": 1, "uuid": "013944b1-a4b6-4ec3-b950-c63346209152", "taker_payment_locktime": 0, "taker_pubkey": "", "block_height": 0, "coin": "", "fee_details": null, "from": null, "internal_id": "", "my_balance_change": "", "received_by_me": "", "spent_by_me": "", "timestamp": 0, "to": null, "total_amount": "", "tx_hash": "", "tx_hex": "", "maker": "b86508ab996ca87d863c907e44fe495d96adf7e95ad0823bac16c3e55758f902", "maker_payment_wait": 1578735348, "taker_payment_lock": 1578740548, "maker_payment_locktime": 0, "maker_pubkey": "", "secret_hash": "", "transaction": null, "error": ""}, "type": "Started"}, "timestamp": 1578732748950}, {"event": {"data": {"lock_duration": 0, "maker_amount": "", "maker_coin": "", "maker_coin_start_block": 0, "maker_payment_confirmations": 0, "maker_payment_lock": 0, "my_persistent_pub": "", "secret": "", "started_at": 0, "taker": "", "taker_amount": "", "taker_coin": "", "taker_coin_start_block": 0, "taker_payment_confirmations": 0, "uuid": "", "taker_payment_locktime": 0, "taker_pubkey": "", "block_height": 0, "coin": "", "fee_details": null, "from": null, "internal_id": "", "my_balance_change": "", "received_by_me": "", "spent_by_me": "", "timestamp": 0, "to": null, "total_amount": "", "tx_hash": "", "tx_hex": "", "maker": "", "maker_payment_wait": 0, "taker_payment_lock": 0, "maker_payment_locktime": 1578748348, "maker_pubkey": "02b86508ab996ca87d863c907e44fe495d96adf7e95ad0823bac16c3e55758f902", "secret_hash": "c3328ff4bb579a3cea32d7ba2974c58afd962591", "transaction": null, "error": ""}, "type": "Negotiated"}, "timestamp": 1578732809789}, {"event": {"data": {"lock_duration": 0, "maker_amount": "", "maker_coin": "", "maker_coin_start_block": 0, "maker_payment_confirmations": 0, "maker_payment_lock": 0, "my_persistent_pub": "", "secret": "", "started_at": 0, "taker": "", "taker_amount": "", "taker_coin": "", "taker_coin_start_block": 0, "taker_payment_confirmations": 0, "uuid": "", "taker_payment_locktime": 0, "taker_pubkey": "", "block_height": 0, "coin": "RVN", "fee_details": {"amount": "0.001", "coin": "", "gas": 0, "gas_price": "", "total_fee": ""}, "from": ["RQq3CmCy7DzwSbT1RPZDfVPcC3RAjyR8DJ"], "internal_id": "a253a97cca097dfc816bc6c1ddcdaa6169fe4da3bde391fa2764515421049793", "my_balance_change": "-0.02675504", "received_by_me": "22.23909298", "spent_by_me": "22.26584802", "timestamp": 0, "to": ["RQq3CmCy7DzwSbT1RPZDfVPcC3RAjyR8DJ", "RThtXup6Zo7LZAi8kRWgjAyi1s4u6U9Cpf"], "total_amount": "22.26584802", "tx_hash": "a253a97cca097dfc816bc6c1ddcdaa6169fe4da3bde391fa2764515421049793", "tx_hex": "0100000002ffda9c3a84aa78e3aabaa0e660b88fa75cd5e1a8d5e6a5e684de01c62037ad50010000006a47304402202b65ab2250af7ddcce1f75cadc242b3b1918a5463a6910c5a570a5c6bd9998fc022046a762368af6000d8f227f3e731981927e9f973d444350f51f28aec581f14242012103683c77e807a47dcd559fa60a6510087e5c5aa0016c094cf5eb4d7e002db18e9fffffffff1f0a00962e0c3bab9993e806da8bf9042f56aee7e7988559d9df81e15efa85e1000000006a4730440220582036c43a826f646961907cb125551cb85ca8bce9521344fd69349ff49b84a6022038a0bd46182c165d46c5b226eb38ba70813713c35474f9a4a7f27351cc7592fb012103683c77e807a47dcd559fa60a6510087e5c5aa0016c094cf5eb4d7e002db18e9fffffffff02904c2700000000001976a914ca1e04745e8ca0c60d8c5881531d51bec470743f88acb2298e84000000001976a914aa8fc9fcbf345510d419ca273a6e9897b488ee1688ac098d195e", "maker": "", "maker_payment_wait": 0, "taker_payment_lock": 0, "maker_payment_locktime": 0, "maker_pubkey": "", "secret_hash": "", "transaction": null, "error": ""}, "type": "TakerFeeSent"}, "timestamp": 1578732813213}, {"event": {"data": {"lock_duration": 0, "maker_amount": "", "maker_coin": "", "maker_coin_start_block": 0, "maker_payment_confirmations": 0, "maker_payment_lock": 0, "my_persistent_pub": "", "secret": "", "started_at": 0, "taker": "", "taker_amount": "", "taker_coin": "", "taker_coin_start_block": 0, "taker_payment_confirmations": 0, "uuid": "", "taker_payment_locktime": 0, "taker_pubkey": "", "block_height": 0, "coin": "KMD", "fee_details": {"amount": "-0.01156796", "coin": "", "gas": 0, "gas_price": "", "total_fee": ""}, "from": ["R9ViegsR8qrthx81NJdANfnkLoQxomzHAM"], "internal_id": "242b5b7faedfc54f600d3418c82f613750ee1e4b91be4883f4e78036b031cfbd", "my_balance_change": "0", "received_by_me": "0", "spent_by_me": "0", "timestamp": 0, "to": ["R9ViegsR8qrthx81NJdANfnkLoQxomzHAM", "bJMTzrWpYQskeVKi8HX5NFUNmgX2TwD9Cg"], "total_amount": "116.66783404", "tx_hash": "242b5b7faedfc54f600d3418c82f613750ee1e4b91be4883f4e78036b031cfbd", "tx_hex": "0400008085202f89010b451dd7740b525e9ec56f351dba28739ec07b85acec12d5d594f6815d7aabf6010000006a473044022057a5f9a60611fe69276eabeab4d87f4418343f93fb0aa054eccb1148feb97af102204b89369b9a8f025e53aaf874a6221535974143f680cb0f709fa9a5b85219b221012102b86508ab996ca87d863c907e44fe495d96adf7e95ad0823bac16c3e55758f902ffffffff02de311b060000000017a9143db10a1e8ddcab04dad1a0dc8bf2f35fd67b9e3b878a715bb1020000001976a914025e82ff333d6ccfc6b9b6d878e591107238a09088ac1f8a195e000000000000000000000000000000", "maker": "", "maker_payment_wait": 0, "taker_payment_lock": 0, "maker_payment_locktime": 0, "maker_pubkey": "", "secret_hash": "", "transaction": null, "error": ""}, "type": "MakerPaymentReceived"}, "timestamp": 1578732934215}, {"event": {"data": null, "type": "MakerPaymentWaitConfirmStarted"}, "timestamp": 1578732934216}, {"event": {"data": null, "type": "MakerPaymentValidatedAndConfirmed"}, "timestamp": 1578734485352}, {"event": {"data": {"lock_duration": 0, "maker_amount": "", "maker_coin": "", "maker_coin_start_block": 0, "maker_payment_confirmations": 0, "maker_payment_lock": 0, "my_persistent_pub": "", "secret": "", "started_at": 0, "taker": "", "taker_amount": "", "taker_coin": "", "taker_coin_start_block": 0, "taker_payment_confirmations": 0, "uuid": "", "taker_payment_locktime": 0, "taker_pubkey": "", "block_height": 0, "coin": "RVN", "fee_details": {"amount": "0.001", "coin": "", "gas": 0, "gas_price": "", "total_fee": ""}, "from": ["RQq3CmCy7DzwSbT1RPZDfVPcC3RAjyR8DJ"], "internal_id": "17986cc3b18461a3008f97d30890ab3a1071c923bf4c1b6ff169f067f3568a43", "my_balance_change": "-22.23619195", "received_by_me": "0.00290103", "spent_by_me": "22.23909298", "timestamp": 0, "to": ["RQq3CmCy7DzwSbT1RPZDfVPcC3RAjyR8DJ", "rDsfDR1oLKAkNHFBDzrZQnW9WaGzeh3rkn"], "total_amount": "22.23909298", "tx_hash": "17986cc3b18461a3008f97d30890ab3a1071c923bf4c1b6ff169f067f3568a43", "tx_hex": "01000000019397042154516427fa91e3bda34dfe6961aacdddc1c66b81fc7d09ca7ca953a2010000006b483045022100c0ff568850697ee1fac0d30a851880a20be87a2c28706f0f0400f095bef45610022005bc98c78c11ca1c162642aba641f43e24868bf9374ddf47fc356d7e0b5fa8ce012103683c77e807a47dcd559fa60a6510087e5c5aa0016c094cf5eb4d7e002db18e9fffffffff02db3588840000000017a91453cbaf38d2266dd7cca112f5d92f32209daa594087376d0400000000001976a914aa8fc9fcbf345510d419ca273a6e9897b488ee1688ac9593195e", "maker": "", "maker_payment_wait": 0, "taker_payment_lock": 0, "maker_payment_locktime": 0, "maker_pubkey": "", "secret_hash": "", "transaction": null, "error": ""}, "type": "TakerPaymentSent"}, "timestamp": 1578734495997}, {"event": {"data": {"lock_duration": 0, "maker_amount": "", "maker_coin": "", "maker_coin_start_block": 0, "maker_payment_confirmations": 0, "maker_payment_lock": 0, "my_persistent_pub": "", "secret": "360914042f5d3b811c51c8bb18f217554cfad6aa1daf44f43f16490ccb172a37", "started_at": 0, "taker": "", "taker_amount": "", "taker_coin": "", "taker_coin_start_block": 0, "taker_payment_confirmations": 0, "uuid": "", "taker_payment_locktime": 0, "taker_pubkey": "", "block_height": 0, "coin": "", "fee_details": null, "from": null, "internal_id": "", "my_balance_change": "", "received_by_me": "", "spent_by_me": "", "timestamp": 0, "to": null, "total_amount": "", "tx_hash": "", "tx_hex": "", "maker": "", "maker_payment_wait": 0, "taker_payment_lock": 0, "maker_payment_locktime": 0, "maker_pubkey": "", "secret_hash": "", "transaction": {"block_height": 0, "coin": "RVN", "fee_details": {"amount": "0.001", "coin": "", "gas": 0, "gas_price": "", "total_fee": ""}, "from": ["rDsfDR1oLKAkNHFBDzrZQnW9WaGzeh3rkn"], "internal_id": "7e212e6da0a437d3ad2d3b0a42b71a111688a992f9aea3bc1c69404728a6c3cc", "my_balance_change": "0", "received_by_me": "0", "spent_by_me": "0", "timestamp": 0, "to": ["R9ViegsR8qrthx81NJdANfnkLoQxomzHAM"], "total_amount": "22.23519195", "tx_hash": "7e212e6da0a437d3ad2d3b0a42b71a111688a992f9aea3bc1c69404728a6c3cc", "tx_hex": "0100000001438a56f367f069f16f1b4cbf23c971103aab9008d3978f00a36184b1c36c981700000000d8483045022100bda70998995796a894a1009c6bf4f07d883fed583af44a143923a0ca05a8066e02202091b314f33955dd9870f275598762cf54066487ffeab906d7b1c6c287b0d9f70120360914042f5d3b811c51c8bb18f217554cfad6aa1daf44f43f16490ccb172a37004c6b630444ab195eb1752103683c77e807a47dcd559fa60a6510087e5c5aa0016c094cf5eb4d7e002db18e9fac6782012088a914c3328ff4bb579a3cea32d7ba2974c58afd962591882102b86508ab996ca87d863c907e44fe495d96adf7e95ad0823bac16c3e55758f902ac68ffffffff013baf8684000000001976a914025e82ff333d6ccfc6b9b6d878e591107238a09088ac5d86195e"}, "error": ""}, "type": "TakerPaymentSpent"}, "timestamp": 1578734711255}, {"event": {"data": {"lock_duration": 0, "maker_amount": "", "maker_coin": "", "maker_coin_start_block": 0, "maker_payment_confirmations": 0, "maker_payment_lock": 0, "my_persistent_pub": "", "secret": "", "started_at": 0, "taker": "", "taker_amount": "", "taker_coin": "", "taker_coin_start_block": 0, "taker_payment_confirmations": 0, "uuid": "", "taker_payment_locktime": 0, "taker_pubkey": "", "block_height": 0, "coin": "KMD", "fee_details": {"amount": "0.00001", "coin": "", "gas": 0, "gas_price": "", "total_fee": ""}, "from": ["bJMTzrWpYQskeVKi8HX5NFUNmgX2TwD9Cg"], "internal_id": "92cb7bd54e6cb6e92c02287c87e8cd37f3cc37d1f3e8309c61b834e5f566b08f", "my_balance_change": "1.02444534", "received_by_me": "1.02444534", "spent_by_me": "0", "timestamp": 0, "to": ["RQq3CmCy7DzwSbT1RPZDfVPcC3RAjyR8DJ"], "total_amount": "1.02445534", "tx_hash": "92cb7bd54e6cb6e92c02287c87e8cd37f3cc37d1f3e8309c61b834e5f566b08f", "tx_hex": "0400008085202f8901bdcf31b03680e7f48348be914b1eee5037612fc818340d604fc5dfae7f5b2b2400000000d8483045022100e1a0c6873ea0bd770e09214b9619b8cbbdbdf223fe52e55b0b7bade9c4f23a860220145393dd569f69a7a8530468ed725bd956773a32828442d206e2afcf3601cb5b0120360914042f5d3b811c51c8bb18f217554cfad6aa1daf44f43f16490ccb172a37004c6b6304bcc9195eb1752102b86508ab996ca87d863c907e44fe495d96adf7e95ad0823bac16c3e55758f902ac6782012088a914c3328ff4bb579a3cea32d7ba2974c58afd962591882103683c77e807a47dcd559fa60a6510087e5c5aa0016c094cf5eb4d7e002db18e9fac68ffffffff01f62d1b06000000001976a914aa8fc9fcbf345510d419ca273a6e9897b488ee1688ac798c195e000000000000000000000000000000", "maker": "", "maker_payment_wait": 0, "taker_payment_lock": 0, "maker_payment_locktime": 0, "maker_pubkey": "", "secret_hash": "", "transaction": null, "error": ""}, "type": "MakerPaymentSpent"}, "timestamp": 1578734803084}, {"event": {"data": null, "type": "Finished"}, "timestamp": 1578734803086}], "my_info": {"my_amount": "22.23519195374357549659674954854840950131962772607306570356994026948187248228920683428253924156132796", "my_coin": "RVN", "other_amount": "1.02445534", "other_coin": "KMD", "started_at": 1578732748}, "success_events": ["Started", "Negotiated", "TakerFeeSent", "MakerPaymentReceived", "MakerPaymentWaitConfirmStarted", "MakerPaymentValidatedAndConfirmed", "TakerPaymentSent", "TakerPaymentSpent", "MakerPaymentSpent", "Finished"], "type": "Taker", "uuid": "013944b1-a4b6-4ec3-b950-c63346209152", "recoverable": false}