{"error_events": ["StartFailed", "NegotiateFailed", "TakerFeeSendFailed", "MakerPaymentValidateFailed", "MakerPaymentWaitConfirmFailed", "TakerPaymentTransactionFailed", "TakerPaymentWaitConfirmFailed", "TakerPaymentDataSendFailed", "TakerPaymentWaitForSpendFailed", "MakerPaymentSpendFailed", "TakerPaymentWaitRefundStarted", "TakerPaymentRefunded", "TakerPaymentRefundFailed"], "events": [{"event": {"data": {"lock_duration": 7800, "maker_amount": "1013.45256941", "maker_coin": "DGB", "maker_coin_start_block": 10334711, "maker_payment_confirmations": 1, "maker_payment_lock": 0, "my_persistent_pub": "03683c77e807a47dcd559fa60a6510087e5c5aa0016c094cf5eb4d7e002db18e9f", "secret": "", "started_at": 1582040477, "taker": "", "taker_amount": "10.00000000003651558654743059", "taker_coin": "KMD", "taker_coin_start_block": 1755073, "taker_payment_confirmations": 2, "uuid": "28bc4f0a-0a8e-4129-b54c-9749850ce8a9", "taker_payment_locktime": 0, "taker_pubkey": "", "block_height": 0, "coin": "", "fee_details": null, "from": null, "internal_id": "", "my_balance_change": "", "received_by_me": "", "spent_by_me": "", "timestamp": 0, "to": null, "total_amount": "", "tx_hash": "", "tx_hex": "", "maker": "1bb83b58ec130e28e0a6d5d2acf2eb01b0d3f1670e021d47d31db8a858219da8", "maker_payment_wait": 1582043597, "taker_payment_lock": 1582048277, "maker_payment_locktime": 0, "maker_pubkey": "", "secret_hash": "", "transaction": null, "error": ""}, "type": "Started"}, "timestamp": 1582040478314}, {"event": {"data": {"lock_duration": 0, "maker_amount": "", "maker_coin": "", "maker_coin_start_block": 0, "maker_payment_confirmations": 0, "maker_payment_lock": 0, "my_persistent_pub": "", "secret": "", "started_at": 0, "taker": "", "taker_amount": "", "taker_coin": "", "taker_coin_start_block": 0, "taker_payment_confirmations": 0, "uuid": "", "taker_payment_locktime": 0, "taker_pubkey": "", "block_height": 0, "coin": "", "fee_details": null, "from": null, "internal_id": "", "my_balance_change": "", "received_by_me": "", "spent_by_me": "", "timestamp": 0, "to": null, "total_amount": "", "tx_hash": "", "tx_hex": "", "maker": "", "maker_payment_wait": 0, "taker_payment_lock": 0, "maker_payment_locktime": 1582056077, "maker_pubkey": "031bb83b58ec130e28e0a6d5d2acf2eb01b0d3f1670e021d47d31db8a858219da8", "secret_hash": "f80e0df121212753b836a9c8eb54b664825de980", "transaction": null, "error": ""}, "type": "Negotiated"}, "timestamp": 1582040536451}, {"event": {"data": {"lock_duration": 0, "maker_amount": "", "maker_coin": "", "maker_coin_start_block": 0, "maker_payment_confirmations": 0, "maker_payment_lock": 0, "my_persistent_pub": "", "secret": "", "started_at": 0, "taker": "", "taker_amount": "", "taker_coin": "", "taker_coin_start_block": 0, "taker_payment_confirmations": 0, "uuid": "", "taker_payment_locktime": 0, "taker_pubkey": "", "block_height": 0, "coin": "KMD", "fee_details": {"amount": "0.00001", "coin": "", "gas": 0, "gas_price": "", "total_fee": ""}, "from": ["RQq3CmCy7DzwSbT1RPZDfVPcC3RAjyR8DJ"], "internal_id": "6151b15391ae86f196aebe1fc80cd5fdecd9531d5173735359bece8b5c874ec5", "my_balance_change": "-0.01159301", "received_by_me": "75.06989471", "spent_by_me": "75.08148772", "timestamp": 0, "to": ["RQq3CmCy7DzwSbT1RPZDfVPcC3RAjyR8DJ", "RThtXup6Zo7LZAi8kRWgjAyi1s4u6U9Cpf"], "total_amount": "75.08148772", "tx_hash": "6151b15391ae86f196aebe1fc80cd5fdecd9531d5173735359bece8b5c874ec5", "tx_hex": "0400008085202f8901bd8e547ab385b8b0f68b3fbc4d5b7dc5ce16cb61348339064c90c1813acd2278000000006b483045022100d14bf4e51ca8ceb5b06866e6fc0fdd60f6139611560b7ece870904b9195803300220044677013c36c70c57b26fb9103b1693756e3ab66d88ebdd263a395120cd9684012103683c77e807a47dcd559fa60a6510087e5c5aa0016c094cf5eb4d7e002db18e9fffffffff029dac1100000000001976a914ca1e04745e8ca0c60d8c5881531d51bec470743f88ac9f9173bf010000001976a914aa8fc9fcbf345510d419ca273a6e9897b488ee1688acdafd4b5e000000000000000000000000000000", "maker": "", "maker_payment_wait": 0, "taker_payment_lock": 0, "maker_payment_locktime": 0, "maker_pubkey": "", "secret_hash": "", "transaction": null, "error": ""}, "type": "TakerFeeSent"}, "timestamp": 1582040539871}, {"event": {"data": {"lock_duration": 0, "maker_amount": "", "maker_coin": "", "maker_coin_start_block": 0, "maker_payment_confirmations": 0, "maker_payment_lock": 0, "my_persistent_pub": "", "secret": "", "started_at": 0, "taker": "", "taker_amount": "", "taker_coin": "", "taker_coin_start_block": 0, "taker_payment_confirmations": 0, "uuid": "", "taker_payment_locktime": 0, "taker_pubkey": "", "block_height": 0, "coin": "DGB", "fee_details": {"amount": "0.001", "coin": "", "gas": 0, "gas_price": "", "total_fee": ""}, "from": ["DP1GH73GKRdRz8Qxc8mxe2hFtu5NRwTBXV"], "internal_id": "99c1b1cc08e08ebe0e89912d01521e2f7545f7939b859d495080b180ec5699d0", "my_balance_change": "0", "received_by_me": "0", "spent_by_me": "0", "timestamp": 1582040570, "to": ["DP1GH73GKRdRz8Qxc8mxe2hFtu5NRwTBXV", "SRgx299gTbXQtxMnfvprGUKJdTBkVA1Yp9"], "total_amount": "1312.95393163", "tx_hash": "99c1b1cc08e08ebe0e89912d01521e2f7545f7939b859d495080b180ec5699d0", "tx_hex": "010000000273d19961b7f1d40dd0ccece8ea3de073bb04106395ef3456a6a7305846d98505000000006a473044022024e355969014c5120f5ce1a57721fed7d1ebe94ec992a540e4dfe99cc33d27e802203a127d7b69f87e06658aa3b3354bc5fb3c5ead8678c52fe16a1c6ab8a0e6f10d0121031bb83b58ec130e28e0a6d5d2acf2eb01b0d3f1670e021d47d31db8a858219da8ffffffffdcfe809f19b98799957427739b6cf7e74877351a62af8cb27d6682f9660dd78e000000006b483045022100ff6ee9e6f829c982abee8fd1c42f95ff6038f3854bc242de0007b3b5c3ef2fda022060e6a05ebe07781ac9d2101e8d68c0bc3c04c25b8ce6dfd246c97db4c38a9b7d0121031bb83b58ec130e28e0a6d5d2acf2eb01b0d3f1670e021d47d31db8a858219da8ffffffff02ede5a5981700000017a91430378e4f7fe418926da9c1d028ab08affaaf227487fe4829f9060000001976a914c3f710deb7320b0efa6edb14e3ebeeb9155fa90d88acee054c5e", "maker": "", "maker_payment_wait": 0, "taker_payment_lock": 0, "maker_payment_locktime": 0, "maker_pubkey": "", "secret_hash": "", "transaction": null, "error": ""}, "type": "MakerPaymentReceived"}, "timestamp": 1582040581255}, {"event": {"data": null, "type": "MakerPaymentWaitConfirmStarted"}, "timestamp": 1582040581256}, {"event": {"data": null, "type": "MakerPaymentValidatedAndConfirmed"}, "timestamp": 1582040581662}, {"event": {"data": {"lock_duration": 0, "maker_amount": "", "maker_coin": "", "maker_coin_start_block": 0, "maker_payment_confirmations": 0, "maker_payment_lock": 0, "my_persistent_pub": "", "secret": "", "started_at": 0, "taker": "", "taker_amount": "", "taker_coin": "", "taker_coin_start_block": 0, "taker_payment_confirmations": 0, "uuid": "", "taker_payment_locktime": 0, "taker_pubkey": "", "block_height": 0, "coin": "KMD", "fee_details": {"amount": "0.00001", "coin": "", "gas": 0, "gas_price": "", "total_fee": ""}, "from": ["RQq3CmCy7DzwSbT1RPZDfVPcC3RAjyR8DJ"], "internal_id": "f27a99884a925a704a3b5cd901ce4c89708911166ee44eb445f07ac6b87ec589", "my_balance_change": "-10.00001", "received_by_me": "65.06988471", "spent_by_me": "75.06989471", "timestamp": 0, "to": ["RQq3CmCy7DzwSbT1RPZDfVPcC3RAjyR8DJ", "bb2cxsiFYWC7KcPHiikrVnLgQE5biSuYpX"], "total_amount": "75.06989471", "tx_hash": "f27a99884a925a704a3b5cd901ce4c89708911166ee44eb445f07ac6b87ec589", "tx_hex": "0400008085202f8901c54e875c8bcebe59537373511d53d9ecfdd50cc81fbeae96f186ae9153b15161010000006b483045022100d469979e2d05ff9bd86b17e2b86df42866f0a6ac64f480b7262a4ebd537cd3bf02206c1fef9343ee094c1ad18c9f710c380a24dec1225781fb96a086a7c64a506bd9012103683c77e807a47dcd559fa60a6510087e5c5aa0016c094cf5eb4d7e002db18e9fffffffff0200ca9a3b0000000017a914f49ac2481d87a9aa73ef7ab6a22cead8fcd5c14587b7c3d883010000001976a914aa8fc9fcbf345510d419ca273a6e9897b488ee1688ac08fe4b5e000000000000000000000000000000", "maker": "", "maker_payment_wait": 0, "taker_payment_lock": 0, "maker_payment_locktime": 0, "maker_pubkey": "", "secret_hash": "", "transaction": null, "error": ""}, "type": "TakerPaymentSent"}, "timestamp": 1582040585283}, {"event": {"data": {"lock_duration": 0, "maker_amount": "", "maker_coin": "", "maker_coin_start_block": 0, "maker_payment_confirmations": 0, "maker_payment_lock": 0, "my_persistent_pub": "", "secret": "6d0704d38e4ffa9bf5f06179bab859a708b6974932fe94dfd5a069146873fe84", "started_at": 0, "taker": "", "taker_amount": "", "taker_coin": "", "taker_coin_start_block": 0, "taker_payment_confirmations": 0, "uuid": "", "taker_payment_locktime": 0, "taker_pubkey": "", "block_height": 0, "coin": "", "fee_details": null, "from": null, "internal_id": "", "my_balance_change": "", "received_by_me": "", "spent_by_me": "", "timestamp": 0, "to": null, "total_amount": "", "tx_hash": "", "tx_hex": "", "maker": "", "maker_payment_wait": 0, "taker_payment_lock": 0, "maker_payment_locktime": 0, "maker_pubkey": "", "secret_hash": "", "transaction": {"block_height": 1755077, "coin": "KMD", "fee_details": {"amount": "0.00001", "coin": "", "gas": 0, "gas_price": "", "total_fee": ""}, "from": ["bb2cxsiFYWC7KcPHiikrVnLgQE5biSuYpX"], "internal_id": "51ad113fbdd2c82b7d6b38626129b57e304cd8fc370f74aae8d6225efd46303b", "my_balance_change": "0", "received_by_me": "0", "spent_by_me": "0", "timestamp": 1582040713, "to": ["RT9MpMyucqXiX8bZLimXBnrrn2ofmdGNKd"], "total_amount": "10", "tx_hash": "51ad113fbdd2c82b7d6b38626129b57e304cd8fc370f74aae8d6225efd46303b", "tx_hex": "0400008085202f890189c57eb8c67af045b44ee46e16118970894cce01d95c3b4a705a924a88997af200000000d747304402206dd197915a35868a1354bce619c4b7551a632e93e5b955f542a0568ccff003e0022045469e22925d2a1031fa026f4d2a36a33788113669d4c2daac449b0419b25f5f01206d0704d38e4ffa9bf5f06179bab859a708b6974932fe94dfd5a069146873fe84004c6b630415244c5eb1752103683c77e807a47dcd559fa60a6510087e5c5aa0016c094cf5eb4d7e002db18e9fac6782012088a914f80e0df121212753b836a9c8eb54b664825de9808821031bb83b58ec130e28e0a6d5d2acf2eb01b0d3f1670e021d47d31db8a858219da8ac68ffffffff0118c69a3b000000001976a914c3f710deb7320b0efa6edb14e3ebeeb9155fa90d88ac5efe4b5e000000000000000000000000000000"}, "error": ""}, "type": "TakerPaymentSpent"}, "timestamp": 1582041301065}, {"event": {"data": {"lock_duration": 0, "maker_amount": "", "maker_coin": "", "maker_coin_start_block": 0, "maker_payment_confirmations": 0, "maker_payment_lock": 0, "my_persistent_pub": "", "secret": "", "started_at": 0, "taker": "", "taker_amount": "", "taker_coin": "", "taker_coin_start_block": 0, "taker_payment_confirmations": 0, "uuid": "", "taker_payment_locktime": 0, "taker_pubkey": "", "block_height": 0, "coin": "DGB", "fee_details": {"amount": "0.001", "coin": "", "gas": 0, "gas_price": "", "total_fee": ""}, "from": ["SRgx299gTbXQtxMnfvprGUKJdTBkVA1Yp9"], "internal_id": "686f6ff6ff4f2d1ab465a7d3fecc29fd1f46123d16e7efddae234139a2fe7d18", "my_balance_change": "1013.45156941", "received_by_me": "1013.45156941", "spent_by_me": "0", "timestamp": 0, "to": ["DLgwfWGKop6eubGQgoZf7jE1JugsT99Srr"], "total_amount": "1013.45256941", "tx_hash": "686f6ff6ff4f2d1ab465a7d3fecc29fd1f46123d16e7efddae234139a2fe7d18", "tx_hex": "0100000001d09956ec80b18050499d859b93f745752f1e52012d91890ebe8ee008ccb1c19900000000d8483045022100af166e8829ef823aee77e054e2f071ef9fb0155c569e897ffe51b6cc99a39f850220386758572616d0a926e0f3fb1fb0b4c7757070d1ae9a7400c422ae1c9d5fc5b601206d0704d38e4ffa9bf5f06179bab859a708b6974932fe94dfd5a069146873fe84004c6b63048d424c5eb17521031bb83b58ec130e28e0a6d5d2acf2eb01b0d3f1670e021d47d31db8a858219da8ac6782012088a914f80e0df121212753b836a9c8eb54b664825de980882103683c77e807a47dcd559fa60a6510087e5c5aa0016c094cf5eb4d7e002db18e9fac68ffffffff014d5fa498170000001976a914aa8fc9fcbf345510d419ca273a6e9897b488ee1688acc5fa4b5e", "maker": "", "maker_payment_wait": 0, "taker_payment_lock": 0, "maker_payment_locktime": 0, "maker_pubkey": "", "secret_hash": "", "transaction": null, "error": ""}, "type": "MakerPaymentSpent"}, "timestamp": 1582041302886}, {"event": {"data": null, "type": "Finished"}, "timestamp": 1582041302887}], "my_info": {"my_amount": "10.00000000003651558654743059", "my_coin": "KMD", "other_amount": "1013.45256941", "other_coin": "DGB", "started_at": 1582040477}, "success_events": ["Started", "Negotiated", "TakerFeeSent", "MakerPaymentReceived", "MakerPaymentWaitConfirmStarted", "MakerPaymentValidatedAndConfirmed", "TakerPaymentSent", "TakerPaymentSpent", "MakerPaymentSpent", "Finished"], "type": "Taker", "uuid": "28bc4f0a-0a8e-4129-b54c-9749850ce8a9", "recoverable": false}