{"error_events": ["StartFailed", "NegotiateFailed", "TakerFeeSendFailed", "MakerPaymentValidateFailed", "TakerPaymentTransactionFailed", "TakerPaymentDataSendFailed", "TakerPaymentWaitForSpendFailed", "MakerPaymentSpendFailed", "TakerPaymentRefunded", "TakerPaymentRefundFailed"], "events": [{"event": {"data": {"lock_duration": 7800, "maker_amount": "22.26306257", "maker_coin": "RVN", "maker_coin_start_block": 1049531, "maker_payment_confirmations": 1, "maker_payment_lock": 0, "my_persistent_pub": "03683c77e807a47dcd559fa60a6510087e5c5aa0016c094cf5eb4d7e002db18e9f", "secret": "", "started_at": 1578513837, "taker": "", "taker_amount": "0.9999999998348465", "taker_coin": "KMD", "taker_coin_start_block": 1696908, "taker_payment_confirmations": 2, "uuid": "5ad6432e-f180-47ca-a142-6b788cedefe6", "taker_payment_locktime": 0, "taker_pubkey": "", "block_height": 0, "coin": "", "fee_details": null, "from": null, "internal_id": "", "my_balance_change": "", "received_by_me": "", "spent_by_me": "", "timestamp": 0, "to": null, "total_amount": "", "tx_hash": "", "tx_hex": "", "maker": "1bb83b58ec130e28e0a6d5d2acf2eb01b0d3f1670e021d47d31db8a858219da8", "maker_payment_wait": 1578516437, "taker_payment_lock": 1578521637, "maker_payment_locktime": 0, "maker_pubkey": "", "secret_hash": "", "transaction": null, "error": ""}, "type": "Started"}, "timestamp": 1578513837614}, {"event": {"data": {"lock_duration": 0, "maker_amount": "", "maker_coin": "", "maker_coin_start_block": 0, "maker_payment_confirmations": 0, "maker_payment_lock": 0, "my_persistent_pub": "", "secret": "", "started_at": 0, "taker": "", "taker_amount": "", "taker_coin": "", "taker_coin_start_block": 0, "taker_payment_confirmations": 0, "uuid": "", "taker_payment_locktime": 0, "taker_pubkey": "", "block_height": 0, "coin": "", "fee_details": null, "from": null, "internal_id": "", "my_balance_change": "", "received_by_me": "", "spent_by_me": "", "timestamp": 0, "to": null, "total_amount": "", "tx_hash": "", "tx_hex": "", "maker": "", "maker_payment_wait": 0, "taker_payment_lock": 0, "maker_payment_locktime": 1578529436, "maker_pubkey": "031bb83b58ec130e28e0a6d5d2acf2eb01b0d3f1670e021d47d31db8a858219da8", "secret_hash": "391b0f00642c941dec485729e378d6d18041b435", "transaction": null, "error": ""}, "type": "Negotiated"}, "timestamp": 1578513898696}, {"event": {"data": {"lock_duration": 0, "maker_amount": "", "maker_coin": "", "maker_coin_start_block": 0, "maker_payment_confirmations": 0, "maker_payment_lock": 0, "my_persistent_pub": "", "secret": "", "started_at": 0, "taker": "", "taker_amount": "", "taker_coin": "", "taker_coin_start_block": 0, "taker_payment_confirmations": 0, "uuid": "", "taker_payment_locktime": 0, "taker_pubkey": "", "block_height": 0, "coin": "KMD", "fee_details": {"amount": "0.00001", "coin": "", "gas": 0, "gas_price": "", "total_fee": ""}, "from": ["RQq3CmCy7DzwSbT1RPZDfVPcC3RAjyR8DJ"], "internal_id": "8ca9eec09872876f918a3dd7839fa1012b20317a919a8fc975907c3de027d773", "my_balance_change": "-0.0011683", "received_by_me": "1.62336101", "spent_by_me": "1.62452931", "timestamp": 0, "to": ["RQq3CmCy7DzwSbT1RPZDfVPcC3RAjyR8DJ", "RThtXup6Zo7LZAi8kRWgjAyi1s4u6U9Cpf"], "total_amount": "1.62452931", "tx_hash": "8ca9eec09872876f918a3dd7839fa1012b20317a919a8fc975907c3de027d773", "tx_hex": "0400008085202f8901e607d0649a8c178eee20273fc2996f351d8e5fa16a83658423228f8b43e9b4fa010000006a473044022021a9ed6c5d1c20e30c8793ca71225a954999ba6832bc84b68f6651d9bcee450e02205e4770784820146b27e09aa6184c05f0043581c9a0f4458bf4f5b98a5303c2bb012103683c77e807a47dcd559fa60a6510087e5c5aa0016c094cf5eb4d7e002db18e9fffffffff0276c40100000000001976a914ca1e04745e8ca0c60d8c5881531d51bec470743f88ac650dad09000000001976a914aa8fc9fcbf345510d419ca273a6e9897b488ee1688aced2d165e000000000000000000000000000000", "maker": "", "maker_payment_wait": 0, "taker_payment_lock": 0, "maker_payment_locktime": 0, "maker_pubkey": "", "secret_hash": "", "transaction": null, "error": ""}, "type": "TakerFeeSent"}, "timestamp": 1578513903321}, {"event": {"data": {"lock_duration": 0, "maker_amount": "", "maker_coin": "", "maker_coin_start_block": 0, "maker_payment_confirmations": 0, "maker_payment_lock": 0, "my_persistent_pub": "", "secret": "", "started_at": 0, "taker": "", "taker_amount": "", "taker_coin": "", "taker_coin_start_block": 0, "taker_payment_confirmations": 0, "uuid": "", "taker_payment_locktime": 0, "taker_pubkey": "", "block_height": 0, "coin": "RVN", "fee_details": {"amount": "0.001", "coin": "", "gas": 0, "gas_price": "", "total_fee": ""}, "from": ["RT9MpMyucqXiX8bZLimXBnrrn2ofmdGNKd"], "internal_id": "aeb3489a743c1cd7b89ffbdfef7621ad9724f4df4e42a6a662e4d0d8490dbf9c", "my_balance_change": "0", "received_by_me": "0", "spent_by_me": "0", "timestamp": 0, "to": ["RT9MpMyucqXiX8bZLimXBnrrn2ofmdGNKd", "rPmPRe1SNvGz44qeoHT4x3CGom3SVZYNCK"], "total_amount": "704.94620913", "tx_hash": "aeb3489a743c1cd7b89ffbdfef7621ad9724f4df4e42a6a662e4d0d8490dbf9c", "tx_hex": "0100000001b3ed1977d40c1d3a367a50ac08e9d57259d2b304297708e97fc3a1636e0f11bd000000006a47304402203c33559d0d8a6875216252091dd17c1324c77e3b4a5bf294a517d17fed74f61e02201b648b45e94ea061edd3d322c74f319a4873ae8e44b0207f793736e9b6154c6f0121031bb83b58ec130e28e0a6d5d2acf2eb01b0d3f1670e021d47d31db8a858219da8ffffffff02d1bcb2840000000017a914c04d442e6b362ccef3982e5c1c53cfd6fe1792808780491ae50f0000001976a914c3f710deb7320b0efa6edb14e3ebeeb9155fa90d88ac0736165e", "maker": "", "maker_payment_wait": 0, "taker_payment_lock": 0, "maker_payment_locktime": 0, "maker_pubkey": "", "secret_hash": "", "transaction": null, "error": ""}, "type": "MakerPaymentReceived"}, "timestamp": 1578513947523}, {"event": {"data": null, "type": "MakerPaymentWaitConfirmStarted"}, "timestamp": 1578513947524}, {"event": {"data": null, "type": "MakerPaymentValidatedAndConfirmed"}, "timestamp": 1578514023946}, {"event": {"data": {"lock_duration": 0, "maker_amount": "", "maker_coin": "", "maker_coin_start_block": 0, "maker_payment_confirmations": 0, "maker_payment_lock": 0, "my_persistent_pub": "", "secret": "", "started_at": 0, "taker": "", "taker_amount": "", "taker_coin": "", "taker_coin_start_block": 0, "taker_payment_confirmations": 0, "uuid": "", "taker_payment_locktime": 0, "taker_pubkey": "", "block_height": 0, "coin": "KMD", "fee_details": {"amount": "0.00001", "coin": "", "gas": 0, "gas_price": "", "total_fee": ""}, "from": ["RQq3CmCy7DzwSbT1RPZDfVPcC3RAjyR8DJ"], "internal_id": "dc86f3021dbaff37b40b0fd2382b3a7cb57a2d5da4f074680111c2ab14e2e67d", "my_balance_change": "-1.00000999", "received_by_me": "0.62335102", "spent_by_me": "1.62336101", "timestamp": 0, "to": ["RQq3CmCy7DzwSbT1RPZDfVPcC3RAjyR8DJ", "bEXMsC9LWWkbvmSD5YHc7qADSq8euGgb1E"], "total_amount": "1.62336101", "tx_hash": "dc86f3021dbaff37b40b0fd2382b3a7cb57a2d5da4f074680111c2ab14e2e67d", "tx_hex": "0400008085202f890173d727e03d7c9075c98f9a917a31202b01a19f83d73d8a916f877298c0eea98c010000006a473044022071aa343d0aa26eaf0a73a99f9f9fbb5ae2065e11f9a9f69b62fd9fed484c8d8b022000bb6dc4d8c439736800aa1b468d2b32d922ac80300769f170d78c2fa7b7fff8012103683c77e807a47dcd559fa60a6510087e5c5aa0016c094cf5eb4d7e002db18e9fffffffff02ffe0f5050000000017a91413af93c3188be43f1b15ec55fc7367720100707c877e28b703000000001976a914aa8fc9fcbf345510d419ca273a6e9897b488ee1688ac6a2e165e000000000000000000000000000000", "maker": "", "maker_payment_wait": 0, "taker_payment_lock": 0, "maker_payment_locktime": 0, "maker_pubkey": "", "secret_hash": "", "transaction": null, "error": ""}, "type": "TakerPaymentSent"}, "timestamp": 1578514028767}, {"event": {"data": {"lock_duration": 0, "maker_amount": "", "maker_coin": "", "maker_coin_start_block": 0, "maker_payment_confirmations": 0, "maker_payment_lock": 0, "my_persistent_pub": "", "secret": "5331d51327d837185ef6a0e73f4b24313bba1e8bf23e8a294ffee0cf8e0398d0", "started_at": 0, "taker": "", "taker_amount": "", "taker_coin": "", "taker_coin_start_block": 0, "taker_payment_confirmations": 0, "uuid": "", "taker_payment_locktime": 0, "taker_pubkey": "", "block_height": 0, "coin": "", "fee_details": null, "from": null, "internal_id": "", "my_balance_change": "", "received_by_me": "", "spent_by_me": "", "timestamp": 0, "to": null, "total_amount": "", "tx_hash": "", "tx_hex": "", "maker": "", "maker_payment_wait": 0, "taker_payment_lock": 0, "maker_payment_locktime": 0, "maker_pubkey": "", "secret_hash": "", "transaction": {"block_height": 0, "coin": "KMD", "fee_details": {"amount": "0.00001", "coin": "", "gas": 0, "gas_price": "", "total_fee": ""}, "from": ["bEXMsC9LWWkbvmSD5YHc7qADSq8euGgb1E"], "internal_id": "b6762d5ace7a650c1741255b7e1282bd54c3d2fdcf483e600d8cd705557e4018", "my_balance_change": "0", "received_by_me": "0", "spent_by_me": "0", "timestamp": 0, "to": ["RT9MpMyucqXiX8bZLimXBnrrn2ofmdGNKd"], "total_amount": "0.99999999", "tx_hash": "b6762d5ace7a650c1741255b7e1282bd54c3d2fdcf483e600d8cd705557e4018", "tx_hex": "0400008085202f89017de6e214abc211016874f0a45d2d7ab57c3a2b38d20f0bb437ffba1d02f386dc00000000d8483045022100c2757c8e04e7e6a0be3bbabd36fc809af23c393ba0ac43412ceefa5ef009db6802206c3927477653cb4260725e35af59cd862b8010cf3ecc18d588ccffadbc0212b901205331d51327d837185ef6a0e73f4b24313bba1e8bf23e8a294ffee0cf8e0398d0004c6b63042554165eb1752103683c77e807a47dcd559fa60a6510087e5c5aa0016c094cf5eb4d7e002db18e9fac6782012088a914391b0f00642c941dec485729e378d6d18041b4358821031bb83b58ec130e28e0a6d5d2acf2eb01b0d3f1670e021d47d31db8a858219da8ac68ffffffff0117ddf505000000001976a914c3f710deb7320b0efa6edb14e3ebeeb9155fa90d88acdc2e165e000000000000000000000000000000"}, "error": ""}, "type": "TakerPaymentSpent"}, "timestamp": 1578514152238}, {"event": {"data": {"lock_duration": 0, "maker_amount": "", "maker_coin": "", "maker_coin_start_block": 0, "maker_payment_confirmations": 0, "maker_payment_lock": 0, "my_persistent_pub": "", "secret": "", "started_at": 0, "taker": "", "taker_amount": "", "taker_coin": "", "taker_coin_start_block": 0, "taker_payment_confirmations": 0, "uuid": "", "taker_payment_locktime": 0, "taker_pubkey": "", "block_height": 0, "coin": "RVN", "fee_details": {"amount": "0.001", "coin": "", "gas": 0, "gas_price": "", "total_fee": ""}, "from": ["rPmPRe1SNvGz44qeoHT4x3CGom3SVZYNCK"], "internal_id": "e185fa5ee181dfd9598598e7e7ae562f04f98bda06e89399ab3b0c2e96000a1f", "my_balance_change": "22.26206257", "received_by_me": "22.26206257", "spent_by_me": "0", "timestamp": 0, "to": ["RQq3CmCy7DzwSbT1RPZDfVPcC3RAjyR8DJ"], "total_amount": "22.26306257", "tx_hash": "e185fa5ee181dfd9598598e7e7ae562f04f98bda06e89399ab3b0c2e96000a1f", "tx_hex": "01000000019cbf0d49d8d0e462a6a6424edff42497ad2176efdffb9fb8d71c3c749a48b3ae00000000d8483045022100a832f5f73cbd3b675569071a1731d854177d141e7331f62f3b9352841588b4b00220252721f5af4996ce63cd52f8574647c4a45ff9a464597d46b91c13d1d4406be301205331d51327d837185ef6a0e73f4b24313bba1e8bf23e8a294ffee0cf8e0398d0004c6b63049c72165eb17521031bb83b58ec130e28e0a6d5d2acf2eb01b0d3f1670e021d47d31db8a858219da8ac6782012088a914391b0f00642c941dec485729e378d6d18041b435882103683c77e807a47dcd559fa60a6510087e5c5aa0016c094cf5eb4d7e002db18e9fac68ffffffff013136b184000000001976a914aa8fc9fcbf345510d419ca273a6e9897b488ee1688acd828165e", "maker": "", "maker_payment_wait": 0, "taker_payment_lock": 0, "maker_payment_locktime": 0, "maker_pubkey": "", "secret_hash": "", "transaction": null, "error": ""}, "type": "MakerPaymentSpent"}, "timestamp": 1578514154063}, {"event": {"data": null, "type": "Finished"}, "timestamp": 1578514154064}], "my_info": {"my_amount": "0.9999999998348465", "my_coin": "KMD", "other_amount": "22.26306257", "other_coin": "RVN", "started_at": 1578513837}, "success_events": ["Started", "Negotiated", "TakerFeeSent", "MakerPaymentReceived", "MakerPaymentWaitConfirmStarted", "MakerPaymentValidatedAndConfirmed", "TakerPaymentSent", "TakerPaymentSpent", "MakerPaymentSpent", "Finished"], "type": "Taker", "uuid": "5ad6432e-f180-47ca-a142-6b788cedefe6", "recoverable": false}