{"error_events": ["StartFailed", "NegotiateFailed", "TakerFeeSendFailed", "MakerPaymentValidateFailed", "MakerPaymentWaitConfirmFailed", "TakerPaymentTransactionFailed", "TakerPaymentWaitConfirmFailed", "TakerPaymentDataSendFailed", "TakerPaymentWaitForSpendFailed", "MakerPaymentSpendFailed", "TakerPaymentWaitRefundStarted", "TakerPaymentRefunded", "TakerPaymentRefundFailed"], "events": [{"event": {"data": {"lock_duration": 7800, "maker_amount": "5.05137594", "maker_coin": "KMD", "maker_coin_start_block": 1752331, "maker_payment_confirmations": 2, "maker_payment_lock": 0, "my_persistent_pub": "03683c77e807a47dcd559fa60a6510087e5c5aa0016c094cf5eb4d7e002db18e9f", "secret": "", "started_at": 1581873813, "taker": "", "taker_amount": "496.1344448803615314", "taker_coin": "DGB", "taker_coin_start_block": 10323569, "taker_payment_confirmations": 1, "uuid": "684fcfd0-8100-4a17-9669-57ef9d3f0a41", "taker_payment_locktime": 0, "taker_pubkey": "", "block_height": 0, "coin": "", "fee_details": null, "from": null, "internal_id": "", "my_balance_change": "", "received_by_me": "", "spent_by_me": "", "timestamp": 0, "to": null, "total_amount": "", "tx_hash": "", "tx_hex": "", "maker": "1bb83b58ec130e28e0a6d5d2acf2eb01b0d3f1670e021d47d31db8a858219da8", "maker_payment_wait": 1581876933, "taker_payment_lock": 1581881613, "maker_payment_locktime": 0, "maker_pubkey": "", "secret_hash": "", "transaction": null, "error": ""}, "type": "Started"}, "timestamp": 1581873813925}, {"event": {"data": {"lock_duration": 0, "maker_amount": "", "maker_coin": "", "maker_coin_start_block": 0, "maker_payment_confirmations": 0, "maker_payment_lock": 0, "my_persistent_pub": "", "secret": "", "started_at": 0, "taker": "", "taker_amount": "", "taker_coin": "", "taker_coin_start_block": 0, "taker_payment_confirmations": 0, "uuid": "", "taker_payment_locktime": 0, "taker_pubkey": "", "block_height": 0, "coin": "", "fee_details": null, "from": null, "internal_id": "", "my_balance_change": "", "received_by_me": "", "spent_by_me": "", "timestamp": 0, "to": null, "total_amount": "", "tx_hash": "", "tx_hex": "", "maker": "", "maker_payment_wait": 0, "taker_payment_lock": 0, "maker_payment_locktime": 1581889413, "maker_pubkey": "031bb83b58ec130e28e0a6d5d2acf2eb01b0d3f1670e021d47d31db8a858219da8", "secret_hash": "a17a02bd36a39e211cca84bf4dca8f7949febde6", "transaction": null, "error": ""}, "type": "Negotiated"}, "timestamp": 1581873874642}, {"event": {"data": {"lock_duration": 0, "maker_amount": "", "maker_coin": "", "maker_coin_start_block": 0, "maker_payment_confirmations": 0, "maker_payment_lock": 0, "my_persistent_pub": "", "secret": "", "started_at": 0, "taker": "", "taker_amount": "", "taker_coin": "", "taker_coin_start_block": 0, "taker_payment_confirmations": 0, "uuid": "", "taker_payment_locktime": 0, "taker_pubkey": "", "block_height": 0, "coin": "DGB", "fee_details": {"amount": "0.001", "coin": "", "gas": 0, "gas_price": "", "total_fee": ""}, "from": ["DLgwfWGKop6eubGQgoZf7jE1JugsT99Srr"], "internal_id": "ad4402a747ca9470ad405af3f7c92a506b6547ff1f6ce94572d4d4faaca2ce03", "my_balance_change": "-0.5756731", "received_by_me": "0.7292294", "spent_by_me": "1.3049025", "timestamp": 0, "to": ["DLgwfWGKop6eubGQgoZf7jE1JugsT99Srr", "DPZnzesTGPD42AXY1qX8BQp78jLbmzpRT7"], "total_amount": "1.3049025", "tx_hash": "ad4402a747ca9470ad405af3f7c92a506b6547ff1f6ce94572d4d4faaca2ce03", "tx_hex": "0100000002421aaaa9ac7113a72eeb7a97d350c4573cdefc3939412284d0efcd26f9071613010000006b483045022100e723fb2ad9c741ba86fe6d9e67b7b920097ab86da736e29441d08cee10cc730f022025cb4af4c8df97cfc29e100567ef353c8df3d288d5b946fa970990307909cee9012103683c77e807a47dcd559fa60a6510087e5c5aa0016c094cf5eb4d7e002db18e9fffffffff73416b147a52dfd3a84494f506cc7f898cfc3d694afc50ef32fdde2d813cf3bb000000006a47304402201336e4c007f06e50167fff359f0ea507996a1374e7e3139f181d8ad827f00d59022043695de5b5a0e6cf5694f2a5ba5fafda45342b765e1463f1f1c02ac3035fd0d2012103683c77e807a47dcd559fa60a6510087e5c5aa0016c094cf5eb4d7e002db18e9fffffffff02aee16c03000000001976a914ca1e04745e8ca0c60d8c5881531d51bec470743f88ac3cb75804000000001976a914aa8fc9fcbf345510d419ca273a6e9897b488ee1688acd27a495e", "maker": "", "maker_payment_wait": 0, "taker_payment_lock": 0, "maker_payment_locktime": 0, "maker_pubkey": "", "secret_hash": "", "transaction": null, "error": ""}, "type": "TakerFeeSent"}, "timestamp": 1581873878465}, {"event": {"data": {"lock_duration": 0, "maker_amount": "", "maker_coin": "", "maker_coin_start_block": 0, "maker_payment_confirmations": 0, "maker_payment_lock": 0, "my_persistent_pub": "", "secret": "", "started_at": 0, "taker": "", "taker_amount": "", "taker_coin": "", "taker_coin_start_block": 0, "taker_payment_confirmations": 0, "uuid": "", "taker_payment_locktime": 0, "taker_pubkey": "", "block_height": 0, "coin": "KMD", "fee_details": {"amount": "0.00001", "coin": "", "gas": 0, "gas_price": "", "total_fee": ""}, "from": ["RT9MpMyucqXiX8bZLimXBnrrn2ofmdGNKd"], "internal_id": "07572b6e4b0102d93f0584637f2f7ff0d5cff5757a64134bf70d08e98c46281d", "my_balance_change": "0", "received_by_me": "0", "spent_by_me": "0", "timestamp": 0, "to": ["RT9MpMyucqXiX8bZLimXBnrrn2ofmdGNKd", "bJc4d6ZXJ8KZJBw5i5zuPZJRajF67wVT7k"], "total_amount": "2196.52277883", "tx_hash": "07572b6e4b0102d93f0584637f2f7ff0d5cff5757a64134bf70d08e98c46281d", "tx_hex": "0400008085202f8901b295feb3bf1e6ae0feb298ba3adeebe74aca4662bc6303f68e7e35f1851b37d1010000006a473044022041e6ab7fde3b44be33895b126bbaf7a758e5476b25feb33f826141a99ebf7aa502202b4a04edca5734a80ba1b5930a5971a7219fd84ff4001831feb33c68b42d54ce0121031bb83b58ec130e28e0a6d5d2acf2eb01b0d3f1670e021d47d31db8a858219da8ffffffff02bac91b1e0000000017a9144073c431327cdbe4f84b101876f4f35bc7a0f05287d9f82f06330000001976a914c3f710deb7320b0efa6edb14e3ebeeb9155fa90d88acf272495e000000000000000000000000000000", "maker": "", "maker_payment_wait": 0, "taker_payment_lock": 0, "maker_payment_locktime": 0, "maker_pubkey": "", "secret_hash": "", "transaction": null, "error": ""}, "type": "MakerPaymentReceived"}, "timestamp": 1581873922217}, {"event": {"data": null, "type": "MakerPaymentWaitConfirmStarted"}, "timestamp": 1581873922217}, {"event": {"data": null, "type": "MakerPaymentValidatedAndConfirmed"}, "timestamp": 1581875367147}, {"event": {"data": {"lock_duration": 0, "maker_amount": "", "maker_coin": "", "maker_coin_start_block": 0, "maker_payment_confirmations": 0, "maker_payment_lock": 0, "my_persistent_pub": "", "secret": "", "started_at": 0, "taker": "", "taker_amount": "", "taker_coin": "", "taker_coin_start_block": 0, "taker_payment_confirmations": 0, "uuid": "", "taker_payment_locktime": 0, "taker_pubkey": "", "block_height": 0, "coin": "DGB", "fee_details": {"amount": "0.001", "coin": "", "gas": 0, "gas_price": "", "total_fee": ""}, "from": ["DLgwfWGKop6eubGQgoZf7jE1JugsT99Srr"], "internal_id": "d69859be2cbd31446c7497f8e1f7ade94b9b9ba85037b3b78212e43bbcf94b9d", "my_balance_change": "-496.13544488", "received_by_me": "0.06467716", "spent_by_me": "496.20012204", "timestamp": 0, "to": ["DLgwfWGKop6eubGQgoZf7jE1JugsT99Srr", "SgbMQLSmQyr3uVijC2tAHsCikSVbCq6LWM"], "total_amount": "496.20012204", "tx_hash": "d69859be2cbd31446c7497f8e1f7ade94b9b9ba85037b3b78212e43bbcf94b9d", "tx_hex": "010000000403cea2acfad4d47245e96c1fff47656b502ac9f7f35a40ad7094ca47a70244ad010000006b4830450221009bb26552c7ce751fc2c075e222d8196bb09a4ea50ebbcd8eee9b2da0873b5778022039c015b1e1b70b29ee3f58a0fb8a631d11ebcf1da473e66ab518411115f9ea0b012103683c77e807a47dcd559fa60a6510087e5c5aa0016c094cf5eb4d7e002db18e9fffffffff3400a72389bf0d17b9fd10b448a02a97fe5b889dc51364186b70be8b2e99d6ac000000006a47304402202aeedad182c4e72502ed7649f8eeb41f5624deabdfbd8f9fabeb97162f5c01050220482483c54c95c189711a1e6d4b2f95ff1875a2264eb38b45b5f4e44dac045dae012103683c77e807a47dcd559fa60a6510087e5c5aa0016c094cf5eb4d7e002db18e9fffffffffd9ccaf2a0f63243de26fb2e6c1e243fa132b349d4ce3a5e9dc643a538374810b000000006a473044022058c44cccb8cf03c465afa97b275a99ff6e1b56d43e171bdbb46a5f77811a0b7402202fb82fbb385a6bebbb9abab0bff9ca1c8e297ae84cbb260970b3f97355437711012103683c77e807a47dcd559fa60a6510087e5c5aa0016c094cf5eb4d7e002db18e9fffffffff1e565c2cff74bad6e6479c9a177de1169ec4d314cb2d61cdf327433cad48b67c000000006a47304402206ec713ea5caf2d678c7eafe821d5f9cf77c82a2e3d68a939f3408c2b6be98cd5022041a825c4992768f28edf3118c186d8a527d59103f1b72ebf8d364effcb1fb641012103683c77e807a47dcd559fa60a6510087e5c5aa0016c094cf5eb4d7e002db18e9fffffffff028815318d0b00000017a914d3b2773bb2223b7dbfd4c88fb86f2532f5e1bc898784b06200000000001976a914aa8fc9fcbf345510d419ca273a6e9897b488ee1688aca780495e", "maker": "", "maker_payment_wait": 0, "taker_payment_lock": 0, "maker_payment_locktime": 0, "maker_pubkey": "", "secret_hash": "", "transaction": null, "error": ""}, "type": "TakerPaymentSent"}, "timestamp": 1581875374792}, {"event": {"data": {"lock_duration": 0, "maker_amount": "", "maker_coin": "", "maker_coin_start_block": 0, "maker_payment_confirmations": 0, "maker_payment_lock": 0, "my_persistent_pub": "", "secret": "6c7756bb1a7bca588588df3070c1686f79d1bd4663b52a1ca36505ee20dc170c", "started_at": 0, "taker": "", "taker_amount": "", "taker_coin": "", "taker_coin_start_block": 0, "taker_payment_confirmations": 0, "uuid": "", "taker_payment_locktime": 0, "taker_pubkey": "", "block_height": 0, "coin": "", "fee_details": null, "from": null, "internal_id": "", "my_balance_change": "", "received_by_me": "", "spent_by_me": "", "timestamp": 0, "to": null, "total_amount": "", "tx_hash": "", "tx_hex": "", "maker": "", "maker_payment_wait": 0, "taker_payment_lock": 0, "maker_payment_locktime": 0, "maker_pubkey": "", "secret_hash": "", "transaction": {"block_height": 0, "coin": "DGB", "fee_details": {"amount": "0.001", "coin": "", "gas": 0, "gas_price": "", "total_fee": ""}, "from": ["SgbMQLSmQyr3uVijC2tAHsCikSVbCq6LWM"], "internal_id": "0585d9465830a7a65634ef95631004bb73e03deae8ecccd00dd4f1b76199d173", "my_balance_change": "0", "received_by_me": "0", "spent_by_me": "0", "timestamp": 0, "to": ["DP1GH73GKRdRz8Qxc8mxe2hFtu5NRwTBXV"], "total_amount": "496.13444488", "tx_hash": "0585d9465830a7a65634ef95631004bb73e03deae8ecccd00dd4f1b76199d173", "tx_hex": "01000000019d4bf9bc3be41282b7b33750a89b9b4be9adf7e1f897746c4431bd2cbe5998d600000000d848304502210085f9f9be171a3847df582399de3c13da4be6509a0cf530caa0265be325015fc702206a5df5acee75c4625ea658e8fba789a672f99e9bf4c2f29f812ffe50d8e94ff301206c7756bb1a7bca588588df3070c1686f79d1bd4663b52a1ca36505ee20dc170c004c6b63040d99495eb1752103683c77e807a47dcd559fa60a6510087e5c5aa0016c094cf5eb4d7e002db18e9fac6782012088a914a17a02bd36a39e211cca84bf4dca8f7949febde68821031bb83b58ec130e28e0a6d5d2acf2eb01b0d3f1670e021d47d31db8a858219da8ac68ffffffff01e88e2f8d0b0000001976a914c3f710deb7320b0efa6edb14e3ebeeb9155fa90d88acb672495e"}, "error": ""}, "type": "TakerPaymentSpent"}, "timestamp": 1581875411629}, {"event": {"data": {"lock_duration": 0, "maker_amount": "", "maker_coin": "", "maker_coin_start_block": 0, "maker_payment_confirmations": 0, "maker_payment_lock": 0, "my_persistent_pub": "", "secret": "", "started_at": 0, "taker": "", "taker_amount": "", "taker_coin": "", "taker_coin_start_block": 0, "taker_payment_confirmations": 0, "uuid": "", "taker_payment_locktime": 0, "taker_pubkey": "", "block_height": 0, "coin": "KMD", "fee_details": {"amount": "0.00001", "coin": "", "gas": 0, "gas_price": "", "total_fee": ""}, "from": ["bJc4d6ZXJ8KZJBw5i5zuPZJRajF67wVT7k"], "internal_id": "f8a3369704f22ce29843eada8284b2f86795163fbdc138f6cc13d522a6a5c40b", "my_balance_change": "5.05136594", "received_by_me": "5.05136594", "spent_by_me": "0", "timestamp": 0, "to": ["RQq3CmCy7DzwSbT1RPZDfVPcC3RAjyR8DJ"], "total_amount": "5.05137594", "tx_hash": "f8a3369704f22ce29843eada8284b2f86795163fbdc138f6cc13d522a6a5c40b", "tx_hex": "0400008085202f89011d28468ce9080df74b13647a75f5cfd5f07f2f7f6384053fd902014b6e2b570700000000d7473044022035b506aa67292cfb829158d5257d08b6983f005214313ccf20a9f0be96a2a8670220468c41c2e3eeb7a3c8b684f949c22a8172196318407238e57067968708163a1401206c7756bb1a7bca588588df3070c1686f79d1bd4663b52a1ca36505ee20dc170c004c6b630485b7495eb17521031bb83b58ec130e28e0a6d5d2acf2eb01b0d3f1670e021d47d31db8a858219da8ac6782012088a914a17a02bd36a39e211cca84bf4dca8f7949febde6882103683c77e807a47dcd559fa60a6510087e5c5aa0016c094cf5eb4d7e002db18e9fac68ffffffff01d2c51b1e000000001976a914aa8fc9fcbf345510d419ca273a6e9897b488ee1688acd578495e000000000000000000000000000000", "maker": "", "maker_payment_wait": 0, "taker_payment_lock": 0, "maker_payment_locktime": 0, "maker_pubkey": "", "secret_hash": "", "transaction": null, "error": ""}, "type": "MakerPaymentSpent"}, "timestamp": 1581875413446}, {"event": {"data": null, "type": "Finished"}, "timestamp": 1581875413451}], "my_info": {"my_amount": "496.1344448803615314", "my_coin": "DGB", "other_amount": "5.05137594", "other_coin": "KMD", "started_at": 1581873813}, "success_events": ["Started", "Negotiated", "TakerFeeSent", "MakerPaymentReceived", "MakerPaymentWaitConfirmStarted", "MakerPaymentValidatedAndConfirmed", "TakerPaymentSent", "TakerPaymentSpent", "MakerPaymentSpent", "Finished"], "type": "Taker", "uuid": "684fcfd0-8100-4a17-9669-57ef9d3f0a41", "recoverable": false}