{"error_events": ["StartFailed", "NegotiateFailed", "TakerFeeSendFailed", "MakerPaymentValidateFailed", "MakerPaymentWaitConfirmFailed", "TakerPaymentTransactionFailed", "TakerPaymentWaitConfirmFailed", "TakerPaymentDataSendFailed", "TakerPaymentWaitForSpendFailed", "MakerPaymentSpendFailed", "TakerPaymentWaitRefundStarted", "TakerPaymentRefunded", "TakerPaymentRefundFailed"], "events": [{"event": {"data": {"lock_duration": 7800, "maker_amount": "1386.73175061", "maker_coin": "DOGE", "maker_coin_start_block": 3116467, "maker_payment_confirmations": 1, "maker_payment_lock": 0, "my_persistent_pub": "03683c77e807a47dcd559fa60a6510087e5c5aa0016c094cf5eb4d7e002db18e9f", "secret": "", "started_at": 1582399727, "taker": "", "taker_amount": "4.999999999999416", "taker_coin": "KMD", "taker_coin_start_block": 1760988, "taker_payment_confirmations": 2, "uuid": "84d8c86c-e1df-46c4-a459-2057dfcd8eb7", "taker_payment_locktime": 0, "taker_pubkey": "", "block_height": 0, "coin": "", "fee_details": null, "from": null, "internal_id": "", "my_balance_change": "", "received_by_me": "", "spent_by_me": "", "timestamp": 0, "to": null, "total_amount": "", "tx_hash": "", "tx_hex": "", "maker": "5d81c96aa4269c5946c0bd8dad7785ae0f4f595e7aea2ec4f8fe71f77ebf74a9", "maker_payment_wait": 1582402847, "taker_payment_lock": 1582407527, "maker_payment_locktime": 0, "maker_pubkey": "", "secret_hash": "", "transaction": null, "error": ""}, "type": "Started"}, "timestamp": 1582399727486}, {"event": {"data": {"lock_duration": 0, "maker_amount": "", "maker_coin": "", "maker_coin_start_block": 0, "maker_payment_confirmations": 0, "maker_payment_lock": 0, "my_persistent_pub": "", "secret": "", "started_at": 0, "taker": "", "taker_amount": "", "taker_coin": "", "taker_coin_start_block": 0, "taker_payment_confirmations": 0, "uuid": "", "taker_payment_locktime": 0, "taker_pubkey": "", "block_height": 0, "coin": "", "fee_details": null, "from": null, "internal_id": "", "my_balance_change": "", "received_by_me": "", "spent_by_me": "", "timestamp": 0, "to": null, "total_amount": "", "tx_hash": "", "tx_hex": "", "maker": "", "maker_payment_wait": 0, "taker_payment_lock": 0, "maker_payment_locktime": 1582415326, "maker_pubkey": "025d81c96aa4269c5946c0bd8dad7785ae0f4f595e7aea2ec4f8fe71f77ebf74a9", "secret_hash": "32ef876f597dc5f0828cc9e2b1f0654244a32c61", "transaction": null, "error": ""}, "type": "Negotiated"}, "timestamp": 1582399788565}, {"event": {"data": {"lock_duration": 0, "maker_amount": "", "maker_coin": "", "maker_coin_start_block": 0, "maker_payment_confirmations": 0, "maker_payment_lock": 0, "my_persistent_pub": "", "secret": "", "started_at": 0, "taker": "", "taker_amount": "", "taker_coin": "", "taker_coin_start_block": 0, "taker_payment_confirmations": 0, "uuid": "", "taker_payment_locktime": 0, "taker_pubkey": "", "block_height": 0, "coin": "KMD", "fee_details": {"amount": "0.00001", "coin": "", "gas": 0, "gas_price": "", "total_fee": ""}, "from": ["RQq3CmCy7DzwSbT1RPZDfVPcC3RAjyR8DJ"], "internal_id": "0d4b1c41be7d92aafd270491536649e87f6307d2cb61f8527c0c349744d64a61", "my_balance_change": "-0.0058015", "received_by_me": "79.45874935", "spent_by_me": "79.46455085", "timestamp": 0, "to": ["RQq3CmCy7DzwSbT1RPZDfVPcC3RAjyR8DJ", "RThtXup6Zo7LZAi8kRWgjAyi1s4u6U9Cpf"], "total_amount": "79.46455085", "tx_hash": "0d4b1c41be7d92aafd270491536649e87f6307d2cb61f8527c0c349744d64a61", "tx_hex": "0400008085202f89012126961df90844bbc59bc87f06988a9ee4dacb4e431cc32c2e9a97ba7a2123ed010000006b483045022100b07c35a1e0226699a11e419527e529023c19997804002534443e308a1f4426030220447aad03e025236aca5f39a1a0e82fb9a9e244d88d6fd8bcaa5603cd022c5705012103683c77e807a47dcd559fa60a6510087e5c5aa0016c094cf5eb4d7e002db18e9fffffffff024ed60800000000001976a914ca1e04745e8ca0c60d8c5881531d51bec470743f88acf76d9cd9010000001976a914aa8fc9fcbf345510d419ca273a6e9897b488ee1688ac2e79515e000000000000000000000000000000", "maker": "", "maker_payment_wait": 0, "taker_payment_lock": 0, "maker_payment_locktime": 0, "maker_pubkey": "", "secret_hash": "", "transaction": null, "error": ""}, "type": "TakerFeeSent"}, "timestamp": 1582399790781}, {"event": {"data": {"lock_duration": 0, "maker_amount": "", "maker_coin": "", "maker_coin_start_block": 0, "maker_payment_confirmations": 0, "maker_payment_lock": 0, "my_persistent_pub": "", "secret": "", "started_at": 0, "taker": "", "taker_amount": "", "taker_coin": "", "taker_coin_start_block": 0, "taker_payment_confirmations": 0, "uuid": "", "taker_payment_locktime": 0, "taker_pubkey": "", "block_height": 0, "coin": "DOGE", "fee_details": {"amount": "2.72009897", "coin": "", "gas": 0, "gas_price": "", "total_fee": ""}, "from": ["DGC1EoeKsW7R3oa1W31qvUPBqqvWT3GkCZ"], "internal_id": "cc4e3a432ef8e54c0e9660c8f08d14f947597e5719c3b067d01e4db1a6d37291", "my_balance_change": "0", "received_by_me": "0", "spent_by_me": "0", "timestamp": 1582399814, "to": ["AFjaEFkuyo46irupLiJUdqkTeBrBrUcJZs", "DGC1EoeKsW7R3oa1W31qvUPBqqvWT3GkCZ"], "total_amount": "1392.98121244", "tx_hash": "cc4e3a432ef8e54c0e9660c8f08d14f947597e5719c3b067d01e4db1a6d37291", "tx_hex": "01000000043281c5dafec557e4ec39b1d9cfb191a1d1aa49c66d85109f185d02bd76abca99000000006b483045022100e116d913f0b08b0f5a64626fee7f4a2555315d7a23592a0dfc60c9f906c87b8a02204b54ae2a8260f491f65e36a206761539326f9986987fc6d5fa55bc786873af380121025d81c96aa4269c5946c0bd8dad7785ae0f4f595e7aea2ec4f8fe71f77ebf74a9ffffffff3d1254d7c73567ea879878b1a1cdb6fd3f0d6dfca0d063f4c17f61c4ca7cf9e6010000006b483045022100a0971eb5250a0952f349aba565ffbfcff50c43d6a8d3d890cc714dac1164059f02205d7a1cdbef01525fd51f9dd892d46100af03105c2abf575ac5f722acc0e548d20121025d81c96aa4269c5946c0bd8dad7785ae0f4f595e7aea2ec4f8fe71f77ebf74a9fffffffff5a620e6967846b2ea177e6df94870bb3070c4695ef18b08fdd2f382eee77e48000000006a47304402202f95f5719f1b644ea90518e29de3b423e041ff1d54a895781c21280cda2df14902206cbf3b1bf7421d1200b067332537d7c3c964c640a808e02c06273d79011d917f0121025d81c96aa4269c5946c0bd8dad7785ae0f4f595e7aea2ec4f8fe71f77ebf74a9ffffffff77709461b35400cb750a35cf58866a6ba77374f891c9ef9476f60b67d42764da010000006b483045022100eaf28cadd059a4ebcdaed6cef42d3e4ed77ead02206d5e5698975a241ad83d180220489d5cf206e82fde7c5936c7972d66d7f2131cdcec707f918e37c49a261ef2630121025d81c96aa4269c5946c0bd8dad7785ae0f4f595e7aea2ec4f8fe71f77ebf74a9ffffffff0215ba90492000000017a914ff90a0d6aa0fc46da0eafdb747ecc8dffb8c4dc5875e610915000000001976a914793634de8c88ec851b4b595f2f87a2071ae79c5b88ac4381515e", "maker": "", "maker_payment_wait": 0, "taker_payment_lock": 0, "maker_payment_locktime": 0, "maker_pubkey": "", "secret_hash": "", "transaction": null, "error": ""}, "type": "MakerPaymentReceived"}, "timestamp": 1582399925283}, {"event": {"data": null, "type": "MakerPaymentWaitConfirmStarted"}, "timestamp": 1582399925285}, {"event": {"data": null, "type": "MakerPaymentValidatedAndConfirmed"}, "timestamp": 1582399925694}, {"event": {"data": {"lock_duration": 0, "maker_amount": "", "maker_coin": "", "maker_coin_start_block": 0, "maker_payment_confirmations": 0, "maker_payment_lock": 0, "my_persistent_pub": "", "secret": "", "started_at": 0, "taker": "", "taker_amount": "", "taker_coin": "", "taker_coin_start_block": 0, "taker_payment_confirmations": 0, "uuid": "", "taker_payment_locktime": 0, "taker_pubkey": "", "block_height": 0, "coin": "KMD", "fee_details": {"amount": "0.00001", "coin": "", "gas": 0, "gas_price": "", "total_fee": ""}, "from": ["RQq3CmCy7DzwSbT1RPZDfVPcC3RAjyR8DJ"], "internal_id": "2fddbc4ab7f863f04fc19f3b30ab7626589bbc14e27852ef3af93035372a0400", "my_balance_change": "-5.00000999", "received_by_me": "74.45873936", "spent_by_me": "79.45874935", "timestamp": 0, "to": ["RQq3CmCy7DzwSbT1RPZDfVPcC3RAjyR8DJ", "bVURJo1D9VEcajEqCEo6UojpgRDUGMGwcc"], "total_amount": "79.45874935", "tx_hash": "2fddbc4ab7f863f04fc19f3b30ab7626589bbc14e27852ef3af93035372a0400", "tx_hex": "0400008085202f8901614ad64497340c7c52f861cbd207637fe8496653910427fdaa927dbe411c4b0d010000006b4830450221009bc674f1cadbb2b15d6e7f870d3866f90ae44058d8c8cedd91f429294520910002203a333bbc73c0b98835b7b9aa207294bbead652c38ef6fb4ea1e13b4ab5545bcd012103683c77e807a47dcd559fa60a6510087e5c5aa0016c094cf5eb4d7e002db18e9fffffffff02ff64cd1d0000000017a914b7ab16bba30a94144a16526062fa7a1ad0ccc108871005cfbb010000001976a914aa8fc9fcbf345510d419ca273a6e9897b488ee1688acb879515e000000000000000000000000000000", "maker": "", "maker_payment_wait": 0, "taker_payment_lock": 0, "maker_payment_locktime": 0, "maker_pubkey": "", "secret_hash": "", "transaction": null, "error": ""}, "type": "TakerPaymentSent"}, "timestamp": 1582399930517}, {"event": {"data": {"lock_duration": 0, "maker_amount": "", "maker_coin": "", "maker_coin_start_block": 0, "maker_payment_confirmations": 0, "maker_payment_lock": 0, "my_persistent_pub": "", "secret": "4c8f61fcae5be31e2eb54d565ef0f0819a1aaa0c4240e4b6fd15f48ba4d4e9fe", "started_at": 0, "taker": "", "taker_amount": "", "taker_coin": "", "taker_coin_start_block": 0, "taker_payment_confirmations": 0, "uuid": "", "taker_payment_locktime": 0, "taker_pubkey": "", "block_height": 0, "coin": "", "fee_details": null, "from": null, "internal_id": "", "my_balance_change": "", "received_by_me": "", "spent_by_me": "", "timestamp": 0, "to": null, "total_amount": "", "tx_hash": "", "tx_hex": "", "maker": "", "maker_payment_wait": 0, "taker_payment_lock": 0, "maker_payment_locktime": 0, "maker_pubkey": "", "secret_hash": "", "transaction": {"block_height": 0, "coin": "KMD", "fee_details": {"amount": "0.00001", "coin": "", "gas": 0, "gas_price": "", "total_fee": ""}, "from": ["bVURJo1D9VEcajEqCEo6UojpgRDUGMGwcc"], "internal_id": "b4dcf3b57ae16c46f413ff2c78a99d6ae4d3c5ad8a0b116d10cf2d40459f94ce", "my_balance_change": "0", "received_by_me": "0", "spent_by_me": "0", "timestamp": 0, "to": ["RLL6n4ayAv1haokcEd1QUEYniyeoiYkn7W"], "total_amount": "4.99999999", "tx_hash": "b4dcf3b57ae16c46f413ff2c78a99d6ae4d3c5ad8a0b116d10cf2d40459f94ce", "tx_hex": "0400008085202f890100042a373530f93aef5278e214bc9b582676ab303b9fc14ff063f8b74abcdd2f00000000d8483045022100f0a6aded0bc72f154b9da7f661e9ce36afaa1c294daddc52b6fc2f0436bfdec3022074f0c53eb1dd68536a0071df6e472db8c6ecca4a142f34c2d30662512b086b4f01204c8f61fcae5be31e2eb54d565ef0f0819a1aaa0c4240e4b6fd15f48ba4d4e9fe004c6b6304679f515eb1752103683c77e807a47dcd559fa60a6510087e5c5aa0016c094cf5eb4d7e002db18e9fac6782012088a91432ef876f597dc5f0828cc9e2b1f0654244a32c618821025d81c96aa4269c5946c0bd8dad7785ae0f4f595e7aea2ec4f8fe71f77ebf74a9ac68ffffffff011761cd1d000000001976a914793634de8c88ec851b4b595f2f87a2071ae79c5b88acbe7d515e000000000000000000000000000000"}, "error": ""}, "type": "TakerPaymentSpent"}, "timestamp": 1582401018172}, {"event": {"data": {"lock_duration": 0, "maker_amount": "", "maker_coin": "", "maker_coin_start_block": 0, "maker_payment_confirmations": 0, "maker_payment_lock": 0, "my_persistent_pub": "", "secret": "", "started_at": 0, "taker": "", "taker_amount": "", "taker_coin": "", "taker_coin_start_block": 0, "taker_payment_confirmations": 0, "uuid": "", "taker_payment_locktime": 0, "taker_pubkey": "", "block_height": 0, "coin": "DOGE", "fee_details": {"amount": "5", "coin": "", "gas": 0, "gas_price": "", "total_fee": ""}, "from": ["AFjaEFkuyo46irupLiJUdqkTeBrBrUcJZs"], "internal_id": "4cc4dd1f5a1a95e1956c27737036a015858147c132cdafe5d311aba1e48419a9", "my_balance_change": "1381.73175061", "received_by_me": "1381.73175061", "spent_by_me": "0", "timestamp": 0, "to": ["DLgwfWGKop6eubGQgoZf7jE1JugsT99Srr"], "total_amount": "1386.73175061", "tx_hash": "4cc4dd1f5a1a95e1956c27737036a015858147c132cdafe5d311aba1e48419a9", "tx_hex": "01000000019172d3a6b14d1ed067b0c319577e5947f9148df0c860960e4ce5f82e433a4ecc00000000d8483045022100b49319d81d2cbba6b368dabd8c8e4c7dc59a78f5d71e16cc70bc858479c3e87d0220637c0669ee3efc460c352c0a818be71a08f0d47553df0273773944763ca5142201204c8f61fcae5be31e2eb54d565ef0f0819a1aaa0c4240e4b6fd15f48ba4d4e9fe004c6b6304debd515eb17521025d81c96aa4269c5946c0bd8dad7785ae0f4f595e7aea2ec4f8fe71f77ebf74a9ac6782012088a91432ef876f597dc5f0828cc9e2b1f0654244a32c61882103683c77e807a47dcd559fa60a6510087e5c5aa0016c094cf5eb4d7e002db18e9fac68ffffffff011555c32b200000001976a914aa8fc9fcbf345510d419ca273a6e9897b488ee1688acea77515e", "maker": "", "maker_payment_wait": 0, "taker_payment_lock": 0, "maker_payment_locktime": 0, "maker_pubkey": "", "secret_hash": "", "transaction": null, "error": ""}, "type": "MakerPaymentSpent"}, "timestamp": 1582401019998}, {"event": {"data": null, "type": "Finished"}, "timestamp": 1582401020002}], "my_info": {"my_amount": "4.999999999999416", "my_coin": "KMD", "other_amount": "1386.73175061", "other_coin": "DOGE", "started_at": 1582399727}, "success_events": ["Started", "Negotiated", "TakerFeeSent", "MakerPaymentReceived", "MakerPaymentWaitConfirmStarted", "MakerPaymentValidatedAndConfirmed", "TakerPaymentSent", "TakerPaymentSpent", "MakerPaymentSpent", "Finished"], "type": "Taker", "uuid": "84d8c86c-e1df-46c4-a459-2057dfcd8eb7", "recoverable": false}