{"error_events": ["StartFailed", "NegotiateFailed", "TakerFeeSendFailed", "MakerPaymentValidateFailed", "TakerPaymentTransactionFailed", "TakerPaymentDataSendFailed", "TakerPaymentWaitForSpendFailed", "MakerPaymentSpendFailed", "TakerPaymentRefunded", "TakerPaymentRefundFailed"], "events": [{"event": {"data": {"lock_duration": 7800, "maker_amount": "1.00439216", "maker_coin": "KMD", "maker_coin_start_block": 1698153, "maker_payment_confirmations": 2, "maker_payment_lock": 0, "my_persistent_pub": "03683c77e807a47dcd559fa60a6510087e5c5aa0016c094cf5eb4d7e002db18e9f", "secret": "", "started_at": 1578589441, "taker": "", "taker_amount": "6.129638472722616", "taker_coin": "NAV", "taker_coin_start_block": 3807205, "taker_payment_confirmations": 1, "uuid": "8fe94b00-8960-451e-88e2-14a86f4e06b8", "taker_payment_locktime": 0, "taker_pubkey": "", "block_height": 0, "coin": "", "fee_details": null, "from": null, "internal_id": "", "my_balance_change": "", "received_by_me": "", "spent_by_me": "", "timestamp": 0, "to": null, "total_amount": "", "tx_hash": "", "tx_hex": "", "maker": "1bb83b58ec130e28e0a6d5d2acf2eb01b0d3f1670e021d47d31db8a858219da8", "maker_payment_wait": 1578592041, "taker_payment_lock": 1578597241, "maker_payment_locktime": 0, "maker_pubkey": "", "secret_hash": "", "transaction": null, "error": ""}, "type": "Started"}, "timestamp": 1578589442206}, {"event": {"data": {"lock_duration": 0, "maker_amount": "", "maker_coin": "", "maker_coin_start_block": 0, "maker_payment_confirmations": 0, "maker_payment_lock": 0, "my_persistent_pub": "", "secret": "", "started_at": 0, "taker": "", "taker_amount": "", "taker_coin": "", "taker_coin_start_block": 0, "taker_payment_confirmations": 0, "uuid": "", "taker_payment_locktime": 0, "taker_pubkey": "", "block_height": 0, "coin": "", "fee_details": null, "from": null, "internal_id": "", "my_balance_change": "", "received_by_me": "", "spent_by_me": "", "timestamp": 0, "to": null, "total_amount": "", "tx_hash": "", "tx_hex": "", "maker": "", "maker_payment_wait": 0, "taker_payment_lock": 0, "maker_payment_locktime": 1578605041, "maker_pubkey": "031bb83b58ec130e28e0a6d5d2acf2eb01b0d3f1670e021d47d31db8a858219da8", "secret_hash": "f5af409119e6760780029da0473cbf486a3ce391", "transaction": null, "error": ""}, "type": "Negotiated"}, "timestamp": 1578589503031}, {"event": {"data": {"lock_duration": 0, "maker_amount": "", "maker_coin": "", "maker_coin_start_block": 0, "maker_payment_confirmations": 0, "maker_payment_lock": 0, "my_persistent_pub": "", "secret": "", "started_at": 0, "taker": "", "taker_amount": "", "taker_coin": "", "taker_coin_start_block": 0, "taker_payment_confirmations": 0, "uuid": "", "taker_payment_locktime": 0, "taker_pubkey": "", "block_height": 3807208, "coin": "NAV", "fee_details": {"amount": "0.0001", "coin": "", "gas": 0, "gas_price": "", "total_fee": ""}, "from": ["NbTpK17x8xkoiZUQFTDzGcV6nWcZpLft2h"], "internal_id": "06726622f75154fa13153869cb4777648b6187faf29c3dffba6db264d2a09e38", "my_balance_change": "-0.00719996", "received_by_me": "6.13053778", "spent_by_me": "6.13773774", "timestamp": 1578589504, "to": ["NbTpK17x8xkoiZUQFTDzGcV6nWcZpLft2h", "NeLfe9j5bXsCq8jXaVBTLJ5CcLGJ8CgqdH"], "total_amount": "6.13773774", "tx_hash": "06726622f75154fa13153869cb4777648b6187faf29c3dffba6db264d2a09e38", "tx_hex": "030000003f5d175e014df5dc243108b2819465f62540e184f2750730063d9047144ff24a9be326820c010000006a4730440220393d3fa59a1da53342eb14c3fd036ef9c89927c9e65e8a63c1cbb5b04c2588c50220128d14cae8972228bd38ccb4b44e56d5384fb566010e2459139e03822891627e012103683c77e807a47dcd559fa60a6510087e5c5aa0016c094cf5eb4d7e002db18e9fffffffff026cd50a00000000001976a914ca1e04745e8ca0c60d8c5881531d51bec470743f88ac52758a24000000001976a914aa8fc9fcbf345510d419ca273a6e9897b488ee1688ac3f5d175e00", "maker": "", "maker_payment_wait": 0, "taker_payment_lock": 0, "maker_payment_locktime": 0, "maker_pubkey": "", "secret_hash": "", "transaction": null, "error": ""}, "type": "TakerFeeSent"}, "timestamp": 1578589507460}, {"event": {"data": {"lock_duration": 0, "maker_amount": "", "maker_coin": "", "maker_coin_start_block": 0, "maker_payment_confirmations": 0, "maker_payment_lock": 0, "my_persistent_pub": "", "secret": "", "started_at": 0, "taker": "", "taker_amount": "", "taker_coin": "", "taker_coin_start_block": 0, "taker_payment_confirmations": 0, "uuid": "", "taker_payment_locktime": 0, "taker_pubkey": "", "block_height": 0, "coin": "KMD", "fee_details": {"amount": "-0.00015159", "coin": "", "gas": 0, "gas_price": "", "total_fee": ""}, "from": ["RT9MpMyucqXiX8bZLimXBnrrn2ofmdGNKd"], "internal_id": "954101842e1e4922c5ed74dc3f69a0492a829e719ccf32b8144715a3527c2f6a", "my_balance_change": "0", "received_by_me": "0", "spent_by_me": "0", "timestamp": 0, "to": ["RT9MpMyucqXiX8bZLimXBnrrn2ofmdGNKd", "bGaiDBbdbykrQ3MdWJpfNAr9pxiFr7Zc4J"], "total_amount": "15.71430283", "tx_hash": "954101842e1e4922c5ed74dc3f69a0492a829e719ccf32b8144715a3527c2f6a", "tx_hex": "0400008085202f8902d3d39b4d6126cd3abc6570d3a0232e15393a6f28b2f9a54440bcfbdb1c472513000000006a47304402202d93e7859b97b7ca8124ad6baa6b03fb2900aaa56d0eed2b5f7bf52827c43a85022021ce18e13d7e0314effffa129e477a2063f6a10acbf957636527f65482717aee0121031bb83b58ec130e28e0a6d5d2acf2eb01b0d3f1670e021d47d31db8a858219da8ffffffff3bccd1fea0fe3997173db8caca92e6cd18a2107f85ed2a6eba4c020629584c79010000006a47304402205489f4f7e8ea341c978f623ad17ed0cdc97991a10412dd536c663b36d115c0b60220009f9e8f42e2449ad69a9c76a1c5f729abc281606136a9874de7996a97cec9630121031bb83b58ec130e28e0a6d5d2acf2eb01b0d3f1670e021d47d31db8a858219da8ffffffff02b094fc050000000017a9142a420f3caff1917203ca3d5bbfe0a6cdba04dce18712c6ad57000000001976a914c3f710deb7320b0efa6edb14e3ebeeb9155fa90d88ac535a175e000000000000000000000000000000", "maker": "", "maker_payment_wait": 0, "taker_payment_lock": 0, "maker_payment_locktime": 0, "maker_pubkey": "", "secret_hash": "", "transaction": null, "error": ""}, "type": "MakerPaymentReceived"}, "timestamp": 1578589550657}, {"event": {"data": null, "type": "MakerPaymentWaitConfirmStarted"}, "timestamp": 1578589550658}, {"event": {"data": null, "type": "MakerPaymentValidatedAndConfirmed"}, "timestamp": 1578591871717}, {"event": {"data": {"lock_duration": 0, "maker_amount": "", "maker_coin": "", "maker_coin_start_block": 0, "maker_payment_confirmations": 0, "maker_payment_lock": 0, "my_persistent_pub": "", "secret": "", "started_at": 0, "taker": "", "taker_amount": "", "taker_coin": "", "taker_coin_start_block": 0, "taker_payment_confirmations": 0, "uuid": "", "taker_payment_locktime": 0, "taker_pubkey": "", "block_height": 3807290, "coin": "NAV", "fee_details": {"amount": "0.0001", "coin": "", "gas": 0, "gas_price": "", "total_fee": ""}, "from": ["NbTpK17x8xkoiZUQFTDzGcV6nWcZpLft2h"], "internal_id": "4dd0630a70969519e1700b81ca662ade2140c5df8a977f148236e0e141671774", "my_balance_change": "-6.12973847", "received_by_me": "0.00079931", "spent_by_me": "6.13053778", "timestamp": 1578592000, "to": ["NbTpK17x8xkoiZUQFTDzGcV6nWcZpLft2h", "bKVohgsEGKD7G47kYcTz9Hp9Fp8eXigz3f"], "total_amount": "6.13053778", "tx_hash": "4dd0630a70969519e1700b81ca662ade2140c5df8a977f148236e0e141671774", "tx_hex": "030000008066175e01389ea0d264b26dbaff3d9cf2fa87618b647747cb69381513fa5451f722667206010000006a47304402201ba3b693b3ff58f9b579aa7aca7faeb90c9fbc3bf9248f1421685bbac97577a602202255315b2592d68639b2be7800fe5494a3ea0091f1f4e04708a91e796d4de24b012103683c77e807a47dcd559fa60a6510087e5c5aa0016c094cf5eb4d7e002db18e9fffffffff02071689240000000017a9144a3cf0ec06dff766e9cf1aa087020cac1d50fc49873b380100000000001976a914aa8fc9fcbf345510d419ca273a6e9897b488ee1688ac8066175e00", "maker": "", "maker_payment_wait": 0, "taker_payment_lock": 0, "maker_payment_locktime": 0, "maker_pubkey": "", "secret_hash": "", "transaction": null, "error": ""}, "type": "TakerPaymentSent"}, "timestamp": 1578591971167}, {"event": {"data": {"lock_duration": 0, "maker_amount": "", "maker_coin": "", "maker_coin_start_block": 0, "maker_payment_confirmations": 0, "maker_payment_lock": 0, "my_persistent_pub": "", "secret": "2c7b5f67d338729d74428db71c351eb20afcb2223c74141ea1e23171b1c708b0", "started_at": 0, "taker": "", "taker_amount": "", "taker_coin": "", "taker_coin_start_block": 0, "taker_payment_confirmations": 0, "uuid": "", "taker_payment_locktime": 0, "taker_pubkey": "", "block_height": 0, "coin": "", "fee_details": null, "from": null, "internal_id": "", "my_balance_change": "", "received_by_me": "", "spent_by_me": "", "timestamp": 0, "to": null, "total_amount": "", "tx_hash": "", "tx_hex": "", "maker": "", "maker_payment_wait": 0, "taker_payment_lock": 0, "maker_payment_locktime": 0, "maker_pubkey": "", "secret_hash": "", "transaction": {"block_height": 0, "coin": "NAV", "fee_details": {"amount": "0.0001", "coin": "", "gas": 0, "gas_price": "", "total_fee": ""}, "from": ["bKVohgsEGKD7G47kYcTz9Hp9Fp8eXigz3f"], "internal_id": "b5090d29f5978d73ca9bf55ec15380d8ba0fbf36fe9902b5bd71716a55f936aa", "my_balance_change": "0", "received_by_me": "0", "spent_by_me": "0", "timestamp": 0, "to": ["Ndn8vbtteaHao6cxAnSHnuxMNW14hZzzoW"], "total_amount": "6.12963847", "tx_hash": "b5090d29f5978d73ca9bf55ec15380d8ba0fbf36fe9902b5bd71716a55f936aa", "tx_hex": "03000000fa66175e0174176741e1e03682147f978adfc54021de2a66ca810b70e1199596700a63d04d00000000d8483045022100c26ea094285f866a20a52a5587d759feb3a77698f734e7f6c49d6cbd329a2d230220283370bd9ecccf45c94a7225ac5de747f459e59ff7b4d0dec77f98d3352850e101202c7b5f67d338729d74428db71c351eb20afcb2223c74141ea1e23171b1c708b0004c6b6304797b175eb1752103683c77e807a47dcd559fa60a6510087e5c5aa0016c094cf5eb4d7e002db18e9fac6782012088a914f5af409119e6760780029da0473cbf486a3ce3918821031bb83b58ec130e28e0a6d5d2acf2eb01b0d3f1670e021d47d31db8a858219da8ac68ffffffff01f7ee8824000000001976a914c3f710deb7320b0efa6edb14e3ebeeb9155fa90d88acea58175e00"}, "error": ""}, "type": "TakerPaymentSpent"}, "timestamp": 1578592002791}, {"event": {"data": {"lock_duration": 0, "maker_amount": "", "maker_coin": "", "maker_coin_start_block": 0, "maker_payment_confirmations": 0, "maker_payment_lock": 0, "my_persistent_pub": "", "secret": "", "started_at": 0, "taker": "", "taker_amount": "", "taker_coin": "", "taker_coin_start_block": 0, "taker_payment_confirmations": 0, "uuid": "", "taker_payment_locktime": 0, "taker_pubkey": "", "block_height": 0, "coin": "KMD", "fee_details": {"amount": "0.00001", "coin": "", "gas": 0, "gas_price": "", "total_fee": ""}, "from": ["bGaiDBbdbykrQ3MdWJpfNAr9pxiFr7Zc4J"], "internal_id": "fcfcb62aca5593f9febce7e925c45679fef414d1bd715ed103ac10066d3b0742", "my_balance_change": "1.00438216", "received_by_me": "1.00438216", "spent_by_me": "0", "timestamp": 0, "to": ["RQq3CmCy7DzwSbT1RPZDfVPcC3RAjyR8DJ"], "total_amount": "1.00439216", "tx_hash": "fcfcb62aca5593f9febce7e925c45679fef414d1bd715ed103ac10066d3b0742", "tx_hex": "0400008085202f89016a2f7c52a3154714b832cf9c719e822a49a0693fdc74edc522491e2e8401419500000000d74730440220490ae8a9f902dcb3a890b003585ff6dacc1297eeb8d0cd420bcc7d902d490e1b02204cb7970cedf1a1c97b25ef9b323a41a81818bfb21cc1649932fcfceff8013ec401202c7b5f67d338729d74428db71c351eb20afcb2223c74141ea1e23171b1c708b0004c6b6304f199175eb17521031bb83b58ec130e28e0a6d5d2acf2eb01b0d3f1670e021d47d31db8a858219da8ac6782012088a914f5af409119e6760780029da0473cbf486a3ce391882103683c77e807a47dcd559fa60a6510087e5c5aa0016c094cf5eb4d7e002db18e9fac68ffffffff01c890fc05000000001976a914aa8fc9fcbf345510d419ca273a6e9897b488ee1688ac045f175e000000000000000000000000000000", "maker": "", "maker_payment_wait": 0, "taker_payment_lock": 0, "maker_payment_locktime": 0, "maker_pubkey": "", "secret_hash": "", "transaction": null, "error": ""}, "type": "MakerPaymentSpent"}, "timestamp": 1578592004603}, {"event": {"data": null, "type": "Finished"}, "timestamp": 1578592004604}], "my_info": {"my_amount": "6.129638472722616", "my_coin": "NAV", "other_amount": "1.00439216", "other_coin": "KMD", "started_at": 1578589441}, "success_events": ["Started", "Negotiated", "TakerFeeSent", "MakerPaymentReceived", "MakerPaymentWaitConfirmStarted", "MakerPaymentValidatedAndConfirmed", "TakerPaymentSent", "TakerPaymentSpent", "MakerPaymentSpent", "Finished"], "type": "Taker", "uuid": "8fe94b00-8960-451e-88e2-14a86f4e06b8", "recoverable": false}