{"error_events": ["StartFailed", "NegotiateFailed", "TakerFeeSendFailed", "MakerPaymentValidateFailed", "MakerPaymentWaitConfirmFailed", "TakerPaymentTransactionFailed", "TakerPaymentWaitConfirmFailed", "TakerPaymentDataSendFailed", "TakerPaymentWaitForSpendFailed", "MakerPaymentSpendFailed", "TakerPaymentWaitRefundStarted", "TakerPaymentRefunded", "TakerPaymentRefundFailed"], "events": [{"event": {"data": {"lock_duration": 7800, "maker_amount": "23.50122688", "maker_coin": "RVN", "maker_coin_start_block": 1113922, "maker_payment_confirmations": 1, "maker_payment_lock": 0, "my_persistent_pub": "03683c77e807a47dcd559fa60a6510087e5c5aa0016c094cf5eb4d7e002db18e9f", "secret": "", "started_at": 1582399659, "taker": "", "taker_amount": "0.9999999999340736", "taker_coin": "KMD", "taker_coin_start_block": 1760987, "taker_payment_confirmations": 2, "uuid": "927a9a05-6380-4971-aaa6-effd567e151a", "taker_payment_locktime": 0, "taker_pubkey": "", "block_height": 0, "coin": "", "fee_details": null, "from": null, "internal_id": "", "my_balance_change": "", "received_by_me": "", "spent_by_me": "", "timestamp": 0, "to": null, "total_amount": "", "tx_hash": "", "tx_hex": "", "maker": "1bb83b58ec130e28e0a6d5d2acf2eb01b0d3f1670e021d47d31db8a858219da8", "maker_payment_wait": 1582402779, "taker_payment_lock": 1582407459, "maker_payment_locktime": 0, "maker_pubkey": "", "secret_hash": "", "transaction": null, "error": ""}, "type": "Started"}, "timestamp": 1582399659647}, {"event": {"data": {"lock_duration": 0, "maker_amount": "", "maker_coin": "", "maker_coin_start_block": 0, "maker_payment_confirmations": 0, "maker_payment_lock": 0, "my_persistent_pub": "", "secret": "", "started_at": 0, "taker": "", "taker_amount": "", "taker_coin": "", "taker_coin_start_block": 0, "taker_payment_confirmations": 0, "uuid": "", "taker_payment_locktime": 0, "taker_pubkey": "", "block_height": 0, "coin": "", "fee_details": null, "from": null, "internal_id": "", "my_balance_change": "", "received_by_me": "", "spent_by_me": "", "timestamp": 0, "to": null, "total_amount": "", "tx_hash": "", "tx_hex": "", "maker": "", "maker_payment_wait": 0, "taker_payment_lock": 0, "maker_payment_locktime": 1582415257, "maker_pubkey": "031bb83b58ec130e28e0a6d5d2acf2eb01b0d3f1670e021d47d31db8a858219da8", "secret_hash": "6dc41c5bb053f49275048f1f7a5038c7681a7076", "transaction": null, "error": ""}, "type": "Negotiated"}, "timestamp": 1582399720576}, {"event": {"data": {"lock_duration": 0, "maker_amount": "", "maker_coin": "", "maker_coin_start_block": 0, "maker_payment_confirmations": 0, "maker_payment_lock": 0, "my_persistent_pub": "", "secret": "", "started_at": 0, "taker": "", "taker_amount": "", "taker_coin": "", "taker_coin_start_block": 0, "taker_payment_confirmations": 0, "uuid": "", "taker_payment_locktime": 0, "taker_pubkey": "", "block_height": 0, "coin": "KMD", "fee_details": {"amount": "-0.00920825", "coin": "", "gas": 0, "gas_price": "", "total_fee": ""}, "from": ["RQq3CmCy7DzwSbT1RPZDfVPcC3RAjyR8DJ"], "internal_id": "323fbaab538f108884142964c7f67dfb281b90c107f598897fdf3fbd4acb4efe", "my_balance_change": "0.00804995", "received_by_me": "80.46456084", "spent_by_me": "80.45651089", "timestamp": 0, "to": ["RQq3CmCy7DzwSbT1RPZDfVPcC3RAjyR8DJ", "RThtXup6Zo7LZAi8kRWgjAyi1s4u6U9Cpf"], "total_amount": "80.45651089", "tx_hash": "323fbaab538f108884142964c7f67dfb281b90c107f598897fdf3fbd4acb4efe", "tx_hex": "0400008085202f89018ee135b4aff3ab5a203e70fa9050560ad659eca356b3b6319e3a6af0f6db75a1000000006b483045022100ddc3886d1a5407636ffbe256b5805b7e4480f90caf41e713b31dc1d67d70d9ac022035d0961a0b2a74c1c7271e47d287d46758962da4d53a4a6f2a359369ded9b7d0012103683c77e807a47dcd559fa60a6510087e5c5aa0016c094cf5eb4d7e002db18e9fffffffff0276c40100000000001976a914ca1e04745e8ca0c60d8c5881531d51bec470743f88ac142d9bdf010000001976a914aa8fc9fcbf345510d419ca273a6e9897b488ee1688acdf7d515e000000000000000000000000000000", "maker": "", "maker_payment_wait": 0, "taker_payment_lock": 0, "maker_payment_locktime": 0, "maker_pubkey": "", "secret_hash": "", "transaction": null, "error": ""}, "type": "TakerFeeSent"}, "timestamp": 1582399725200}, {"event": {"data": {"lock_duration": 0, "maker_amount": "", "maker_coin": "", "maker_coin_start_block": 0, "maker_payment_confirmations": 0, "maker_payment_lock": 0, "my_persistent_pub": "", "secret": "", "started_at": 0, "taker": "", "taker_amount": "", "taker_coin": "", "taker_coin_start_block": 0, "taker_payment_confirmations": 0, "uuid": "", "taker_payment_locktime": 0, "taker_pubkey": "", "block_height": 0, "coin": "RVN", "fee_details": {"amount": "0.01", "coin": "", "gas": 0, "gas_price": "", "total_fee": ""}, "from": ["RT9MpMyucqXiX8bZLimXBnrrn2ofmdGNKd"], "internal_id": "dae1ef301e2163dd4b24e37ac5a6a59cbf2ecf9292832edb3a6955bd0b1cb847", "my_balance_change": "0", "received_by_me": "0", "spent_by_me": "0", "timestamp": 0, "to": ["RT9MpMyucqXiX8bZLimXBnrrn2ofmdGNKd", "rLz2DuJv83RouMk29fGJcVz8te1MS7cV2d"], "total_amount": "196.6147772", "tx_hash": "dae1ef301e2163dd4b24e37ac5a6a59cbf2ecf9292832edb3a6955bd0b1cb847", "tx_hex": "01000000013ad77bda39a6b3429f579a0a69df17fd2a0a8c48c7d681984f745162c4977777010000006b48304502210080926f85d29597bc3ee4236eeb303d430ed22344fa82ff20dd7ef8fda92e71db022038b9237e5733ba2cfcee9559656e57ed1841a60e97830d1e424e4e59880e0af50121031bb83b58ec130e28e0a6d5d2acf2eb01b0d3f1670e021d47d31db8a858219da8ffffffff02c006148c0000000017a914a1c8990002ec51b2512fbe7fb2787cbfa937d09787580ec707040000001976a914c3f710deb7320b0efa6edb14e3ebeeb9155fa90d88ac0581515e", "maker": "", "maker_payment_wait": 0, "taker_payment_lock": 0, "maker_payment_locktime": 0, "maker_pubkey": "", "secret_hash": "", "transaction": null, "error": ""}, "type": "MakerPaymentReceived"}, "timestamp": 1582399767502}, {"event": {"data": null, "type": "MakerPaymentWaitConfirmStarted"}, "timestamp": 1582399767503}, {"event": {"data": null, "type": "MakerPaymentValidatedAndConfirmed"}, "timestamp": 1582399783121}, {"event": {"data": {"lock_duration": 0, "maker_amount": "", "maker_coin": "", "maker_coin_start_block": 0, "maker_payment_confirmations": 0, "maker_payment_lock": 0, "my_persistent_pub": "", "secret": "", "started_at": 0, "taker": "", "taker_amount": "", "taker_coin": "", "taker_coin_start_block": 0, "taker_payment_confirmations": 0, "uuid": "", "taker_payment_locktime": 0, "taker_pubkey": "", "block_height": 0, "coin": "KMD", "fee_details": {"amount": "0.00001", "coin": "", "gas": 0, "gas_price": "", "total_fee": ""}, "from": ["RQq3CmCy7DzwSbT1RPZDfVPcC3RAjyR8DJ"], "internal_id": "ed23217aba979a2e2cc31c434ecbdae49e8a98067fc89bc5bb4408f91d962621", "my_balance_change": "-1.00000999", "received_by_me": "79.46455085", "spent_by_me": "80.46456084", "timestamp": 0, "to": ["RQq3CmCy7DzwSbT1RPZDfVPcC3RAjyR8DJ", "bQMb3QZaUzQLerdDAc9H8FcybE89Di9gky"], "total_amount": "80.46456084", "tx_hash": "ed23217aba979a2e2cc31c434ecbdae49e8a98067fc89bc5bb4408f91d962621", "tx_hex": "0400008085202f8901fe4ecb4abd3fdf7f8998f507c1901b28fb7df6c76429148488108f53abba3f32010000006b483045022100c28c248c0f433851ff46190890a29c379185ca62b059f2cbd78fac43a66e8d7c022055e2edec23ed3d314d8dfa19dcb5670e80c76110744cc4a1fb9cde12d9799c6a012103683c77e807a47dcd559fa60a6510087e5c5aa0016c094cf5eb4d7e002db18e9fffffffff02ffe0f5050000000017a9147f87ac9d3d82ca7c040b6b65852c3d0c8f1c5a8c872d48a5d9010000001976a914aa8fc9fcbf345510d419ca273a6e9897b488ee1688ac2979515e000000000000000000000000000000", "maker": "", "maker_payment_wait": 0, "taker_payment_lock": 0, "maker_payment_locktime": 0, "maker_pubkey": "", "secret_hash": "", "transaction": null, "error": ""}, "type": "TakerPaymentSent"}, "timestamp": 1582399785541}, {"event": {"data": {"lock_duration": 0, "maker_amount": "", "maker_coin": "", "maker_coin_start_block": 0, "maker_payment_confirmations": 0, "maker_payment_lock": 0, "my_persistent_pub": "", "secret": "f8c8034d0128d10ed661ade277855544201c45867140250a8efa297ac0b334f4", "started_at": 0, "taker": "", "taker_amount": "", "taker_coin": "", "taker_coin_start_block": 0, "taker_payment_confirmations": 0, "uuid": "", "taker_payment_locktime": 0, "taker_pubkey": "", "block_height": 0, "coin": "", "fee_details": null, "from": null, "internal_id": "", "my_balance_change": "", "received_by_me": "", "spent_by_me": "", "timestamp": 0, "to": null, "total_amount": "", "tx_hash": "", "tx_hex": "", "maker": "", "maker_payment_wait": 0, "taker_payment_lock": 0, "maker_payment_locktime": 0, "maker_pubkey": "", "secret_hash": "", "transaction": {"block_height": 0, "coin": "KMD", "fee_details": {"amount": "0.00001", "coin": "", "gas": 0, "gas_price": "", "total_fee": ""}, "from": ["bQMb3QZaUzQLerdDAc9H8FcybE89Di9gky"], "internal_id": "282b3f6f2b3f197840716a2a8d7c5687dbdfc996963b4c420f1dba1a384c7653", "my_balance_change": "0", "received_by_me": "0", "spent_by_me": "0", "timestamp": 0, "to": ["RT9MpMyucqXiX8bZLimXBnrrn2ofmdGNKd"], "total_amount": "0.99999999", "tx_hash": "282b3f6f2b3f197840716a2a8d7c5687dbdfc996963b4c420f1dba1a384c7653", "tx_hex": "0400008085202f89012126961df90844bbc59bc87f06988a9ee4dacb4e431cc32c2e9a97ba7a2123ed00000000d747304402202a91d0d0221f8675194ca0083204ab8adaf47e49c855a857d0459519de2f44d3022023dc075e7f58edf88595f315c8fe823605db1462c2febed0642b930aac9857fc0120f8c8034d0128d10ed661ade277855544201c45867140250a8efa297ac0b334f4004c6b6304239f515eb1752103683c77e807a47dcd559fa60a6510087e5c5aa0016c094cf5eb4d7e002db18e9fac6782012088a9146dc41c5bb053f49275048f1f7a5038c7681a70768821031bb83b58ec130e28e0a6d5d2acf2eb01b0d3f1670e021d47d31db8a858219da8ac68ffffffff0117ddf505000000001976a914c3f710deb7320b0efa6edb14e3ebeeb9155fa90d88acb87d515e000000000000000000000000000000"}, "error": ""}, "type": "TakerPaymentSpent"}, "timestamp": 1582401047543}, {"event": {"data": {"lock_duration": 0, "maker_amount": "", "maker_coin": "", "maker_coin_start_block": 0, "maker_payment_confirmations": 0, "maker_payment_lock": 0, "my_persistent_pub": "", "secret": "", "started_at": 0, "taker": "", "taker_amount": "", "taker_coin": "", "taker_coin_start_block": 0, "taker_payment_confirmations": 0, "uuid": "", "taker_payment_locktime": 0, "taker_pubkey": "", "block_height": 0, "coin": "", "fee_details": null, "from": null, "internal_id": "", "my_balance_change": "", "received_by_me": "", "spent_by_me": "", "timestamp": 0, "to": null, "total_amount": "", "tx_hash": "", "tx_hex": "", "maker": "", "maker_payment_wait": 0, "taker_payment_lock": 0, "maker_payment_locktime": 0, "maker_pubkey": "", "secret_hash": "", "transaction": null, "error": "taker_swap:899] utxo:1009] rpc_clients:963] JsonRpcError { request: JsonRpcRequest { jsonrpc: \"2.0\", id: \"139\", method: \"blockchain.transaction.broadcast\", params: [String(\"010000000147b81c0bbd55693adb2e839292cf2ebf9ca5a6c57ae3244bdd63211e30efe1da00000000d747304402202dd6fe58cbf98b4c4e7f7343ef2bae541051567409e37afeaab464e0b25e905f02201629369babe961e048e6a268fab647e39f51437a766925adf55f62ba824b0a8d0120f8c8034d0128d10ed661ade277855544201c45867140250a8efa297ac0b334f4004c6b630499bd515eb17521031bb83b58ec130e28e0a6d5d2acf2eb01b0d3f1670e021d47d31db8a858219da8ac6782012088a9146dc41c5bb053f49275048f1f7a5038c7681a7076882103683c77e807a47dcd559fa60a6510087e5c5aa0016c094cf5eb4d7e002db18e9fac68ffffffff012080128c000000001976a914aa8fc9fcbf345510d419ca273a6e9897b488ee1688ac0778515e\")] }, error: Response(Object({\"code\": Number(1), \"message\": String(\"the transaction was rejected by network rules.\\n\\n66: min relay fee not met\\n[010000000147b81c0bbd55693adb2e839292cf2ebf9ca5a6c57ae3244bdd63211e30efe1da00000000d747304402202dd6fe58cbf98b4c4e7f7343ef2bae541051567409e37afeaab464e0b25e905f02201629369babe961e048e6a268fab647e39f51437a766925adf55f62ba824b0a8d0120f8c8034d0128d10ed661ade277855544201c45867140250a8efa297ac0b334f4004c6b630499bd515eb17521031bb83b58ec130e28e0a6d5d2acf2eb01b0d3f1670e021d47d31db8a858219da8ac6782012088a9146dc41c5bb053f49275048f1f7a5038c7681a7076882103683c77e807a47dcd559fa60a6510087e5c5aa0016c094cf5eb4d7e002db18e9fac68ffffffff012080128c000000001976a914aa8fc9fcbf345510d419ca273a6e9897b488ee1688ac0778515e]\")})) }"}, "type": "MakerPaymentSpendFailed"}, "timestamp": 1582401047748}, {"event": {"data": null, "type": "Finished"}, "timestamp": 1582401047751}], "my_info": {"my_amount": "0.9999999999340736", "my_coin": "KMD", "other_amount": "23.50122688", "other_coin": "RVN", "started_at": 1582399659}, "success_events": ["Started", "Negotiated", "TakerFeeSent", "MakerPaymentReceived", "MakerPaymentWaitConfirmStarted", "MakerPaymentValidatedAndConfirmed", "TakerPaymentSent", "TakerPaymentSpent", "MakerPaymentSpent", "Finished"], "type": "Taker", "uuid": "927a9a05-6380-4971-aaa6-effd567e151a", "recoverable": true}