{"error_events": ["StartFailed", "NegotiateFailed", "TakerFeeSendFailed", "MakerPaymentValidateFailed", "MakerPaymentWaitConfirmFailed", "TakerPaymentTransactionFailed", "TakerPaymentWaitConfirmFailed", "TakerPaymentDataSendFailed", "TakerPaymentWaitForSpendFailed", "MakerPaymentSpendFailed", "TakerPaymentWaitRefundStarted", "TakerPaymentRefunded", "TakerPaymentRefundFailed"], "events": [{"event": {"data": {"lock_duration": 7800, "maker_amount": "1036.97328238", "maker_coin": "DGB", "maker_coin_start_block": 10340951, "maker_payment_confirmations": 1, "maker_payment_lock": 0, "my_persistent_pub": "03683c77e807a47dcd559fa60a6510087e5c5aa0016c094cf5eb4d7e002db18e9f", "secret": "", "started_at": 1582133104, "taker": "", "taker_amount": "9.999999999967411", "taker_coin": "KMD", "taker_coin_start_block": 1756598, "taker_payment_confirmations": 2, "uuid": "9fb6d3b2-fb5c-4fcd-9647-2fcf054ae090", "taker_payment_locktime": 0, "taker_pubkey": "", "block_height": 0, "coin": "", "fee_details": null, "from": null, "internal_id": "", "my_balance_change": "", "received_by_me": "", "spent_by_me": "", "timestamp": 0, "to": null, "total_amount": "", "tx_hash": "", "tx_hex": "", "maker": "1bb83b58ec130e28e0a6d5d2acf2eb01b0d3f1670e021d47d31db8a858219da8", "maker_payment_wait": 1582136224, "taker_payment_lock": 1582140904, "maker_payment_locktime": 0, "maker_pubkey": "", "secret_hash": "", "transaction": null, "error": ""}, "type": "Started"}, "timestamp": 1582133104563}, {"event": {"data": {"lock_duration": 0, "maker_amount": "", "maker_coin": "", "maker_coin_start_block": 0, "maker_payment_confirmations": 0, "maker_payment_lock": 0, "my_persistent_pub": "", "secret": "", "started_at": 0, "taker": "", "taker_amount": "", "taker_coin": "", "taker_coin_start_block": 0, "taker_payment_confirmations": 0, "uuid": "", "taker_payment_locktime": 0, "taker_pubkey": "", "block_height": 0, "coin": "", "fee_details": null, "from": null, "internal_id": "", "my_balance_change": "", "received_by_me": "", "spent_by_me": "", "timestamp": 0, "to": null, "total_amount": "", "tx_hash": "", "tx_hex": "", "maker": "", "maker_payment_wait": 0, "taker_payment_lock": 0, "maker_payment_locktime": 1582148703, "maker_pubkey": "031bb83b58ec130e28e0a6d5d2acf2eb01b0d3f1670e021d47d31db8a858219da8", "secret_hash": "0a460d645d51fcdb53ba77ecbf0aae3a5773aad0", "transaction": null, "error": ""}, "type": "Negotiated"}, "timestamp": 1582133165386}, {"event": {"data": {"lock_duration": 0, "maker_amount": "", "maker_coin": "", "maker_coin_start_block": 0, "maker_payment_confirmations": 0, "maker_payment_lock": 0, "my_persistent_pub": "", "secret": "", "started_at": 0, "taker": "", "taker_amount": "", "taker_coin": "", "taker_coin_start_block": 0, "taker_payment_confirmations": 0, "uuid": "", "taker_payment_locktime": 0, "taker_pubkey": "", "block_height": 0, "coin": "KMD", "fee_details": {"amount": "-0.00056969", "coin": "", "gas": 0, "gas_price": "", "total_fee": ""}, "from": ["RQq3CmCy7DzwSbT1RPZDfVPcC3RAjyR8DJ"], "internal_id": "d9afc423e0084b17aea4835863938a56c6a20dec9e428c003ea2ab417fcfe3f5", "my_balance_change": "-0.01101332", "received_by_me": "17.98897668", "spent_by_me": "17.99999", "timestamp": 0, "to": ["RQq3CmCy7DzwSbT1RPZDfVPcC3RAjyR8DJ", "RThtXup6Zo7LZAi8kRWgjAyi1s4u6U9Cpf"], "total_amount": "17.99999", "tx_hash": "d9afc423e0084b17aea4835863938a56c6a20dec9e428c003ea2ab417fcfe3f5", "tx_hex": "0400008085202f89011df87a4c88234c186a64a54e4c4ad6b6784d8aa3f4181ca4df2547a4171e823a000000006b4830450221008fb451f171b641de04dee14d1110fc4fbaa6bc3d9ccc2c4011efaa1e9b8b780302203b21ced35190455419b95202d92fc7b62544cbf4c0ff210dfe4a223df9e39ba5012103683c77e807a47dcd559fa60a6510087e5c5aa0016c094cf5eb4d7e002db18e9fffffffff029dac1100000000001976a914ca1e04745e8ca0c60d8c5881531d51bec470743f88ac0400396b000000001976a914aa8fc9fcbf345510d419ca273a6e9897b488ee1688aca46c4d5e000000000000000000000000000000", "maker": "", "maker_payment_wait": 0, "taker_payment_lock": 0, "maker_payment_locktime": 0, "maker_pubkey": "", "secret_hash": "", "transaction": null, "error": ""}, "type": "TakerFeeSent"}, "timestamp": 1582133171213}, {"event": {"data": {"lock_duration": 0, "maker_amount": "", "maker_coin": "", "maker_coin_start_block": 0, "maker_payment_confirmations": 0, "maker_payment_lock": 0, "my_persistent_pub": "", "secret": "", "started_at": 0, "taker": "", "taker_amount": "", "taker_coin": "", "taker_coin_start_block": 0, "taker_payment_confirmations": 0, "uuid": "", "taker_payment_locktime": 0, "taker_pubkey": "", "block_height": 0, "coin": "DGB", "fee_details": {"amount": "0.001", "coin": "", "gas": 0, "gas_price": "", "total_fee": ""}, "from": ["DP1GH73GKRdRz8Qxc8mxe2hFtu5NRwTBXV"], "internal_id": "66b0b79218e20e101b586292b986b0ab6222d3cbdd089fcbb23bdb7adbb86e49", "my_balance_change": "0", "received_by_me": "0", "spent_by_me": "0", "timestamp": 1582133206, "to": ["DP1GH73GKRdRz8Qxc8mxe2hFtu5NRwTBXV", "SUXWsq11jQkZquCoPQtdTXtRiJkTec4W1s"], "total_amount": "5372.44764878", "tx_hash": "66b0b79218e20e101b586292b986b0ab6222d3cbdd089fcbb23bdb7adbb86e49", "tx_hex": "010000000224303c681947cb5c9f14c8982f79e9a64554484f27fb771f90c231c43264ea85000000006b483045022100ccbefd2ea6afc3ca1fca7a0a4ef17d9e767a69d74506ddbc73707e9fd37924e50220720f2ada4073708151583fded6015f62412b1c9813e591cb936edd916ba391e50121031bb83b58ec130e28e0a6d5d2acf2eb01b0d3f1670e021d47d31db8a858219da8ffffffff8845d13b72aa8376e57760a48a73698541d67a62c21298b62911fc659e53bc0a010000006b483045022100bc31ebccb954b20f019fae6999508017201438867e9a2e0ad26743b7249a3b0b02206708c7fce39216a3dbc55986cf1d9677fd143f6535aad602efa333f752b1a5b20121031bb83b58ec130e28e0a6d5d2acf2eb01b0d3f1670e021d47d31db8a858219da8ffffffff026ea8d7241800000017a9144f57337500234b90b0200dfe789ea36f48a26ead87c05b6ff1640000001976a914c3f710deb7320b0efa6edb14e3ebeeb9155fa90d88acca6f4d5e", "maker": "", "maker_payment_wait": 0, "taker_payment_lock": 0, "maker_payment_locktime": 0, "maker_pubkey": "", "secret_hash": "", "transaction": null, "error": ""}, "type": "MakerPaymentReceived"}, "timestamp": 1582133222387}, {"event": {"data": null, "type": "MakerPaymentWaitConfirmStarted"}, "timestamp": 1582133222392}, {"event": {"data": null, "type": "MakerPaymentValidatedAndConfirmed"}, "timestamp": 1582133222812}, {"event": {"data": {"lock_duration": 0, "maker_amount": "", "maker_coin": "", "maker_coin_start_block": 0, "maker_payment_confirmations": 0, "maker_payment_lock": 0, "my_persistent_pub": "", "secret": "", "started_at": 0, "taker": "", "taker_amount": "", "taker_coin": "", "taker_coin_start_block": 0, "taker_payment_confirmations": 0, "uuid": "", "taker_payment_locktime": 0, "taker_pubkey": "", "block_height": 0, "coin": "KMD", "fee_details": {"amount": "0.00001", "coin": "", "gas": 0, "gas_price": "", "total_fee": ""}, "from": ["RQq3CmCy7DzwSbT1RPZDfVPcC3RAjyR8DJ"], "internal_id": "cdadc15f08d7bc71379c11c2b855d0f5946d4de69c50b7d0f33d9399c83b220a", "my_balance_change": "-10.00000999", "received_by_me": "7.98896669", "spent_by_me": "17.98897668", "timestamp": 0, "to": ["RQq3CmCy7DzwSbT1RPZDfVPcC3RAjyR8DJ", "bD3CMSC5oDpSBPgtJuR2powEnsBoxiz9E6"], "total_amount": "17.98897668", "tx_hash": "cdadc15f08d7bc71379c11c2b855d0f5946d4de69c50b7d0f33d9399c83b220a", "tx_hex": "0400008085202f8901f5e3cf7f41aba23e008c429eec0da2c6568a93635883a4ae174b08e023c4afd9010000006b483045022100973c58d067b9a6b10680b004b962f30894ae2a609435909a44e25a8e55ab73bd0220303d18a6ecdd798c6fbf4a8511dad5cb542deb20e08281647c29d3061c37d046012103683c77e807a47dcd559fa60a6510087e5c5aa0016c094cf5eb4d7e002db18e9fffffffff02ffc99a3b0000000017a9140363dd061d681db2e4dd1dabcaca5681b14704cc871d329e2f000000001976a914aa8fc9fcbf345510d419ca273a6e9897b488ee1688ace9674d5e000000000000000000000000000000", "maker": "", "maker_payment_wait": 0, "taker_payment_lock": 0, "maker_payment_locktime": 0, "maker_pubkey": "", "secret_hash": "", "transaction": null, "error": ""}, "type": "TakerPaymentSent"}, "timestamp": 1582133226446}, {"event": {"data": {"lock_duration": 0, "maker_amount": "", "maker_coin": "", "maker_coin_start_block": 0, "maker_payment_confirmations": 0, "maker_payment_lock": 0, "my_persistent_pub": "", "secret": "fef8704eb0dd63e1f712654bf25b4316798d67a38ad56e58326d7d27621371e3", "started_at": 0, "taker": "", "taker_amount": "", "taker_coin": "", "taker_coin_start_block": 0, "taker_payment_confirmations": 0, "uuid": "", "taker_payment_locktime": 0, "taker_pubkey": "", "block_height": 0, "coin": "", "fee_details": null, "from": null, "internal_id": "", "my_balance_change": "", "received_by_me": "", "spent_by_me": "", "timestamp": 0, "to": null, "total_amount": "", "tx_hash": "", "tx_hex": "", "maker": "", "maker_payment_wait": 0, "taker_payment_lock": 0, "maker_payment_locktime": 0, "maker_pubkey": "", "secret_hash": "", "transaction": {"block_height": 1756602, "coin": "KMD", "fee_details": {"amount": "0.00001", "coin": "", "gas": 0, "gas_price": "", "total_fee": ""}, "from": ["bD3CMSC5oDpSBPgtJuR2powEnsBoxiz9E6"], "internal_id": "cf779f140f3c4d8cb2b95860d7dae096acb97a75dcb8d66dabc1bb87f09c5a8a", "my_balance_change": "0", "received_by_me": "0", "spent_by_me": "0", "timestamp": 1582133309, "to": ["RT9MpMyucqXiX8bZLimXBnrrn2ofmdGNKd"], "total_amount": "9.99999999", "tx_hash": "cf779f140f3c4d8cb2b95860d7dae096acb97a75dcb8d66dabc1bb87f09c5a8a", "tx_hex": "0400008085202f89010a223bc899933df3d0b7509ce64d6d94f5d055b8c2119c3771bcd7085fc1adcd00000000d747304402200494041010db8b35f978e59af582b67c698c8b8f3f8a56b7a24de1c1ca886438022021ba33338c55cb4089bc7a698e40a3ad47e91a9e4425ca26d50b3a440e42ee530120fef8704eb0dd63e1f712654bf25b4316798d67a38ad56e58326d7d27621371e3004c6b6304e88d4d5eb1752103683c77e807a47dcd559fa60a6510087e5c5aa0016c094cf5eb4d7e002db18e9fac6782012088a9140a460d645d51fcdb53ba77ecbf0aae3a5773aad08821031bb83b58ec130e28e0a6d5d2acf2eb01b0d3f1670e021d47d31db8a858219da8ac68ffffffff0117c69a3b000000001976a914c3f710deb7320b0efa6edb14e3ebeeb9155fa90d88ac66684d5e000000000000000000000000000000"}, "error": ""}, "type": "TakerPaymentSpent"}, "timestamp": 1582134048684}, {"event": {"data": {"lock_duration": 0, "maker_amount": "", "maker_coin": "", "maker_coin_start_block": 0, "maker_payment_confirmations": 0, "maker_payment_lock": 0, "my_persistent_pub": "", "secret": "", "started_at": 0, "taker": "", "taker_amount": "", "taker_coin": "", "taker_coin_start_block": 0, "taker_payment_confirmations": 0, "uuid": "", "taker_payment_locktime": 0, "taker_pubkey": "", "block_height": 0, "coin": "DGB", "fee_details": {"amount": "0.001", "coin": "", "gas": 0, "gas_price": "", "total_fee": ""}, "from": ["SUXWsq11jQkZquCoPQtdTXtRiJkTec4W1s"], "internal_id": "2c341f73d025b7ce58cea80da9865b0f371abe330a9dac53d6d72d2197a2f524", "my_balance_change": "1036.97228238", "received_by_me": "1036.97228238", "spent_by_me": "0", "timestamp": 0, "to": ["DLgwfWGKop6eubGQgoZf7jE1JugsT99Srr"], "total_amount": "1036.97328238", "tx_hash": "2c341f73d025b7ce58cea80da9865b0f371abe330a9dac53d6d72d2197a2f524", "tx_hex": "0100000001496eb8db7adb3bb2cb9f08ddcbd32262abb086b99262581b100ee21892b7b06600000000d74730440220486421e6a46d0f2ab62c15d37af439445c9a3bd3d0ed76d96f1483edc975e17502203d4ee9c08353e5853bf1ee04001e0313dc4f8ace143c98ff9a44ae00308748810120fef8704eb0dd63e1f712654bf25b4316798d67a38ad56e58326d7d27621371e3004c6b63045fac4d5eb17521031bb83b58ec130e28e0a6d5d2acf2eb01b0d3f1670e021d47d31db8a858219da8ac6782012088a9140a460d645d51fcdb53ba77ecbf0aae3a5773aad0882103683c77e807a47dcd559fa60a6510087e5c5aa0016c094cf5eb4d7e002db18e9fac68ffffffff01ce21d624180000001976a914aa8fc9fcbf345510d419ca273a6e9897b488ee1688ac10654d5e", "maker": "", "maker_payment_wait": 0, "taker_payment_lock": 0, "maker_payment_locktime": 0, "maker_pubkey": "", "secret_hash": "", "transaction": null, "error": ""}, "type": "MakerPaymentSpent"}, "timestamp": 1582134050494}, {"event": {"data": null, "type": "Finished"}, "timestamp": 1582134050495}], "my_info": {"my_amount": "9.999999999967411", "my_coin": "KMD", "other_amount": "1036.97328238", "other_coin": "DGB", "started_at": 1582133104}, "success_events": ["Started", "Negotiated", "TakerFeeSent", "MakerPaymentReceived", "MakerPaymentWaitConfirmStarted", "MakerPaymentValidatedAndConfirmed", "TakerPaymentSent", "TakerPaymentSpent", "MakerPaymentSpent", "Finished"], "type": "Taker", "uuid": "9fb6d3b2-fb5c-4fcd-9647-2fcf054ae090", "recoverable": false}