{"error_events": ["StartFailed", "NegotiateFailed", "TakerFeeSendFailed", "MakerPaymentValidateFailed", "MakerPaymentWaitConfirmFailed", "TakerPaymentTransactionFailed", "TakerPaymentWaitConfirmFailed", "TakerPaymentDataSendFailed", "TakerPaymentWaitForSpendFailed", "MakerPaymentSpendFailed", "TakerPaymentWaitRefundStarted", "TakerPaymentRefunded", "TakerPaymentRefundFailed"], "events": [{"event": {"data": {"lock_duration": 7800, "maker_amount": "1028.12222728", "maker_coin": "DGB", "maker_coin_start_block": 10335331, "maker_payment_confirmations": 1, "maker_payment_lock": 0, "my_persistent_pub": "03683c77e807a47dcd559fa60a6510087e5c5aa0016c094cf5eb4d7e002db18e9f", "secret": "", "started_at": 1582049484, "taker": "", "taker_amount": "9.99999999997210057187777272", "taker_coin": "KMD", "taker_coin_start_block": 1755229, "taker_payment_confirmations": 2, "uuid": "a6d7a630-1b31-47d6-9f3d-5602f942b364", "taker_payment_locktime": 0, "taker_pubkey": "", "block_height": 0, "coin": "", "fee_details": null, "from": null, "internal_id": "", "my_balance_change": "", "received_by_me": "", "spent_by_me": "", "timestamp": 0, "to": null, "total_amount": "", "tx_hash": "", "tx_hex": "", "maker": "1bb83b58ec130e28e0a6d5d2acf2eb01b0d3f1670e021d47d31db8a858219da8", "maker_payment_wait": 1582052604, "taker_payment_lock": 1582057284, "maker_payment_locktime": 0, "maker_pubkey": "", "secret_hash": "", "transaction": null, "error": ""}, "type": "Started"}, "timestamp": 1582049485262}, {"event": {"data": {"lock_duration": 0, "maker_amount": "", "maker_coin": "", "maker_coin_start_block": 0, "maker_payment_confirmations": 0, "maker_payment_lock": 0, "my_persistent_pub": "", "secret": "", "started_at": 0, "taker": "", "taker_amount": "", "taker_coin": "", "taker_coin_start_block": 0, "taker_payment_confirmations": 0, "uuid": "", "taker_payment_locktime": 0, "taker_pubkey": "", "block_height": 0, "coin": "", "fee_details": null, "from": null, "internal_id": "", "my_balance_change": "", "received_by_me": "", "spent_by_me": "", "timestamp": 0, "to": null, "total_amount": "", "tx_hash": "", "tx_hex": "", "maker": "", "maker_payment_wait": 0, "taker_payment_lock": 0, "maker_payment_locktime": 1582065084, "maker_pubkey": "031bb83b58ec130e28e0a6d5d2acf2eb01b0d3f1670e021d47d31db8a858219da8", "secret_hash": "bc4569c3f55fa8ef68b778c43150115bf20980a3", "transaction": null, "error": ""}, "type": "Negotiated"}, "timestamp": 1582049546207}, {"event": {"data": {"lock_duration": 0, "maker_amount": "", "maker_coin": "", "maker_coin_start_block": 0, "maker_payment_confirmations": 0, "maker_payment_lock": 0, "my_persistent_pub": "", "secret": "", "started_at": 0, "taker": "", "taker_amount": "", "taker_coin": "", "taker_coin_start_block": 0, "taker_payment_confirmations": 0, "uuid": "", "taker_payment_locktime": 0, "taker_pubkey": "", "block_height": 0, "coin": "KMD", "fee_details": {"amount": "-0.00067709", "coin": "", "gas": 0, "gas_price": "", "total_fee": ""}, "from": ["RQq3CmCy7DzwSbT1RPZDfVPcC3RAjyR8DJ"], "internal_id": "5db8a73cdf038c92a49ce007522affab2d53c08e59f2709ce65294e63cf925f9", "my_balance_change": "-0.01090592", "received_by_me": "65.05897879", "spent_by_me": "65.06988471", "timestamp": 0, "to": ["RQq3CmCy7DzwSbT1RPZDfVPcC3RAjyR8DJ", "RThtXup6Zo7LZAi8kRWgjAyi1s4u6U9Cpf"], "total_amount": "65.06988471", "tx_hash": "5db8a73cdf038c92a49ce007522affab2d53c08e59f2709ce65294e63cf925f9", "tx_hex": "0400008085202f890189c57eb8c67af045b44ee46e16118970894cce01d95c3b4a705a924a88997af2010000006b483045022100bb374aa530a3206e93459ff15202bc7ec1258edb9fa13cf888913b34d730bcdb02201adc1bcd5747410557500fe802c432287431e7948834d1555ba81bb0ce7573bf012103683c77e807a47dcd559fa60a6510087e5c5aa0016c094cf5eb4d7e002db18e9fffffffff029dac1100000000001976a914ca1e04745e8ca0c60d8c5881531d51bec470743f88ac971fc883010000001976a914aa8fc9fcbf345510d419ca273a6e9897b488ee1688ac01264c5e000000000000000000000000000000", "maker": "", "maker_payment_wait": 0, "taker_payment_lock": 0, "maker_payment_locktime": 0, "maker_pubkey": "", "secret_hash": "", "transaction": null, "error": ""}, "type": "TakerFeeSent"}, "timestamp": 1582049552048}, {"event": {"data": {"lock_duration": 0, "maker_amount": "", "maker_coin": "", "maker_coin_start_block": 0, "maker_payment_confirmations": 0, "maker_payment_lock": 0, "my_persistent_pub": "", "secret": "", "started_at": 0, "taker": "", "taker_amount": "", "taker_coin": "", "taker_coin_start_block": 0, "taker_payment_confirmations": 0, "uuid": "", "taker_payment_locktime": 0, "taker_pubkey": "", "block_height": 0, "coin": "DGB", "fee_details": {"amount": "0.001", "coin": "", "gas": 0, "gas_price": "", "total_fee": ""}, "from": ["DP1GH73GKRdRz8Qxc8mxe2hFtu5NRwTBXV"], "internal_id": "0abc539e65fc1129b69812c2627ad6418569738aa46077e57683aa723bd14588", "my_balance_change": "0", "received_by_me": "0", "spent_by_me": "0", "timestamp": 0, "to": ["DP1GH73GKRdRz8Qxc8mxe2hFtu5NRwTBXV", "SVWg8EKfv1hycVB1UjN4EQKoMgFovpccbZ"], "total_amount": "6360.01713219", "tx_hash": "0abc539e65fc1129b69812c2627ad6418569738aa46077e57683aa723bd14588", "tx_hex": "0100000003d09956ec80b18050499d859b93f745752f1e52012d91890ebe8ee008ccb1c199010000006a47304402206dd76171a118cf804913f659060f2d709c86b48facf17d2ead0b5949994a32c7022053e969fe30fd74e046741d3ac06bd3ba4513e097ca0fdde8cd9e6e156174486c0121031bb83b58ec130e28e0a6d5d2acf2eb01b0d3f1670e021d47d31db8a858219da8ffffffffe3afb009e3a8c441eea5936dedc10d12de5c76ac464bd277b29acff269cb0f2e000000006a47304402202d8db13d089a98fa9e7f86daca5a4754779afcc98c4a00b73bc277e692258a6602200effffa6effe7f0dfcff7a7b80b0b1b36f8bb94307123494608190dc1bbdd7930121031bb83b58ec130e28e0a6d5d2acf2eb01b0d3f1670e021d47d31db8a858219da8ffffffffd60177ecc8d111931b883f6e1ea8a71224ba5be6ec69ee7dae3cf46be7088a0b010000006a473044022063e52871c999cecb37171d9cd6c08a4891ed678e5bb14e38ed4d0f0922ef84f902202ebbb6bca9913062993ecc0e348ef78fe8723cd0ec503e4f63ab61878dbce76d0121031bb83b58ec130e28e0a6d5d2acf2eb01b0d3f1670e021d47d31db8a858219da8ffffffff02080516f01700000017a9145a26a184818eff9bf843fe6ad26be6d66064167d879b7090247c0000001976a914c3f710deb7320b0efa6edb14e3ebeeb9155fa90d88ac27294c5e", "maker": "", "maker_payment_wait": 0, "taker_payment_lock": 0, "maker_payment_locktime": 0, "maker_pubkey": "", "secret_hash": "", "transaction": null, "error": ""}, "type": "MakerPaymentReceived"}, "timestamp": 1582049595086}, {"event": {"data": null, "type": "MakerPaymentWaitConfirmStarted"}, "timestamp": 1582049595087}, {"event": {"data": null, "type": "MakerPaymentValidatedAndConfirmed"}, "timestamp": 1582049641107}, {"event": {"data": {"lock_duration": 0, "maker_amount": "", "maker_coin": "", "maker_coin_start_block": 0, "maker_payment_confirmations": 0, "maker_payment_lock": 0, "my_persistent_pub": "", "secret": "", "started_at": 0, "taker": "", "taker_amount": "", "taker_coin": "", "taker_coin_start_block": 0, "taker_payment_confirmations": 0, "uuid": "", "taker_payment_locktime": 0, "taker_pubkey": "", "block_height": 0, "coin": "KMD", "fee_details": {"amount": "0.00001", "coin": "", "gas": 0, "gas_price": "", "total_fee": ""}, "from": ["RQq3CmCy7DzwSbT1RPZDfVPcC3RAjyR8DJ"], "internal_id": "844bf41e390d6d6e776c51c8055284c781e043deeaf13aea94ed3b385d97bfc7", "my_balance_change": "-10.00000999", "received_by_me": "55.0589688", "spent_by_me": "65.05897879", "timestamp": 0, "to": ["RQq3CmCy7DzwSbT1RPZDfVPcC3RAjyR8DJ", "bL6hKkU7hybbY5fD8UwtU1KDRQo5QB8ELZ"], "total_amount": "65.05897879", "tx_hash": "844bf41e390d6d6e776c51c8055284c781e043deeaf13aea94ed3b385d97bfc7", "tx_hex": "0400008085202f8901f925f93ce69452e69c70f2598ec0532dabff2a5207e09ca4928c03df3ca7b85d010000006b483045022100ee8de591247c6ad9c8c673c5abb8fbf1e59b69018dca428423eab81fe9c5cb3b02205d35074b040913eb20c04ffd0de230a76e85aa3a75e5971b9ff9f35928bd2a15012103683c77e807a47dcd559fa60a6510087e5c5aa0016c094cf5eb4d7e002db18e9fffffffff02ffc99a3b0000000017a91450d62cec1b4152c7edd3dcef4f6b5a8e6c34280f87b0512d48010000001976a914aa8fc9fcbf345510d419ca273a6e9897b488ee1688ac6b214c5e000000000000000000000000000000", "maker": "", "maker_payment_wait": 0, "taker_payment_lock": 0, "maker_payment_locktime": 0, "maker_pubkey": "", "secret_hash": "", "transaction": null, "error": ""}, "type": "TakerPaymentSent"}, "timestamp": 1582049647133}, {"event": {"data": {"lock_duration": 0, "maker_amount": "", "maker_coin": "", "maker_coin_start_block": 0, "maker_payment_confirmations": 0, "maker_payment_lock": 0, "my_persistent_pub": "", "secret": "92bf2d30fd0b58f87c0ca26914bd85e71cfadd669c4c94fb506a372e4626f55a", "started_at": 0, "taker": "", "taker_amount": "", "taker_coin": "", "taker_coin_start_block": 0, "taker_payment_confirmations": 0, "uuid": "", "taker_payment_locktime": 0, "taker_pubkey": "", "block_height": 0, "coin": "", "fee_details": null, "from": null, "internal_id": "", "my_balance_change": "", "received_by_me": "", "spent_by_me": "", "timestamp": 0, "to": null, "total_amount": "", "tx_hash": "", "tx_hex": "", "maker": "", "maker_payment_wait": 0, "taker_payment_lock": 0, "maker_payment_locktime": 0, "maker_pubkey": "", "secret_hash": "", "transaction": {"block_height": 1755235, "coin": "KMD", "fee_details": {"amount": "0.00001", "coin": "", "gas": 0, "gas_price": "", "total_fee": ""}, "from": ["bL6hKkU7hybbY5fD8UwtU1KDRQo5QB8ELZ"], "internal_id": "7d988b211a5ee63ce0f36dcb621848082bfd6b4f3c02206b259a8e5c75f61ff1", "my_balance_change": "0", "received_by_me": "0", "spent_by_me": "0", "timestamp": 1582049831, "to": ["RT9MpMyucqXiX8bZLimXBnrrn2ofmdGNKd"], "total_amount": "9.99999999", "tx_hash": "7d988b211a5ee63ce0f36dcb621848082bfd6b4f3c02206b259a8e5c75f61ff1", "tx_hex": "0400008085202f8901c7bf975d383bed94ea3af1eade43e081c7845205c8516c776e6d0d391ef44b8400000000d8483045022100d39722679604f93ab4661fdfec998d5fdf71e63d2abc811d1822e37a332b3b0d0220416d649de58745ea5d4ea36778dd457b08a7d97c3abb337edfc5c9856ef26ea0012092bf2d30fd0b58f87c0ca26914bd85e71cfadd669c4c94fb506a372e4626f55a004c6b630444474c5eb1752103683c77e807a47dcd559fa60a6510087e5c5aa0016c094cf5eb4d7e002db18e9fac6782012088a914bc4569c3f55fa8ef68b778c43150115bf20980a38821031bb83b58ec130e28e0a6d5d2acf2eb01b0d3f1670e021d47d31db8a858219da8ac68ffffffff0117c69a3b000000001976a914c3f710deb7320b0efa6edb14e3ebeeb9155fa90d88acde214c5e000000000000000000000000000000"}, "error": ""}, "type": "TakerPaymentSpent"}, "timestamp": 1582050575807}, {"event": {"data": {"lock_duration": 0, "maker_amount": "", "maker_coin": "", "maker_coin_start_block": 0, "maker_payment_confirmations": 0, "maker_payment_lock": 0, "my_persistent_pub": "", "secret": "", "started_at": 0, "taker": "", "taker_amount": "", "taker_coin": "", "taker_coin_start_block": 0, "taker_payment_confirmations": 0, "uuid": "", "taker_payment_locktime": 0, "taker_pubkey": "", "block_height": 0, "coin": "DGB", "fee_details": {"amount": "0.001", "coin": "", "gas": 0, "gas_price": "", "total_fee": ""}, "from": ["SVWg8EKfv1hycVB1UjN4EQKoMgFovpccbZ"], "internal_id": "33f8e5afd57004bf19f1aa0129dc8ff2ead4dbc527e5d8a80fedb3c2c73e4cef", "my_balance_change": "1028.12122728", "received_by_me": "1028.12122728", "spent_by_me": "0", "timestamp": 0, "to": ["DLgwfWGKop6eubGQgoZf7jE1JugsT99Srr"], "total_amount": "1028.12222728", "tx_hash": "33f8e5afd57004bf19f1aa0129dc8ff2ead4dbc527e5d8a80fedb3c2c73e4cef", "tx_hex": "01000000018845d13b72aa8376e57760a48a73698541d67a62c21298b62911fc659e53bc0a00000000d8483045022100bc48e646221359ce1b8c2ce914dcfed018d237f66e35ee5c95a2416a1fd2103d022009fbaf9ba2db6e4ece96b1c6ab098dbc5d504e1cc1dd240c80b8c39db870f613012092bf2d30fd0b58f87c0ca26914bd85e71cfadd669c4c94fb506a372e4626f55a004c6b6304bc654c5eb17521031bb83b58ec130e28e0a6d5d2acf2eb01b0d3f1670e021d47d31db8a858219da8ac6782012088a914bc4569c3f55fa8ef68b778c43150115bf20980a3882103683c77e807a47dcd559fa60a6510087e5c5aa0016c094cf5eb4d7e002db18e9fac68ffffffff01687e14f0170000001976a914aa8fc9fcbf345510d419ca273a6e9897b488ee1688acff1e4c5e", "maker": "", "maker_payment_wait": 0, "taker_payment_lock": 0, "maker_payment_locktime": 0, "maker_pubkey": "", "secret_hash": "", "transaction": null, "error": ""}, "type": "MakerPaymentSpent"}, "timestamp": 1582050577625}, {"event": {"data": null, "type": "Finished"}, "timestamp": 1582050577626}], "my_info": {"my_amount": "9.99999999997210057187777272", "my_coin": "KMD", "other_amount": "1028.12222728", "other_coin": "DGB", "started_at": 1582049484}, "success_events": ["Started", "Negotiated", "TakerFeeSent", "MakerPaymentReceived", "MakerPaymentWaitConfirmStarted", "MakerPaymentValidatedAndConfirmed", "TakerPaymentSent", "TakerPaymentSpent", "MakerPaymentSpent", "Finished"], "type": "Taker", "uuid": "a6d7a630-1b31-47d6-9f3d-5602f942b364", "recoverable": false}