{"error_events": ["StartFailed", "NegotiateFailed", "TakerFeeSendFailed", "MakerPaymentValidateFailed", "TakerPaymentTransactionFailed", "TakerPaymentDataSendFailed", "TakerPaymentWaitForSpendFailed", "MakerPaymentSpendFailed", "TakerPaymentRefunded", "TakerPaymentRefundFailed"], "events": [{"event": {"data": {"lock_duration": 7800, "maker_amount": "98.18717028", "maker_coin": "DGB", "maker_coin_start_block": 10240579, "maker_payment_confirmations": 1, "maker_payment_lock": 0, "my_persistent_pub": "03683c77e807a47dcd559fa60a6510087e5c5aa0016c094cf5eb4d7e002db18e9f", "secret": "", "started_at": 1580636550, "taker": "", "taker_amount": "1.0000000000487964", "taker_coin": "KMD", "taker_coin_start_block": 1731948, "taker_payment_confirmations": 2, "uuid": "b7987e04-64d8-4baf-966d-ce25a25ba0b0", "taker_payment_locktime": 0, "taker_pubkey": "", "block_height": 0, "coin": "", "fee_details": null, "from": null, "internal_id": "", "my_balance_change": "", "received_by_me": "", "spent_by_me": "", "timestamp": 0, "to": null, "total_amount": "", "tx_hash": "", "tx_hex": "", "maker": "5d81c96aa4269c5946c0bd8dad7785ae0f4f595e7aea2ec4f8fe71f77ebf74a9", "maker_payment_wait": 1580639150, "taker_payment_lock": 1580644350, "maker_payment_locktime": 0, "maker_pubkey": "", "secret_hash": "", "transaction": null, "error": ""}, "type": "Started"}, "timestamp": 1580636550851}, {"event": {"data": {"lock_duration": 0, "maker_amount": "", "maker_coin": "", "maker_coin_start_block": 0, "maker_payment_confirmations": 0, "maker_payment_lock": 0, "my_persistent_pub": "", "secret": "", "started_at": 0, "taker": "", "taker_amount": "", "taker_coin": "", "taker_coin_start_block": 0, "taker_payment_confirmations": 0, "uuid": "", "taker_payment_locktime": 0, "taker_pubkey": "", "block_height": 0, "coin": "", "fee_details": null, "from": null, "internal_id": "", "my_balance_change": "", "received_by_me": "", "spent_by_me": "", "timestamp": 0, "to": null, "total_amount": "", "tx_hash": "", "tx_hex": "", "maker": "", "maker_payment_wait": 0, "taker_payment_lock": 0, "maker_payment_locktime": 1580652147, "maker_pubkey": "025d81c96aa4269c5946c0bd8dad7785ae0f4f595e7aea2ec4f8fe71f77ebf74a9", "secret_hash": "5d22d60a4a812c24801d8e6ccfb92683c47815ba", "transaction": null, "error": ""}, "type": "Negotiated"}, "timestamp": 1580636621745}, {"event": {"data": {"lock_duration": 0, "maker_amount": "", "maker_coin": "", "maker_coin_start_block": 0, "maker_payment_confirmations": 0, "maker_payment_lock": 0, "my_persistent_pub": "", "secret": "", "started_at": 0, "taker": "", "taker_amount": "", "taker_coin": "", "taker_coin_start_block": 0, "taker_payment_confirmations": 0, "uuid": "", "taker_payment_locktime": 0, "taker_pubkey": "", "block_height": 0, "coin": "KMD", "fee_details": {"amount": "0.00001", "coin": "", "gas": 0, "gas_price": "", "total_fee": ""}, "from": ["RQq3CmCy7DzwSbT1RPZDfVPcC3RAjyR8DJ"], "internal_id": "f77845ca528728dbc668a32fa7b3baee7215092de4f66b18bb24be29b3c13901", "my_balance_change": "-0.0011683", "received_by_me": "4.09935932", "spent_by_me": "4.10052762", "timestamp": 0, "to": ["RQq3CmCy7DzwSbT1RPZDfVPcC3RAjyR8DJ", "RThtXup6Zo7LZAi8kRWgjAyi1s4u6U9Cpf"], "total_amount": "4.10052762", "tx_hash": "f77845ca528728dbc668a32fa7b3baee7215092de4f66b18bb24be29b3c13901", "tx_hex": "0400008085202f89021f26fac0854f78bc66065d4717413a76604439777d2e3f80e871a9e3551fdf92010000006b483045022100caacf3cca5d56d4f6fa1dc081de1b3ea40d5aaf50253a3ed57c1a9585d16a2ad022033ca3d651f7a45b77137d2ec771dc783ff62b83518e955bd1649e14446b2dd43012103683c77e807a47dcd559fa60a6510087e5c5aa0016c094cf5eb4d7e002db18e9ffffffffff5e2d6b2786cd32692dd0dbe5d299a8a15cd3213738405fe89eee4b860f1f10f000000006b483045022100c80613c05dd1d59c6f6ed2b0f5efae12c089623bf39a932eb4eb3689cfcb8d42022013f9148979c545306bc00935f0d9dea7b5d8744dd7f61964877e7c03aca24ae1012103683c77e807a47dcd559fa60a6510087e5c5aa0016c094cf5eb4d7e002db18e9fffffffff0276c40100000000001976a914ca1e04745e8ca0c60d8c5881531d51bec470743f88ac3c206f18000000001976a914aa8fc9fcbf345510d419ca273a6e9897b488ee1688acd091365e000000000000000000000000000000", "maker": "", "maker_payment_wait": 0, "taker_payment_lock": 0, "maker_payment_locktime": 0, "maker_pubkey": "", "secret_hash": "", "transaction": null, "error": ""}, "type": "TakerFeeSent"}, "timestamp": 1580636625588}, {"event": {"data": {"lock_duration": 0, "maker_amount": "", "maker_coin": "", "maker_coin_start_block": 0, "maker_payment_confirmations": 0, "maker_payment_lock": 0, "my_persistent_pub": "", "secret": "", "started_at": 0, "taker": "", "taker_amount": "", "taker_coin": "", "taker_coin_start_block": 0, "taker_payment_confirmations": 0, "uuid": "", "taker_payment_locktime": 0, "taker_pubkey": "", "block_height": 0, "coin": "DGB", "fee_details": {"amount": "0.001", "coin": "", "gas": 0, "gas_price": "", "total_fee": ""}, "from": ["DGC1EoeKsW7R3oa1W31qvUPBqqvWT3GkCZ"], "internal_id": "f112d7e5172c06354cc75b82bda1cecc8b7cf884a4c1175d3ab32886bb1d8407", "my_balance_change": "0", "received_by_me": "0", "spent_by_me": "0", "timestamp": 0, "to": ["DGC1EoeKsW7R3oa1W31qvUPBqqvWT3GkCZ", "STThXwU8bwT6t4VW4RcPnZGp5kHjtnkK1d"], "total_amount": "180.07090063", "tx_hash": "f112d7e5172c06354cc75b82bda1cecc8b7cf884a4c1175d3ab32886bb1d8407", "tx_hex": "01000000019d403473d79129a04e2ad9235a3cd8f4f234478b9fbc75337ed258ccf8234204010000006b483045022100b4cad90b25e62d6e5585e532db6e4b86b2cda32a49b6ed3d90934bb283448f9c02207438fb1d84d3f1f7795efcec300c3f615057d7624c548ad90c3f72e54ee474970121025d81c96aa4269c5946c0bd8dad7785ae0f4f595e7aea2ec4f8fe71f77ebf74a9ffffffff0264bb3d490200000017a91443a64eb63906b46611b2adc40b52df72b589be35878b210fe8010000001976a914793634de8c88ec851b4b595f2f87a2071ae79c5b88ace299365e", "maker": "", "maker_payment_wait": 0, "taker_payment_lock": 0, "maker_payment_locktime": 0, "maker_pubkey": "", "secret_hash": "", "transaction": null, "error": ""}, "type": "MakerPaymentReceived"}, "timestamp": 1580636666736}, {"event": {"data": null, "type": "MakerPaymentWaitConfirmStarted"}, "timestamp": 1580636666738}, {"event": {"data": null, "type": "MakerPaymentValidatedAndConfirmed"}, "timestamp": 1580636712764}, {"event": {"data": {"lock_duration": 0, "maker_amount": "", "maker_coin": "", "maker_coin_start_block": 0, "maker_payment_confirmations": 0, "maker_payment_lock": 0, "my_persistent_pub": "", "secret": "", "started_at": 0, "taker": "", "taker_amount": "", "taker_coin": "", "taker_coin_start_block": 0, "taker_payment_confirmations": 0, "uuid": "", "taker_payment_locktime": 0, "taker_pubkey": "", "block_height": 1731952, "coin": "KMD", "fee_details": {"amount": "0.00001", "coin": "", "gas": 0, "gas_price": "", "total_fee": ""}, "from": ["RQq3CmCy7DzwSbT1RPZDfVPcC3RAjyR8DJ"], "internal_id": "d46e0cb87b7e98cf3db0bbbecfa81a0a6c2f66694549467fe0f76c59a9100a4e", "my_balance_change": "-1.00001", "received_by_me": "3.09934932", "spent_by_me": "4.09935932", "timestamp": 1580636803, "to": ["RQq3CmCy7DzwSbT1RPZDfVPcC3RAjyR8DJ", "bWVeZwvM74cdPKMiTXi5kifZ5TAqevmwpG"], "total_amount": "4.09935932", "tx_hash": "d46e0cb87b7e98cf3db0bbbecfa81a0a6c2f66694549467fe0f76c59a9100a4e", "tx_hex": "0400008085202f89010139c1b329be24bb186bf6e42d091572eebab3a72fa368c6db288752ca4578f7010000006b4830450221008cbfb59cc6c05f46b79afd2736858e83c9084dfe91aafd38326089cb0181b93e02202a329ab8117edf2f3db75745897d2242578ea70b891806c5c716d3e49c775c6c012103683c77e807a47dcd559fa60a6510087e5c5aa0016c094cf5eb4d7e002db18e9fffffffff0200e1f5050000000017a914c2deb353d3dfb51d7531c6c3a51781a323fa9aca87543b7912000000001976a914aa8fc9fcbf345510d419ca273a6e9897b488ee1688ac2b92365e000000000000000000000000000000", "maker": "", "maker_payment_wait": 0, "taker_payment_lock": 0, "maker_payment_locktime": 0, "maker_pubkey": "", "secret_hash": "", "transaction": null, "error": ""}, "type": "TakerPaymentSent"}, "timestamp": 1580636805190}, {"event": {"data": {"lock_duration": 0, "maker_amount": "", "maker_coin": "", "maker_coin_start_block": 0, "maker_payment_confirmations": 0, "maker_payment_lock": 0, "my_persistent_pub": "", "secret": "1f2c262124e12e06e17637d7995007075c815a04efb6a7aeba458d6d26729bb0", "started_at": 0, "taker": "", "taker_amount": "", "taker_coin": "", "taker_coin_start_block": 0, "taker_payment_confirmations": 0, "uuid": "", "taker_payment_locktime": 0, "taker_pubkey": "", "block_height": 0, "coin": "", "fee_details": null, "from": null, "internal_id": "", "my_balance_change": "", "received_by_me": "", "spent_by_me": "", "timestamp": 0, "to": null, "total_amount": "", "tx_hash": "", "tx_hex": "", "maker": "", "maker_payment_wait": 0, "taker_payment_lock": 0, "maker_payment_locktime": 0, "maker_pubkey": "", "secret_hash": "", "transaction": {"block_height": 0, "coin": "KMD", "fee_details": {"amount": "0.00001", "coin": "", "gas": 0, "gas_price": "", "total_fee": ""}, "from": ["bWVeZwvM74cdPKMiTXi5kifZ5TAqevmwpG"], "internal_id": "4d211e0bdc2b044015335aa679f5450c8d52e48eba88a7631f2948eaf5fb7fef", "my_balance_change": "0", "received_by_me": "0", "spent_by_me": "0", "timestamp": 0, "to": ["RLL6n4ayAv1haokcEd1QUEYniyeoiYkn7W"], "total_amount": "1", "tx_hash": "4d211e0bdc2b044015335aa679f5450c8d52e48eba88a7631f2948eaf5fb7fef", "tx_hex": "0400008085202f89014e0a10a9596cf7e07f46494569662f6c0a1aa8cfbebbb03dcf987e7bb80c6ed400000000d747304402206be2ff1521a494b8796457211dc3cfa74e31726407595085110df5ba4c344db202205ffbf20fd2276cc739a9ee781ab4d14f0ce93af12267cba0b0db3f9d86514b6b01201f2c262124e12e06e17637d7995007075c815a04efb6a7aeba458d6d26729bb0004c6b6304feb7365eb1752103683c77e807a47dcd559fa60a6510087e5c5aa0016c094cf5eb4d7e002db18e9fac6782012088a9145d22d60a4a812c24801d8e6ccfb92683c47815ba8821025d81c96aa4269c5946c0bd8dad7785ae0f4f595e7aea2ec4f8fe71f77ebf74a9ac68ffffffff0118ddf505000000001976a914793634de8c88ec851b4b595f2f87a2071ae79c5b88acdf92365e000000000000000000000000000000"}, "error": ""}, "type": "TakerPaymentSpent"}, "timestamp": 1580636908237}, {"event": {"data": {"lock_duration": 0, "maker_amount": "", "maker_coin": "", "maker_coin_start_block": 0, "maker_payment_confirmations": 0, "maker_payment_lock": 0, "my_persistent_pub": "", "secret": "", "started_at": 0, "taker": "", "taker_amount": "", "taker_coin": "", "taker_coin_start_block": 0, "taker_payment_confirmations": 0, "uuid": "", "taker_payment_locktime": 0, "taker_pubkey": "", "block_height": 0, "coin": "DGB", "fee_details": {"amount": "0.001", "coin": "", "gas": 0, "gas_price": "", "total_fee": ""}, "from": ["STThXwU8bwT6t4VW4RcPnZGp5kHjtnkK1d"], "internal_id": "0b817483533a64dce9a5e34c9d342b13fa43e2c1e6b26fe23d24630f2aafccd9", "my_balance_change": "98.18617028", "received_by_me": "98.18617028", "spent_by_me": "0", "timestamp": 0, "to": ["DLgwfWGKop6eubGQgoZf7jE1JugsT99Srr"], "total_amount": "98.18717028", "tx_hash": "0b817483533a64dce9a5e34c9d342b13fa43e2c1e6b26fe23d24630f2aafccd9", "tx_hex": "010000000107841dbb8628b33a5d17c1a484f87c8bcccea1bd825bc74c35062c17e5d712f100000000d747304402201bfebb91e3b2cc1e9a00a4cf00b959621185f25e85161beee61b13b43746ef5202200e04458f32ab93139042017e160cc55f83a7e9e3ce0fba44f3a46bc308fb613301201f2c262124e12e06e17637d7995007075c815a04efb6a7aeba458d6d26729bb0004c6b630473d6365eb17521025d81c96aa4269c5946c0bd8dad7785ae0f4f595e7aea2ec4f8fe71f77ebf74a9ac6782012088a9145d22d60a4a812c24801d8e6ccfb92683c47815ba882103683c77e807a47dcd559fa60a6510087e5c5aa0016c094cf5eb4d7e002db18e9fac68ffffffff01c4343c49020000001976a914aa8fc9fcbf345510d419ca273a6e9897b488ee1688acdc8c365e", "maker": "", "maker_payment_wait": 0, "taker_payment_lock": 0, "maker_payment_locktime": 0, "maker_pubkey": "", "secret_hash": "", "transaction": null, "error": ""}, "type": "MakerPaymentSpent"}, "timestamp": 1580636910057}, {"event": {"data": null, "type": "Finished"}, "timestamp": 1580636910060}], "my_info": {"my_amount": "1.0000000000487964", "my_coin": "KMD", "other_amount": "98.18717028", "other_coin": "DGB", "started_at": 1580636550}, "success_events": ["Started", "Negotiated", "TakerFeeSent", "MakerPaymentReceived", "MakerPaymentWaitConfirmStarted", "MakerPaymentValidatedAndConfirmed", "TakerPaymentSent", "TakerPaymentSpent", "MakerPaymentSpent", "Finished"], "type": "Taker", "uuid": "b7987e04-64d8-4baf-966d-ce25a25ba0b0", "recoverable": false}