{"error_events": ["StartFailed", "NegotiateFailed", "TakerFeeSendFailed", "MakerPaymentValidateFailed", "TakerPaymentTransactionFailed", "TakerPaymentDataSendFailed", "TakerPaymentWaitForSpendFailed", "MakerPaymentSpendFailed", "TakerPaymentRefunded", "TakerPaymentRefundFailed"], "events": [{"event": {"data": {"lock_duration": 7800, "maker_amount": "1.01414473", "maker_coin": "KMD", "maker_coin_start_block": 1697996, "maker_payment_confirmations": 2, "maker_payment_lock": 0, "my_persistent_pub": "03683c77e807a47dcd559fa60a6510087e5c5aa0016c094cf5eb4d7e002db18e9f", "secret": "", "started_at": 1578579105, "taker": "", "taker_amount": "6.1368375066460917", "taker_coin": "NAV", "taker_coin_start_block": 3806867, "taker_payment_confirmations": 1, "uuid": "b8275f5d-8fc1-4417-9bec-786c5a060241", "taker_payment_locktime": 0, "taker_pubkey": "", "block_height": 0, "coin": "", "fee_details": null, "from": null, "internal_id": "", "my_balance_change": "", "received_by_me": "", "spent_by_me": "", "timestamp": 0, "to": null, "total_amount": "", "tx_hash": "", "tx_hex": "", "maker": "1bb83b58ec130e28e0a6d5d2acf2eb01b0d3f1670e021d47d31db8a858219da8", "maker_payment_wait": 1578581705, "taker_payment_lock": 1578586905, "maker_payment_locktime": 0, "maker_pubkey": "", "secret_hash": "", "transaction": null, "error": ""}, "type": "Started"}, "timestamp": 1578579105852}, {"event": {"data": {"lock_duration": 0, "maker_amount": "", "maker_coin": "", "maker_coin_start_block": 0, "maker_payment_confirmations": 0, "maker_payment_lock": 0, "my_persistent_pub": "", "secret": "", "started_at": 0, "taker": "", "taker_amount": "", "taker_coin": "", "taker_coin_start_block": 0, "taker_payment_confirmations": 0, "uuid": "", "taker_payment_locktime": 0, "taker_pubkey": "", "block_height": 0, "coin": "", "fee_details": null, "from": null, "internal_id": "", "my_balance_change": "", "received_by_me": "", "spent_by_me": "", "timestamp": 0, "to": null, "total_amount": "", "tx_hash": "", "tx_hex": "", "maker": "", "maker_payment_wait": 0, "taker_payment_lock": 0, "maker_payment_locktime": 1578594703, "maker_pubkey": "031bb83b58ec130e28e0a6d5d2acf2eb01b0d3f1670e021d47d31db8a858219da8", "secret_hash": "c17f9a9bbaefb3eb2fbfe8469c795cc3265ff3b0", "transaction": null, "error": ""}, "type": "Negotiated"}, "timestamp": 1578579166555}, {"event": {"data": {"lock_duration": 0, "maker_amount": "", "maker_coin": "", "maker_coin_start_block": 0, "maker_payment_confirmations": 0, "maker_payment_lock": 0, "my_persistent_pub": "", "secret": "", "started_at": 0, "taker": "", "taker_amount": "", "taker_coin": "", "taker_coin_start_block": 0, "taker_payment_confirmations": 0, "uuid": "", "taker_payment_locktime": 0, "taker_pubkey": "", "block_height": 0, "coin": "NAV", "fee_details": {"amount": "0.0001", "coin": "", "gas": 0, "gas_price": "", "total_fee": ""}, "from": ["NbTpK17x8xkoiZUQFTDzGcV6nWcZpLft2h"], "internal_id": "0c8226e39b4af24f1447903d06300775f284e14025f6659481b2083124dcf54d", "my_balance_change": "-0.0072083", "received_by_me": "6.13773774", "spent_by_me": "6.14494604", "timestamp": 0, "to": ["NbTpK17x8xkoiZUQFTDzGcV6nWcZpLft2h", "NeLfe9j5bXsCq8jXaVBTLJ5CcLGJ8CgqdH"], "total_amount": "6.14494604", "tx_hash": "0c8226e39b4af24f1447903d06300775f284e14025f6659481b2083124dcf54d", "tx_hex": "03000000df34175e0238249ad7ce0219c21feae810efdbee6b4f9eb521de1a10fff4e68d49305e067c010000006a473044022077e26fb488025fdcb45de4acc7b0a93c68501606a9461b68bc78c98d0c43efd002205ec7eb18e48924acf1fdc8f7a965e1817b81b8e9a62f50baf6dcab7ca627a522012103683c77e807a47dcd559fa60a6510087e5c5aa0016c094cf5eb4d7e002db18e9fffffffffa9baf6ae53004f1416a2558ea4913e91818c62d1896af86b793e829a2a67f838000000006b483045022100b476877c0b1be1fdc918c1f2a58ba2c6c5664318fc6b00f448abac6fec64743a022072130cbdaf22d90a3bc79fc839798b35e6dc0b38af76e393f702e7e4e7b225c9012103683c77e807a47dcd559fa60a6510087e5c5aa0016c094cf5eb4d7e002db18e9fffffffff02aed80a00000000001976a914ca1e04745e8ca0c60d8c5881531d51bec470743f88acce719524000000001976a914aa8fc9fcbf345510d419ca273a6e9897b488ee1688acdf34175e00", "maker": "", "maker_payment_wait": 0, "taker_payment_lock": 0, "maker_payment_locktime": 0, "maker_pubkey": "", "secret_hash": "", "transaction": null, "error": ""}, "type": "TakerFeeSent"}, "timestamp": 1578579170390}, {"event": {"data": {"lock_duration": 0, "maker_amount": "", "maker_coin": "", "maker_coin_start_block": 0, "maker_payment_confirmations": 0, "maker_payment_lock": 0, "my_persistent_pub": "", "secret": "", "started_at": 0, "taker": "", "taker_amount": "", "taker_coin": "", "taker_coin_start_block": 0, "taker_payment_confirmations": 0, "uuid": "", "taker_payment_locktime": 0, "taker_pubkey": "", "block_height": 0, "coin": "KMD", "fee_details": {"amount": "-0.00010473", "coin": "", "gas": 0, "gas_price": "", "total_fee": ""}, "from": ["RT9MpMyucqXiX8bZLimXBnrrn2ofmdGNKd"], "internal_id": "794c582906024cba6e2aed857f10a218cde692cacab83d179739fea0fed1cc3b", "my_balance_change": "0", "received_by_me": "0", "spent_by_me": "0", "timestamp": 0, "to": ["RT9MpMyucqXiX8bZLimXBnrrn2ofmdGNKd", "bMbHQFgeXxEvryMQZVcQNuGrL59hKjRVpY"], "total_amount": "16.12358136", "tx_hash": "794c582906024cba6e2aed857f10a218cde692cacab83d179739fea0fed1cc3b", "tx_hex": "0400008085202f890368bf8ffd7b02de2eb7d80054d37e2acee52ad34e405dc36d3567a4d30784e786000000006a47304402200b53d1b4f265cf01962e44e307f1fed48c97408fecb0b0b8869bbe588cb48035022024fa70ae229af16f48fe67991138d5186c1a28b0567f93914afa067f7fe1d7b80121031bb83b58ec130e28e0a6d5d2acf2eb01b0d3f1670e021d47d31db8a858219da8ffffffffbce09b4984218c2ade5cdf2002def27be7ca308e97f7563654434de5831cb98c000000006a47304402201fbc43589f1a7e1c5f716b049458fc20cc98bb9f2c620382f46027778eabcc4d022076cdbb1a8c2695a6b0191a85a6aa434130b3f6b9d64718c0bb00dfe49fce9fcf0121031bb83b58ec130e28e0a6d5d2acf2eb01b0d3f1670e021d47d31db8a858219da8ffffffff5c6d9385889869dd2c8f5c233ea4b267492bb77aa83aa78e33cca048ee55dd4c000000006a47304402201ef2e39f69c5874ecd70194701972c264bd582c462fbeac7325c766b64dd21f902203ddf9e3d05f20e917df044f1931369d2229e206f14d25b7e9d4a09c12cac39560121031bb83b58ec130e28e0a6d5d2acf2eb01b0d3f1670e021d47d31db8a858219da8ffffffff0249760b060000000017a914613665106824e3e6b48edc98de919ca3c7f9c4a78798540f5a000000001976a914c3f710deb7320b0efa6edb14e3ebeeb9155fa90d88aceb31175e000000000000000000000000000000", "maker": "", "maker_payment_wait": 0, "taker_payment_lock": 0, "maker_payment_locktime": 0, "maker_pubkey": "", "secret_hash": "", "transaction": null, "error": ""}, "type": "MakerPaymentReceived"}, "timestamp": 1578579211783}, {"event": {"data": null, "type": "MakerPaymentWaitConfirmStarted"}, "timestamp": 1578579211785}, {"event": {"data": {"lock_duration": 0, "maker_amount": "", "maker_coin": "", "maker_coin_start_block": 0, "maker_payment_confirmations": 0, "maker_payment_lock": 0, "my_persistent_pub": "", "secret": "", "started_at": 0, "taker": "", "taker_amount": "", "taker_coin": "", "taker_coin_start_block": 0, "taker_payment_confirmations": 0, "uuid": "", "taker_payment_locktime": 0, "taker_pubkey": "", "block_height": 0, "coin": "", "fee_details": null, "from": null, "internal_id": "", "my_balance_change": "", "received_by_me": "", "spent_by_me": "", "timestamp": 0, "to": null, "total_amount": "", "tx_hash": "", "tx_hex": "", "maker": "", "maker_payment_wait": 0, "taker_payment_lock": 0, "maker_payment_locktime": 0, "maker_pubkey": "", "secret_hash": "", "transaction": null, "error": "taker_swap:718] !wait for maker payment confirmations: rpc_clients:107] Waited too long until 1578581705 for transaction Transaction { version: 4, n_time: None, overwintered: true, version_group_id: 2301567109, inputs: [TransactionInput { previous_output: OutPoint { hash: 68bf8ffd7b02de2eb7d80054d37e2acee52ad34e405dc36d3567a4d30784e786, index: 0 }, script_sig: 47304402200b53d1b4f265cf01962e44e307f1fed48c97408fecb0b0b8869bbe588cb48035022024fa70ae229af16f48fe67991138d5186c1a28b0567f93914afa067f7fe1d7b80121031bb83b58ec130e28e0a6d5d2acf2eb01b0d3f1670e021d47d31db8a858219da8, sequence: 4294967295, script_witness: [] }, TransactionInput { previous_output: OutPoint { hash: bce09b4984218c2ade5cdf2002def27be7ca308e97f7563654434de5831cb98c, index: 0 }, script_sig: 47304402201fbc43589f1a7e1c5f716b049458fc20cc98bb9f2c620382f46027778eabcc4d022076cdbb1a8c2695a6b0191a85a6aa434130b3f6b9d64718c0bb00dfe49fce9fcf0121031bb83b58ec130e28e0a6d5d2acf2eb01b0d3f1670e021d47d31db8a858219da8, sequence: 4294967295, script_witness: [] }, TransactionInput { previous_output: OutPoint { hash: 5c6d9385889869dd2c8f5c233ea4b267492bb77aa83aa78e33cca048ee55dd4c, index: 0 }, script_sig: 47304402201ef2e39f69c5874ecd70194701972c264bd582c462fbeac7325c766b64dd21f902203ddf9e3d05f20e917df044f1931369d2229e206f14d25b7e9d4a09c12cac39560121031bb83b58ec130e28e0a6d5d2acf2eb01b0d3f1670e021d47d31db8a858219da8, sequence: 4294967295, script_witness: [] }], outputs: [TransactionOutput { value: 101414473, script_pubkey: a914613665106824e3e6b48edc98de919ca3c7f9c4a787 }, TransactionOutput { value: 1510954136, script_pubkey: 76a914c3f710deb7320b0efa6edb14e3ebeeb9155fa90d88ac }], lock_time: 1578578411, expiry_height: 0, shielded_spends: [], shielded_outputs: [], join_splits: [], value_balance: 0, join_split_pubkey: 0000000000000000000000000000000000000000000000000000000000000000, join_split_sig: 00000000000000000000000000000000000000000000000000000000000000000000000000000000000000000000000000000000000000000000000000000000, binding_sig: 00000000000000000000000000000000000000000000000000000000000000000000000000000000000000000000000000000000000000000000000000000000, zcash: true, str_d_zeel: None } to be confirmed 2 times"}, "type": "MakerPaymentValidateFailed"}, "timestamp": 1578581728125}, {"event": {"data": null, "type": "Finished"}, "timestamp": 1578581728127}], "my_info": {"my_amount": "6.1368375066460917", "my_coin": "NAV", "other_amount": "1.01414473", "other_coin": "KMD", "started_at": 1578579105}, "success_events": ["Started", "Negotiated", "TakerFeeSent", "MakerPaymentReceived", "MakerPaymentWaitConfirmStarted", "MakerPaymentValidatedAndConfirmed", "TakerPaymentSent", "TakerPaymentSpent", "MakerPaymentSpent", "Finished"], "type": "Taker", "uuid": "b8275f5d-8fc1-4417-9bec-786c5a060241", "recoverable": false}