{"error_events": ["StartFailed", "NegotiateFailed", "TakerFeeSendFailed", "MakerPaymentValidateFailed", "TakerPaymentTransactionFailed", "TakerPaymentDataSendFailed", "TakerPaymentWaitForSpendFailed", "MakerPaymentSpendFailed", "TakerPaymentRefunded", "TakerPaymentRefundFailed"], "events": [{"event": {"data": {"lock_duration": 7800, "maker_amount": "304.87164296", "maker_coin": "DGB", "maker_coin_start_block": 10240675, "maker_payment_confirmations": 1, "maker_payment_lock": 0, "my_persistent_pub": "03683c77e807a47dcd559fa60a6510087e5c5aa0016c094cf5eb4d7e002db18e9f", "secret": "", "started_at": 1580637608, "taker": "", "taker_amount": "3.0953404499578728", "taker_coin": "KMD", "taker_coin_start_block": 1731963, "taker_payment_confirmations": 2, "uuid": "ca2a38ec-b9d6-474b-afa7-ba8de7d671d8", "taker_payment_locktime": 0, "taker_pubkey": "", "block_height": 0, "coin": "", "fee_details": null, "from": null, "internal_id": "", "my_balance_change": "", "received_by_me": "", "spent_by_me": "", "timestamp": 0, "to": null, "total_amount": "", "tx_hash": "", "tx_hex": "", "maker": "5d81c96aa4269c5946c0bd8dad7785ae0f4f595e7aea2ec4f8fe71f77ebf74a9", "maker_payment_wait": 1580640208, "taker_payment_lock": 1580645408, "maker_payment_locktime": 0, "maker_pubkey": "", "secret_hash": "", "transaction": null, "error": ""}, "type": "Started"}, "timestamp": 1580637608707}, {"event": {"data": {"lock_duration": 0, "maker_amount": "", "maker_coin": "", "maker_coin_start_block": 0, "maker_payment_confirmations": 0, "maker_payment_lock": 0, "my_persistent_pub": "", "secret": "", "started_at": 0, "taker": "", "taker_amount": "", "taker_coin": "", "taker_coin_start_block": 0, "taker_payment_confirmations": 0, "uuid": "", "taker_payment_locktime": 0, "taker_pubkey": "", "block_height": 0, "coin": "", "fee_details": null, "from": null, "internal_id": "", "my_balance_change": "", "received_by_me": "", "spent_by_me": "", "timestamp": 0, "to": null, "total_amount": "", "tx_hash": "", "tx_hex": "", "maker": "", "maker_payment_wait": 0, "taker_payment_lock": 0, "maker_payment_locktime": 1580653205, "maker_pubkey": "025d81c96aa4269c5946c0bd8dad7785ae0f4f595e7aea2ec4f8fe71f77ebf74a9", "secret_hash": "c2fd0b74270e88bc3c1093d750ad0ba54fd3fce7", "transaction": null, "error": ""}, "type": "Negotiated"}, "timestamp": 1580637669604}, {"event": {"data": {"lock_duration": 0, "maker_amount": "", "maker_coin": "", "maker_coin_start_block": 0, "maker_payment_confirmations": 0, "maker_payment_lock": 0, "my_persistent_pub": "", "secret": "", "started_at": 0, "taker": "", "taker_amount": "", "taker_coin": "", "taker_coin_start_block": 0, "taker_payment_confirmations": 0, "uuid": "", "taker_payment_locktime": 0, "taker_pubkey": "", "block_height": 0, "coin": "KMD", "fee_details": {"amount": "0.00001", "coin": "", "gas": 0, "gas_price": "", "total_fee": ""}, "from": ["RQq3CmCy7DzwSbT1RPZDfVPcC3RAjyR8DJ"], "internal_id": "8f428d601e0409ac8f27fe971361d86364ffef0bb0a87123a18d45d22cf4b1f5", "my_balance_change": "-0.00359533", "received_by_me": "3.09575399", "spent_by_me": "3.09934932", "timestamp": 0, "to": ["RQq3CmCy7DzwSbT1RPZDfVPcC3RAjyR8DJ", "RThtXup6Zo7LZAi8kRWgjAyi1s4u6U9Cpf"], "total_amount": "3.09934932", "tx_hash": "8f428d601e0409ac8f27fe971361d86364ffef0bb0a87123a18d45d22cf4b1f5", "tx_hex": "0400008085202f89014e0a10a9596cf7e07f46494569662f6c0a1aa8cfbebbb03dcf987e7bb80c6ed4010000006b48304502210081ad599c7a9adfb815a9b1a344d2f5aef7bc7ef8e6514b93f906e5d5222d540802201c329150c53e12ae2ae195112d3ac42512f4085aa171943b4273e106b9d28bc4012103683c77e807a47dcd559fa60a6510087e5c5aa0016c094cf5eb4d7e002db18e9fffffffff0285780500000000001976a914ca1e04745e8ca0c60d8c5881531d51bec470743f88ace7be7312000000001976a914aa8fc9fcbf345510d419ca273a6e9897b488ee1688ace895365e000000000000000000000000000000", "maker": "", "maker_payment_wait": 0, "taker_payment_lock": 0, "maker_payment_locktime": 0, "maker_pubkey": "", "secret_hash": "", "transaction": null, "error": ""}, "type": "TakerFeeSent"}, "timestamp": 1580637761820}, {"event": {"data": {"lock_duration": 0, "maker_amount": "", "maker_coin": "", "maker_coin_start_block": 0, "maker_payment_confirmations": 0, "maker_payment_lock": 0, "my_persistent_pub": "", "secret": "", "started_at": 0, "taker": "", "taker_amount": "", "taker_coin": "", "taker_coin_start_block": 0, "taker_payment_confirmations": 0, "uuid": "", "taker_payment_locktime": 0, "taker_pubkey": "", "block_height": 0, "coin": "DGB", "fee_details": {"amount": "0.001", "coin": "", "gas": 0, "gas_price": "", "total_fee": ""}, "from": ["DGC1EoeKsW7R3oa1W31qvUPBqqvWT3GkCZ"], "internal_id": "99b1f9b30d99340f066313d285937a78156c4d68a0f1d17f29d01965ebb40f22", "my_balance_change": "0", "received_by_me": "0", "spent_by_me": "0", "timestamp": 1580637789, "to": ["DGC1EoeKsW7R3oa1W31qvUPBqqvWT3GkCZ", "SdBRjUKMDFx1acqHX48ZiVvcUQ7PwwPoeD"], "total_amount": "837.47382909", "tx_hash": "99b1f9b30d99340f066313d285937a78156c4d68a0f1d17f29d01965ebb40f22", "tx_hex": "010000000207841dbb8628b33a5d17c1a484f87c8bcccea1bd825bc74c35062c17e5d712f1010000006a47304402204c83f01a82c06363a4b623d6e1716b51aa7e3bfde6ea2131dff38ce2e677074a022076571902eed2aeacd7907840cb61e74bc1868eaef238c91868a0b59f1660d7fc0121025d81c96aa4269c5946c0bd8dad7785ae0f4f595e7aea2ec4f8fe71f77ebf74a9ffffffffe7ed7680bf61ed17feabb16589116d89a3b13f5d22ad3b666132cf764e20841b000000006b483045022100cf353e906cf9199ea9334728b1c2182bae14617a0b60f8c7a0bdd5d9db218a4a02201f4af1e7e1bf0dc5b5ae437bd16de92b8f113d01e19c4f04fbc417f30f52359c0121025d81c96aa4269c5946c0bd8dad7785ae0f4f595e7aea2ec4f8fe71f77ebf74a9ffffffff0288352d190700000017a914ae43b8423ed321525ba96860d7fa004a0d36ec5e8755ea8c660c0000001976a914793634de8c88ec851b4b595f2f87a2071ae79c5b88ac529e365e", "maker": "", "maker_payment_wait": 0, "taker_payment_lock": 0, "maker_payment_locktime": 0, "maker_pubkey": "", "secret_hash": "", "transaction": null, "error": ""}, "type": "MakerPaymentReceived"}, "timestamp": 1580637802903}, {"event": {"data": null, "type": "MakerPaymentWaitConfirmStarted"}, "timestamp": 1580637802905}, {"event": {"data": null, "type": "MakerPaymentValidatedAndConfirmed"}, "timestamp": 1580637803311}, {"event": {"data": {"lock_duration": 0, "maker_amount": "", "maker_coin": "", "maker_coin_start_block": 0, "maker_payment_confirmations": 0, "maker_payment_lock": 0, "my_persistent_pub": "", "secret": "", "started_at": 0, "taker": "", "taker_amount": "", "taker_coin": "", "taker_coin_start_block": 0, "taker_payment_confirmations": 0, "uuid": "", "taker_payment_locktime": 0, "taker_pubkey": "", "block_height": 0, "coin": "KMD", "fee_details": {"amount": "0.00001", "coin": "", "gas": 0, "gas_price": "", "total_fee": ""}, "from": ["RQq3CmCy7DzwSbT1RPZDfVPcC3RAjyR8DJ"], "internal_id": "22dcc12cbf0882da35903f94e1a629b7881a32f3c0d99d77b6f0b78c2d3f01bc", "my_balance_change": "-3.09535044", "received_by_me": "0.00040355", "spent_by_me": "3.09575399", "timestamp": 0, "to": ["RQq3CmCy7DzwSbT1RPZDfVPcC3RAjyR8DJ", "bPVLXHYtGCid1wcBLNqarnEfSxYwt6E8MG"], "total_amount": "3.09575399", "tx_hash": "22dcc12cbf0882da35903f94e1a629b7881a32f3c0d99d77b6f0b78c2d3f01bc", "tx_hex": "0400008085202f8901f5b1f42cd2458da12371a8b00befff6463d8611397fe278fac09041e608d428f010000006a47304402206e67e751f4dc205dea03ad2642d38e2a8387f5310f5cdf863ff41a1d0a11187a02202d3112d5fd85720a20a5ef8095f810a975a0cd31294c9f51954fb09648e5cc92012103683c77e807a47dcd559fa60a6510087e5c5aa0016c094cf5eb4d7e002db18e9fffffffff025c1d73120000000017a9147606c18d47f713f1b1a9305ca0758437998a891987a39d0000000000001976a914aa8fc9fcbf345510d419ca273a6e9897b488ee1688ac6d96365e000000000000000000000000000000", "maker": "", "maker_payment_wait": 0, "taker_payment_lock": 0, "maker_payment_locktime": 0, "maker_pubkey": "", "secret_hash": "", "transaction": null, "error": ""}, "type": "TakerPaymentSent"}, "timestamp": 1580637806941}, {"event": {"data": {"lock_duration": 0, "maker_amount": "", "maker_coin": "", "maker_coin_start_block": 0, "maker_payment_confirmations": 0, "maker_payment_lock": 0, "my_persistent_pub": "", "secret": "9fe416d2658f693456de95dcf1a2911c07eef62a8cad4f0099f2fc6fbd0f39a3", "started_at": 0, "taker": "", "taker_amount": "", "taker_coin": "", "taker_coin_start_block": 0, "taker_payment_confirmations": 0, "uuid": "", "taker_payment_locktime": 0, "taker_pubkey": "", "block_height": 0, "coin": "", "fee_details": null, "from": null, "internal_id": "", "my_balance_change": "", "received_by_me": "", "spent_by_me": "", "timestamp": 0, "to": null, "total_amount": "", "tx_hash": "", "tx_hex": "", "maker": "", "maker_payment_wait": 0, "taker_payment_lock": 0, "maker_payment_locktime": 0, "maker_pubkey": "", "secret_hash": "", "transaction": {"block_height": 0, "coin": "KMD", "fee_details": {"amount": "0.00001", "coin": "", "gas": 0, "gas_price": "", "total_fee": ""}, "from": ["bPVLXHYtGCid1wcBLNqarnEfSxYwt6E8MG"], "internal_id": "902cfe4daea7228c33513da71d0c7e1cfd8a49311d1e6d2fc39b500d9d6a8901", "my_balance_change": "0", "received_by_me": "0", "spent_by_me": "0", "timestamp": 0, "to": ["RLL6n4ayAv1haokcEd1QUEYniyeoiYkn7W"], "total_amount": "3.09534044", "tx_hash": "902cfe4daea7228c33513da71d0c7e1cfd8a49311d1e6d2fc39b500d9d6a8901", "tx_hex": "0400008085202f8901bc013f2d8cb7f0b6779dd9c0f3321a88b729a6e1943f9035da8208bf2cc1dc2200000000d74730440220443dd372c257f72bad3b50141b527cc1c6dba451f8564d3bc8e18e3a9a7d23ce022025532daa4ec48e4f30029a48abb01f2f33dcc2a4e462586f35edc57d207a221601209fe416d2658f693456de95dcf1a2911c07eef62a8cad4f0099f2fc6fbd0f39a3004c6b630420bc365eb1752103683c77e807a47dcd559fa60a6510087e5c5aa0016c094cf5eb4d7e002db18e9fac6782012088a914c2fd0b74270e88bc3c1093d750ad0ba54fd3fce78821025d81c96aa4269c5946c0bd8dad7785ae0f4f595e7aea2ec4f8fe71f77ebf74a9ac68ffffffff0174197312000000001976a914793634de8c88ec851b4b595f2f87a2071ae79c5b88ac8997365e000000000000000000000000000000"}, "error": ""}, "type": "TakerPaymentSpent"}, "timestamp": 1580638093626}, {"event": {"data": {"lock_duration": 0, "maker_amount": "", "maker_coin": "", "maker_coin_start_block": 0, "maker_payment_confirmations": 0, "maker_payment_lock": 0, "my_persistent_pub": "", "secret": "", "started_at": 0, "taker": "", "taker_amount": "", "taker_coin": "", "taker_coin_start_block": 0, "taker_payment_confirmations": 0, "uuid": "", "taker_payment_locktime": 0, "taker_pubkey": "", "block_height": 0, "coin": "DGB", "fee_details": {"amount": "0.001", "coin": "", "gas": 0, "gas_price": "", "total_fee": ""}, "from": ["SdBRjUKMDFx1acqHX48ZiVvcUQ7PwwPoeD"], "internal_id": "7cb648ad3c4327f3cd612dcb14d3c49e16e17d179a9c47e6d6ba74ff2c5c561e", "my_balance_change": "304.87064296", "received_by_me": "304.87064296", "spent_by_me": "0", "timestamp": 0, "to": ["DLgwfWGKop6eubGQgoZf7jE1JugsT99Srr"], "total_amount": "304.87164296", "tx_hash": "7cb648ad3c4327f3cd612dcb14d3c49e16e17d179a9c47e6d6ba74ff2c5c561e", "tx_hex": "0100000001220fb4eb6519d0297fd1f1a0684d6c15787a9385d21363060f34990db3f9b19900000000d747304402206fd3d12db83b106c7a9e694a9fea83c3c67befa40f1c1b5ecef5aa94044bb6740220111e971d4dc9d5cd552c03b6be84670ae5243cc7cada2fb20471f4debc775d9b01209fe416d2658f693456de95dcf1a2911c07eef62a8cad4f0099f2fc6fbd0f39a3004c6b630495da365eb17521025d81c96aa4269c5946c0bd8dad7785ae0f4f595e7aea2ec4f8fe71f77ebf74a9ac6782012088a914c2fd0b74270e88bc3c1093d750ad0ba54fd3fce7882103683c77e807a47dcd559fa60a6510087e5c5aa0016c094cf5eb4d7e002db18e9fac68ffffffff01e8ae2b19070000001976a914aa8fc9fcbf345510d419ca273a6e9897b488ee1688ac7d91365e", "maker": "", "maker_payment_wait": 0, "taker_payment_lock": 0, "maker_payment_locktime": 0, "maker_pubkey": "", "secret_hash": "", "transaction": null, "error": ""}, "type": "MakerPaymentSpent"}, "timestamp": 1580638095436}, {"event": {"data": null, "type": "Finished"}, "timestamp": 1580638095438}], "my_info": {"my_amount": "3.0953404499578728", "my_coin": "KMD", "other_amount": "304.87164296", "other_coin": "DGB", "started_at": 1580637608}, "success_events": ["Started", "Negotiated", "TakerFeeSent", "MakerPaymentReceived", "MakerPaymentWaitConfirmStarted", "MakerPaymentValidatedAndConfirmed", "TakerPaymentSent", "TakerPaymentSpent", "MakerPaymentSpent", "Finished"], "type": "Taker", "uuid": "ca2a38ec-b9d6-474b-afa7-ba8de7d671d8", "recoverable": false}