{"error_events": ["StartFailed", "NegotiateFailed", "TakerFeeSendFailed", "MakerPaymentValidateFailed", "TakerPaymentTransactionFailed", "TakerPaymentDataSendFailed", "TakerPaymentWaitForSpendFailed", "MakerPaymentSpendFailed", "TakerPaymentRefunded", "TakerPaymentRefundFailed"], "events": [{"event": {"data": {"lock_duration": 7800, "maker_amount": "5.13612254", "maker_coin": "KMD", "maker_coin_start_block": 1696090, "maker_payment_confirmations": 2, "maker_payment_lock": 0, "my_persistent_pub": "03683c77e807a47dcd559fa60a6510087e5c5aa0016c094cf5eb4d7e002db18e9f", "secret": "", "started_at": 1578464961, "taker": "", "taker_amount": "0.0596574500551858", "taker_coin": "LTC", "taker_coin_start_block": 1767493, "taker_payment_confirmations": 1, "uuid": "d3d4e2a5-140e-433c-ba56-7426ac70ba8e", "taker_payment_locktime": 0, "taker_pubkey": "", "block_height": 0, "coin": "", "fee_details": null, "from": null, "internal_id": "", "my_balance_change": "", "received_by_me": "", "spent_by_me": "", "timestamp": 0, "to": null, "total_amount": "", "tx_hash": "", "tx_hex": "", "maker": "dbd8c73e2e80e4f3cf88d2f04a9d2d0df4269496608b14a3e17556fdcb01e0c1", "maker_payment_wait": 1578467561, "taker_payment_lock": 1578472761, "maker_payment_locktime": 0, "maker_pubkey": "", "secret_hash": "", "transaction": null, "error": ""}, "type": "Started"}, "timestamp": 1578464961766}, {"event": {"data": {"lock_duration": 0, "maker_amount": "", "maker_coin": "", "maker_coin_start_block": 0, "maker_payment_confirmations": 0, "maker_payment_lock": 0, "my_persistent_pub": "", "secret": "", "started_at": 0, "taker": "", "taker_amount": "", "taker_coin": "", "taker_coin_start_block": 0, "taker_payment_confirmations": 0, "uuid": "", "taker_payment_locktime": 0, "taker_pubkey": "", "block_height": 0, "coin": "", "fee_details": null, "from": null, "internal_id": "", "my_balance_change": "", "received_by_me": "", "spent_by_me": "", "timestamp": 0, "to": null, "total_amount": "", "tx_hash": "", "tx_hex": "", "maker": "", "maker_payment_wait": 0, "taker_payment_lock": 0, "maker_payment_locktime": 1578480560, "maker_pubkey": "02dbd8c73e2e80e4f3cf88d2f04a9d2d0df4269496608b14a3e17556fdcb01e0c1", "secret_hash": "0f1c1bbef0066e4d86100b4d2f0c20a1f11b8c15", "transaction": null, "error": ""}, "type": "Negotiated"}, "timestamp": 1578465022538}, {"event": {"data": {"lock_duration": 0, "maker_amount": "", "maker_coin": "", "maker_coin_start_block": 0, "maker_payment_confirmations": 0, "maker_payment_lock": 0, "my_persistent_pub": "", "secret": "", "started_at": 0, "taker": "", "taker_amount": "", "taker_coin": "", "taker_coin_start_block": 0, "taker_payment_confirmations": 0, "uuid": "", "taker_payment_locktime": 0, "taker_pubkey": "", "block_height": 0, "coin": "LTC", "fee_details": {"amount": "0.0001", "coin": "", "gas": 0, "gas_price": "", "total_fee": ""}, "from": ["LamoPTdWb4SRdPmy8MZPqz8AdzKrAK6rpj"], "internal_id": "d0b0282fbc9607fbb6ff1fe4a70c711ca016ecd540d0a36de897cb557927488c", "my_balance_change": "-0.0002", "received_by_me": "0.05983471", "spent_by_me": "0.06003471", "timestamp": 0, "to": ["LamoPTdWb4SRdPmy8MZPqz8AdzKrAK6rpj", "LdeeicEe3dYpjy36TPWrufiGToyaaEP2Zs"], "total_amount": "0.06003471", "tx_hash": "d0b0282fbc9607fbb6ff1fe4a70c711ca016ecd540d0a36de897cb557927488c", "tx_hex": "01000000012710412be8bc7cf552ce31121c8116538d1eb6e5f958bb53bbc1718d60b9a77c000000006a47304402207c86cc2de42d110fa391811d17da65200e7c0ed2cf13265cd4d3af0c72f0495102203b1e2d5bd9216a983e7ece84c11b044b098b5a3c7da185eb378c4ae1f839321c012103683c77e807a47dcd559fa60a6510087e5c5aa0016c094cf5eb4d7e002db18e9fffffffff0210270000000000001976a914ca1e04745e8ca0c60d8c5881531d51bec470743f88acef4c5b00000000001976a914aa8fc9fcbf345510d419ca273a6e9897b488ee1688acfe76155e", "maker": "", "maker_payment_wait": 0, "taker_payment_lock": 0, "maker_payment_locktime": 0, "maker_pubkey": "", "secret_hash": "", "transaction": null, "error": ""}, "type": "TakerFeeSent"}, "timestamp": 1578465027165}, {"event": {"data": {"lock_duration": 0, "maker_amount": "", "maker_coin": "", "maker_coin_start_block": 0, "maker_payment_confirmations": 0, "maker_payment_lock": 0, "my_persistent_pub": "", "secret": "", "started_at": 0, "taker": "", "taker_amount": "", "taker_coin": "", "taker_coin_start_block": 0, "taker_payment_confirmations": 0, "uuid": "", "taker_payment_locktime": 0, "taker_pubkey": "", "block_height": 1696095, "coin": "KMD", "fee_details": {"amount": "-0.0085496", "coin": "", "gas": 0, "gas_price": "", "total_fee": ""}, "from": ["RAwv8JhfvmFx2V3QpY7ehiYpBJ1eqxxdxR"], "internal_id": "6317f5a3c10083c8d67b6983a3097183aacd49b82e2b8d48bb05c3ba2fb1e25a", "my_balance_change": "0", "received_by_me": "0", "spent_by_me": "0", "timestamp": 1578465089, "to": ["RAwv8JhfvmFx2V3QpY7ehiYpBJ1eqxxdxR", "bFXf7G35x9CwJEYH6pTSHGKpzuMQXkkyry"], "total_amount": "5998.64301789", "tx_hash": "6317f5a3c10083c8d67b6983a3097183aacd49b82e2b8d48bb05c3ba2fb1e25a", "tx_hex": "0400008085202f8901ef7270535e22ec3c3083f4ed3c527e4cbbcd2a67e4dcb49e0b04e250184f574e010000006a47304402200ec9214f7f505c9d61fa3d86519f258f9ec25f58293dc6d954939249888cbdab0220529b1a45f15dad022ceb483cbfba4af21743151264a1f16cd337f554fabb3387012102dbd8c73e2e80e4f3cf88d2f04a9d2d0df4269496608b14a3e17556fdcb01e0c1ffffffff02de199d1e0000000017a9141eb618a8af92eedaec2e6cb063429540e571cd4d87afca228c8b0000001976a914124b0846223ef78130b8e544b9afc3b09988238688ac1374155e000000000000000000000000000000", "maker": "", "maker_payment_wait": 0, "taker_payment_lock": 0, "maker_payment_locktime": 0, "maker_pubkey": "", "secret_hash": "", "transaction": null, "error": ""}, "type": "MakerPaymentReceived"}, "timestamp": 1578465211071}, {"event": {"data": null, "type": "MakerPaymentWaitConfirmStarted"}, "timestamp": 1578465211072}, {"event": {"data": null, "type": "MakerPaymentValidatedAndConfirmed"}, "timestamp": 1578466151700}, {"event": {"data": {"lock_duration": 0, "maker_amount": "", "maker_coin": "", "maker_coin_start_block": 0, "maker_payment_confirmations": 0, "maker_payment_lock": 0, "my_persistent_pub": "", "secret": "", "started_at": 0, "taker": "", "taker_amount": "", "taker_coin": "", "taker_coin_start_block": 0, "taker_payment_confirmations": 0, "uuid": "", "taker_payment_locktime": 0, "taker_pubkey": "", "block_height": 0, "coin": "LTC", "fee_details": {"amount": "0.0001", "coin": "", "gas": 0, "gas_price": "", "total_fee": ""}, "from": ["LamoPTdWb4SRdPmy8MZPqz8AdzKrAK6rpj"], "internal_id": "900c7b5e866d5a7ed24835e97d06c9b596e9ee829787923efd57600cd8f8d9d5", "my_balance_change": "-0.05975745", "received_by_me": "0.00007726", "spent_by_me": "0.05983471", "timestamp": 0, "to": ["3Jd5fCSZHptZ5hmj1ZkqJq4gx8QE4y9ZKP", "LamoPTdWb4SRdPmy8MZPqz8AdzKrAK6rpj"], "total_amount": "0.05983471", "tx_hash": "900c7b5e866d5a7ed24835e97d06c9b596e9ee829787923efd57600cd8f8d9d5", "tx_hex": "01000000018c48277955cb97e86da3d040d5ec16a01c710ca7e41fffb6fb0796bc2f28b0d0010000006b483045022100c22b01fc8550fa3d5decda06f9b799168ad9673a7f42e3e27632cba3a284a1810220093a8135b26585743615f59bb27d8570239130184534eba2be87876fa4f8e060012103683c77e807a47dcd559fa60a6510087e5c5aa0016c094cf5eb4d7e002db18e9fffffffff02b1075b000000000017a914b9bb97b7c78f68b58000eae56608c7aa11cadeeb872e1e0000000000001976a914aa8fc9fcbf345510d419ca273a6e9897b488ee1688ac687b155e", "maker": "", "maker_payment_wait": 0, "taker_payment_lock": 0, "maker_payment_locktime": 0, "maker_pubkey": "", "secret_hash": "", "transaction": null, "error": ""}, "type": "TakerPaymentSent"}, "timestamp": 1578466157526}, {"event": {"data": {"lock_duration": 0, "maker_amount": "", "maker_coin": "", "maker_coin_start_block": 0, "maker_payment_confirmations": 0, "maker_payment_lock": 0, "my_persistent_pub": "", "secret": "bc2f8cbaec908974153c6d2cf59cc3e72d5ff66a795552154659e08c5a2fb8be", "started_at": 0, "taker": "", "taker_amount": "", "taker_coin": "", "taker_coin_start_block": 0, "taker_payment_confirmations": 0, "uuid": "", "taker_payment_locktime": 0, "taker_pubkey": "", "block_height": 0, "coin": "", "fee_details": null, "from": null, "internal_id": "", "my_balance_change": "", "received_by_me": "", "spent_by_me": "", "timestamp": 0, "to": null, "total_amount": "", "tx_hash": "", "tx_hex": "", "maker": "", "maker_payment_wait": 0, "taker_payment_lock": 0, "maker_payment_locktime": 0, "maker_pubkey": "", "secret_hash": "", "transaction": {"block_height": 0, "coin": "LTC", "fee_details": {"amount": "0.0001", "coin": "", "gas": 0, "gas_price": "", "total_fee": ""}, "from": ["3Jd5fCSZHptZ5hmj1ZkqJq4gx8QE4y9ZKP"], "internal_id": "38613a4b8f40d21c186ac0936154c823c678d4dc4e60decd0de7ff8d8b96573e", "my_balance_change": "0", "received_by_me": "0", "spent_by_me": "0", "timestamp": 0, "to": ["LLtgK18DQbhSDHNNXW7ptDHNdEvLPMVD5X"], "total_amount": "0.05965745", "tx_hash": "38613a4b8f40d21c186ac0936154c823c678d4dc4e60decd0de7ff8d8b96573e", "tx_hex": "0100000001d5d9f8d80c6057fd3e92879782eee996b5c9067de93548d27e5a6d865e7b0c9000000000d6463043021f7526722dcc7488ee5bfe9c843851eba15ce9596d649e7252527d14beb6c03d02200a5ebcda97e2a0e606c74f4b5a3cf2ed6e771217f2294ae465752b7c917764ff0120bc2f8cbaec908974153c6d2cf59cc3e72d5ff66a795552154659e08c5a2fb8be004c6b63043995155eb1752103683c77e807a47dcd559fa60a6510087e5c5aa0016c094cf5eb4d7e002db18e9fac6782012088a9140f1c1bbef0066e4d86100b4d2f0c20a1f11b8c15882102dbd8c73e2e80e4f3cf88d2f04a9d2d0df4269496608b14a3e17556fdcb01e0c1ac68ffffffff01a1e05a00000000001976a914124b0846223ef78130b8e544b9afc3b09988238688acec6d155e"}, "error": ""}, "type": "TakerPaymentSpent"}, "timestamp": 1578466311592}, {"event": {"data": {"lock_duration": 0, "maker_amount": "", "maker_coin": "", "maker_coin_start_block": 0, "maker_payment_confirmations": 0, "maker_payment_lock": 0, "my_persistent_pub": "", "secret": "", "started_at": 0, "taker": "", "taker_amount": "", "taker_coin": "", "taker_coin_start_block": 0, "taker_payment_confirmations": 0, "uuid": "", "taker_payment_locktime": 0, "taker_pubkey": "", "block_height": 0, "coin": "KMD", "fee_details": {"amount": "0.00001", "coin": "", "gas": 0, "gas_price": "", "total_fee": ""}, "from": ["bFXf7G35x9CwJEYH6pTSHGKpzuMQXkkyry"], "internal_id": "416ae6c3a27b0da4a254c70a35c21d4feb6c227076ee380d258febefa9b5cfc4", "my_balance_change": "5.13611254", "received_by_me": "5.13611254", "spent_by_me": "0", "timestamp": 0, "to": ["RQq3CmCy7DzwSbT1RPZDfVPcC3RAjyR8DJ"], "total_amount": "5.13612254", "tx_hash": "416ae6c3a27b0da4a254c70a35c21d4feb6c227076ee380d258febefa9b5cfc4", "tx_hex": "0400008085202f89015ae2b12fbac305bb488d2b2eb849cdaa837109a383697bd6c88300c1a3f5176300000000d747304402202aa95ae1110867bc182f9818ac6ddaddcb5644029bdb36e6418a7e03e30fa16f022059f12aafd264f90e2b5fed37a29f1a7e49ff21d4190606c544666687704e5cdc0120bc2f8cbaec908974153c6d2cf59cc3e72d5ff66a795552154659e08c5a2fb8be004c6b6304b0b3155eb1752102dbd8c73e2e80e4f3cf88d2f04a9d2d0df4269496608b14a3e17556fdcb01e0c1ac6782012088a9140f1c1bbef0066e4d86100b4d2f0c20a1f11b8c15882103683c77e807a47dcd559fa60a6510087e5c5aa0016c094cf5eb4d7e002db18e9fac68ffffffff01f6159d1e000000001976a914aa8fc9fcbf345510d419ca273a6e9897b488ee1688ac0974155e000000000000000000000000000000", "maker": "", "maker_payment_wait": 0, "taker_payment_lock": 0, "maker_payment_locktime": 0, "maker_pubkey": "", "secret_hash": "", "transaction": null, "error": ""}, "type": "MakerPaymentSpent"}, "timestamp": 1578466313413}, {"event": {"data": null, "type": "Finished"}, "timestamp": 1578466313415}], "my_info": {"my_amount": "0.0596574500551858", "my_coin": "LTC", "other_amount": "5.13612254", "other_coin": "KMD", "started_at": 1578464961}, "success_events": ["Started", "Negotiated", "TakerFeeSent", "MakerPaymentReceived", "MakerPaymentWaitConfirmStarted", "MakerPaymentValidatedAndConfirmed", "TakerPaymentSent", "TakerPaymentSpent", "MakerPaymentSpent", "Finished"], "type": "Taker", "uuid": "d3d4e2a5-140e-433c-ba56-7426ac70ba8e", "recoverable": false}