{"error_events": ["StartFailed", "NegotiateFailed", "TakerFeeSendFailed", "MakerPaymentValidateFailed", "TakerPaymentTransactionFailed", "TakerPaymentDataSendFailed", "TakerPaymentWaitForSpendFailed", "MakerPaymentSpendFailed", "TakerPaymentRefunded", "TakerPaymentRefundFailed"], "events": [{"event": {"data": {"lock_duration": 7800, "maker_amount": "6.14423468", "maker_coin": "NAV", "maker_coin_start_block": 3804614, "maker_payment_confirmations": 1, "maker_payment_lock": 0, "my_persistent_pub": "03683c77e807a47dcd559fa60a6510087e5c5aa0016c094cf5eb4d7e002db18e9f", "secret": "", "started_at": 1578510015, "taker": "", "taker_amount": "0.999999999955656", "taker_coin": "KMD", "taker_coin_start_block": 1696844, "taker_payment_confirmations": 2, "uuid": "f1cb4dd7-6f3f-4abe-bf38-dc7e83d43543", "taker_payment_locktime": 0, "taker_pubkey": "", "block_height": 0, "coin": "", "fee_details": null, "from": null, "internal_id": "", "my_balance_change": "", "received_by_me": "", "spent_by_me": "", "timestamp": 0, "to": null, "total_amount": "", "tx_hash": "", "tx_hex": "", "maker": "1bb83b58ec130e28e0a6d5d2acf2eb01b0d3f1670e021d47d31db8a858219da8", "maker_payment_wait": 1578512615, "taker_payment_lock": 1578517815, "maker_payment_locktime": 0, "maker_pubkey": "", "secret_hash": "", "transaction": null, "error": ""}, "type": "Started"}, "timestamp": 1578510016393}, {"event": {"data": {"lock_duration": 0, "maker_amount": "", "maker_coin": "", "maker_coin_start_block": 0, "maker_payment_confirmations": 0, "maker_payment_lock": 0, "my_persistent_pub": "", "secret": "", "started_at": 0, "taker": "", "taker_amount": "", "taker_coin": "", "taker_coin_start_block": 0, "taker_payment_confirmations": 0, "uuid": "", "taker_payment_locktime": 0, "taker_pubkey": "", "block_height": 0, "coin": "", "fee_details": null, "from": null, "internal_id": "", "my_balance_change": "", "received_by_me": "", "spent_by_me": "", "timestamp": 0, "to": null, "total_amount": "", "tx_hash": "", "tx_hex": "", "maker": "", "maker_payment_wait": 0, "taker_payment_lock": 0, "maker_payment_locktime": 1578525615, "maker_pubkey": "031bb83b58ec130e28e0a6d5d2acf2eb01b0d3f1670e021d47d31db8a858219da8", "secret_hash": "c55c00bd97267bfbbce3cdba7128437f660e4d7f", "transaction": null, "error": ""}, "type": "Negotiated"}, "timestamp": 1578510077559}, {"event": {"data": {"lock_duration": 0, "maker_amount": "", "maker_coin": "", "maker_coin_start_block": 0, "maker_payment_confirmations": 0, "maker_payment_lock": 0, "my_persistent_pub": "", "secret": "", "started_at": 0, "taker": "", "taker_amount": "", "taker_coin": "", "taker_coin_start_block": 0, "taker_payment_confirmations": 0, "uuid": "", "taker_payment_locktime": 0, "taker_pubkey": "", "block_height": 0, "coin": "KMD", "fee_details": {"amount": "0.00001", "coin": "", "gas": 0, "gas_price": "", "total_fee": ""}, "from": ["RQq3CmCy7DzwSbT1RPZDfVPcC3RAjyR8DJ"], "internal_id": "af01b512db4c7ab1b5ae05aa54ed18316d1d253087ac8d10bcc11b2557496c8e", "my_balance_change": "-0.0011683", "received_by_me": "2.6245393", "spent_by_me": "2.6257076", "timestamp": 0, "to": ["RQq3CmCy7DzwSbT1RPZDfVPcC3RAjyR8DJ", "RThtXup6Zo7LZAi8kRWgjAyi1s4u6U9Cpf"], "total_amount": "2.6257076", "tx_hash": "af01b512db4c7ab1b5ae05aa54ed18316d1d253087ac8d10bcc11b2557496c8e", "tx_hex": "0400008085202f890167fa75b1fc93417d2e40573bc4642d81c257bdf1118f462228f10853d6e51c89010000006b483045022100ee37565498dbc5cf93ed02f8feaa1e3f0c7a94d1e91e16867c57ed2bb8f408d1022023c70b643a965fc632365f9a595d7cb6494947295ba9073030c81b8327416b4a012103683c77e807a47dcd559fa60a6510087e5c5aa0016c094cf5eb4d7e002db18e9fffffffff0276c40100000000001976a914ca1e04745e8ca0c60d8c5881531d51bec470743f88acaabaa40f000000001976a914aa8fc9fcbf345510d419ca273a6e9897b488ee1688acff1e165e000000000000000000000000000000", "maker": "", "maker_payment_wait": 0, "taker_payment_lock": 0, "maker_payment_locktime": 0, "maker_pubkey": "", "secret_hash": "", "transaction": null, "error": ""}, "type": "TakerFeeSent"}, "timestamp": 1578510088218}, {"event": {"data": {"lock_duration": 0, "maker_amount": "", "maker_coin": "", "maker_coin_start_block": 0, "maker_payment_confirmations": 0, "maker_payment_lock": 0, "my_persistent_pub": "", "secret": "", "started_at": 0, "taker": "", "taker_amount": "", "taker_coin": "", "taker_coin_start_block": 0, "taker_payment_confirmations": 0, "uuid": "", "taker_payment_locktime": 0, "taker_pubkey": "", "block_height": 0, "coin": "NAV", "fee_details": {"amount": "0.0001", "coin": "", "gas": 0, "gas_price": "", "total_fee": ""}, "from": ["Ndn8vbtteaHao6cxAnSHnuxMNW14hZzzoW"], "internal_id": "1bfc5c48c07023e9300e2afb1b1d5a81e932db7a0a7caae91ce0eeac1fe482b3", "my_balance_change": "0", "received_by_me": "0", "spent_by_me": "0", "timestamp": 0, "to": ["Ndn8vbtteaHao6cxAnSHnuxMNW14hZzzoW", "bU85S92vSWpXKk5AREMuzWvH3JGjg2BKZS"], "total_amount": "6.60427733", "tx_hash": "1bfc5c48c07023e9300e2afb1b1d5a81e932db7a0a7caae91ce0eeac1fe482b3", "tx_hex": "030000001a27165e044c852f22a490100f204bdb82af215104fe5b375df694b3296aaf5450844932c7000000006a473044022036e4cdc21a25e7bd3be3bc2fd67535b2aa8fdbac61674652ef931a9346bf26c202206a9f162d0225efd72d7d5e2ccf306b8c379db9f395387cb2924a61bd102f45920121031bb83b58ec130e28e0a6d5d2acf2eb01b0d3f1670e021d47d31db8a858219da8ffffffff5fee75cec5d0625055da75ab97343055b3b17060a3ef497f331f4a36d2d87b0e000000006b483045022100c61d150d5c2be9523947d893de81e1ab159a95ab84401a0ef4fc3e5e2f9767a802202b0de384bc0f3e5570bbe4b1c17cccd2380b2e49149d162a23644979b7a26b140121031bb83b58ec130e28e0a6d5d2acf2eb01b0d3f1670e021d47d31db8a858219da8ffffffff5243c593d76b2f1a0ba6d7878da9152634c4e22ee527cde737be41fb1f54c0be000000006b48304502210096e1f03bd8721f9e894a17fd5840abcbeb366d8193aba4f5a4985e636342ac5c022074812cf6dc4fdbb7330c662cc5cfdd61c8bf7851f5b92dea443d48313e987f230121031bb83b58ec130e28e0a6d5d2acf2eb01b0d3f1670e021d47d31db8a858219da8fffffffffe101bd17396602c9e01fdbadbda7e5d58356c82a70ac981f7d1e55625c2bbe0000000006b483045022100996e809a061a594ddd797f9fd9b20c99fad17e79aeb96467ef67d0d40d11ee4702205513f426aa8b3742249b2966374bdc74f90a173624afe3668dee96cd0264abaf0121031bb83b58ec130e28e0a6d5d2acf2eb01b0d3f1670e021d47d31db8a858219da8ffffffff02ac5b9f240000000017a914a8da0de923b018c9dbd5d18ad8e9bd8cb59ca4418719d1bd02000000001976a914c3f710deb7320b0efa6edb14e3ebeeb9155fa90d88ac1a27165e00", "maker": "", "maker_payment_wait": 0, "taker_payment_lock": 0, "maker_payment_locktime": 0, "maker_pubkey": "", "secret_hash": "", "transaction": null, "error": ""}, "type": "MakerPaymentReceived"}, "timestamp": 1578510129759}, {"event": {"data": null, "type": "MakerPaymentWaitConfirmStarted"}, "timestamp": 1578510129762}, {"event": {"data": null, "type": "MakerPaymentValidatedAndConfirmed"}, "timestamp": 1578510190988}, {"event": {"data": {"lock_duration": 0, "maker_amount": "", "maker_coin": "", "maker_coin_start_block": 0, "maker_payment_confirmations": 0, "maker_payment_lock": 0, "my_persistent_pub": "", "secret": "", "started_at": 0, "taker": "", "taker_amount": "", "taker_coin": "", "taker_coin_start_block": 0, "taker_payment_confirmations": 0, "uuid": "", "taker_payment_locktime": 0, "taker_pubkey": "", "block_height": 0, "coin": "KMD", "fee_details": {"amount": "0.00001", "coin": "", "gas": 0, "gas_price": "", "total_fee": ""}, "from": ["RQq3CmCy7DzwSbT1RPZDfVPcC3RAjyR8DJ"], "internal_id": "fab4e9438b8f22238465836aa15f8e1d356f99c23f2720ee8e178c9a64d007e6", "my_balance_change": "-1.00000999", "received_by_me": "1.62452931", "spent_by_me": "2.6245393", "timestamp": 0, "to": ["RQq3CmCy7DzwSbT1RPZDfVPcC3RAjyR8DJ", "baCv3FSS4KdSDa3znRjekqCDQcq1u9BwgX"], "total_amount": "2.6245393", "tx_hash": "fab4e9438b8f22238465836aa15f8e1d356f99c23f2720ee8e178c9a64d007e6", "tx_hex": "0400008085202f89018e6c4957251bc1bc108dac8730251d6d3118ed54aa05aeb5b17a4cdb12b501af010000006a47304402205d34dce46646ae9f465bc86c36793a2b2ecb06f45e8e09b12b5a9e53806173a0022062bc5bc00545662f4d8d993f47709fb3a383af340ad5b56b245d8dc8b83e825c012103683c77e807a47dcd559fa60a6510087e5c5aa0016c094cf5eb4d7e002db18e9fffffffff02ffe0f5050000000017a914eb950bed8b1c7928641e9dbbc8fc95be76a6e2ce87c3d5ae09000000001976a914aa8fc9fcbf345510d419ca273a6e9897b488ee1688ac711f165e000000000000000000000000000000", "maker": "", "maker_payment_wait": 0, "taker_payment_lock": 0, "maker_payment_locktime": 0, "maker_pubkey": "", "secret_hash": "", "transaction": null, "error": ""}, "type": "TakerPaymentSent"}, "timestamp": 1578510193414}, {"event": {"data": {"lock_duration": 0, "maker_amount": "", "maker_coin": "", "maker_coin_start_block": 0, "maker_payment_confirmations": 0, "maker_payment_lock": 0, "my_persistent_pub": "", "secret": "e7ac19cd54176366a4da4fefb44403e09b92360556be6d3729572fa52d69ec2d", "started_at": 0, "taker": "", "taker_amount": "", "taker_coin": "", "taker_coin_start_block": 0, "taker_payment_confirmations": 0, "uuid": "", "taker_payment_locktime": 0, "taker_pubkey": "", "block_height": 0, "coin": "", "fee_details": null, "from": null, "internal_id": "", "my_balance_change": "", "received_by_me": "", "spent_by_me": "", "timestamp": 0, "to": null, "total_amount": "", "tx_hash": "", "tx_hex": "", "maker": "", "maker_payment_wait": 0, "taker_payment_lock": 0, "maker_payment_locktime": 0, "maker_pubkey": "", "secret_hash": "", "transaction": {"block_height": 0, "coin": "KMD", "fee_details": {"amount": "0.00001", "coin": "", "gas": 0, "gas_price": "", "total_fee": ""}, "from": ["baCv3FSS4KdSDa3znRjekqCDQcq1u9BwgX"], "internal_id": "ba5568baca036aaa2a9dc0381bac36264232ffaae09e70fd5f1e2f97973ffd1c", "my_balance_change": "0", "received_by_me": "0", "spent_by_me": "0", "timestamp": 0, "to": ["RT9MpMyucqXiX8bZLimXBnrrn2ofmdGNKd"], "total_amount": "0.99999999", "tx_hash": "ba5568baca036aaa2a9dc0381bac36264232ffaae09e70fd5f1e2f97973ffd1c", "tx_hex": "0400008085202f8901e607d0649a8c178eee20273fc2996f351d8e5fa16a83658423228f8b43e9b4fa00000000d84830450221008366ae49101e58baf04272d500dda38ef73db918f179822ca9e6d25c9786b7f102205d82f7bfea681428285c549f5aa3676f40cb3b1d4484410a06f276439bfac7e10120e7ac19cd54176366a4da4fefb44403e09b92360556be6d3729572fa52d69ec2d004c6b63043745165eb1752103683c77e807a47dcd559fa60a6510087e5c5aa0016c094cf5eb4d7e002db18e9fac6782012088a914c55c00bd97267bfbbce3cdba7128437f660e4d7f8821031bb83b58ec130e28e0a6d5d2acf2eb01b0d3f1670e021d47d31db8a858219da8ac68ffffffff0117ddf505000000001976a914c3f710deb7320b0efa6edb14e3ebeeb9155fa90d88ac8b1f165e000000000000000000000000000000"}, "error": ""}, "type": "TakerPaymentSpent"}, "timestamp": 1578510225244}, {"event": {"data": {"lock_duration": 0, "maker_amount": "", "maker_coin": "", "maker_coin_start_block": 0, "maker_payment_confirmations": 0, "maker_payment_lock": 0, "my_persistent_pub": "", "secret": "", "started_at": 0, "taker": "", "taker_amount": "", "taker_coin": "", "taker_coin_start_block": 0, "taker_payment_confirmations": 0, "uuid": "", "taker_payment_locktime": 0, "taker_pubkey": "", "block_height": 3804621, "coin": "NAV", "fee_details": {"amount": "0.0001", "coin": "", "gas": 0, "gas_price": "", "total_fee": ""}, "from": ["bU85S92vSWpXKk5AREMuzWvH3JGjg2BKZS"], "internal_id": "38f8672a9a823e796bf86a89d1628c81913e91a48e55a216144f0053aef6baa9", "my_balance_change": "6.14413468", "received_by_me": "6.14413468", "spent_by_me": "0", "timestamp": 1578510288, "to": ["NbTpK17x8xkoiZUQFTDzGcV6nWcZpLft2h"], "total_amount": "6.14423468", "tx_hash": "38f8672a9a823e796bf86a89d1628c81913e91a48e55a216144f0053aef6baa9", "tx_hex": "030000009127165e01b382e41faceee01ce9aa7c0a7adb32e9815a1d1bfb2a0e30e92370c0485cfc1b00000000d7473044022074aae8d0d6729932f6f3c59ec8d655e06d5001d6e25e20d1bbb5d624898bfea3022054ff71608c205ccf8f89c98616d83fd0dee036def5774eeac143cdc17b855b810120e7ac19cd54176366a4da4fefb44403e09b92360556be6d3729572fa52d69ec2d004c6b6304af63165eb17521031bb83b58ec130e28e0a6d5d2acf2eb01b0d3f1670e021d47d31db8a858219da8ac6782012088a914c55c00bd97267bfbbce3cdba7128437f660e4d7f882103683c77e807a47dcd559fa60a6510087e5c5aa0016c094cf5eb4d7e002db18e9fac68ffffffff019c349f24000000001976a914aa8fc9fcbf345510d419ca273a6e9897b488ee1688ac8119165e00", "maker": "", "maker_payment_wait": 0, "taker_payment_lock": 0, "maker_payment_locktime": 0, "maker_pubkey": "", "secret_hash": "", "transaction": null, "error": ""}, "type": "MakerPaymentSpent"}, "timestamp": 1578512117260}, {"event": {"data": null, "type": "Finished"}, "timestamp": 1578512117262}], "my_info": {"my_amount": "0.999999999955656", "my_coin": "KMD", "other_amount": "6.14423468", "other_coin": "NAV", "started_at": 1578510015}, "success_events": ["Started", "Negotiated", "TakerFeeSent", "MakerPaymentReceived", "MakerPaymentWaitConfirmStarted", "MakerPaymentValidatedAndConfirmed", "TakerPaymentSent", "TakerPaymentSpent", "MakerPaymentSpent", "Finished"], "type": "Taker", "uuid": "f1cb4dd7-6f3f-4abe-bf38-dc7e83d43543", "recoverable": false}