{"error_events": ["StartFailed", "NegotiateFailed", "TakerFeeSendFailed", "MakerPaymentValidateFailed", "TakerPaymentTransactionFailed", "TakerPaymentDataSendFailed", "TakerPaymentWaitForSpendFailed", "MakerPaymentSpendFailed", "TakerPaymentRefunded", "TakerPaymentRefundFailed"], "events": [{"event": {"data": {"lock_duration": 7800, "maker_amount": "92.4150794", "maker_coin": "DGB", "maker_coin_start_block": 10213265, "maker_payment_confirmations": 1, "maker_payment_lock": 0, "my_persistent_pub": "03683c77e807a47dcd559fa60a6510087e5c5aa0016c094cf5eb4d7e002db18e9f", "secret": "", "started_at": 1580228746, "taker": "", "taker_amount": "1.034329899962268", "taker_coin": "KMD", "taker_coin_start_block": 1725221, "taker_payment_confirmations": 2, "uuid": "f5329fb6-a94e-4f4c-88fe-243fb81ba476", "taker_payment_locktime": 0, "taker_pubkey": "", "block_height": 0, "coin": "", "fee_details": null, "from": null, "internal_id": "", "my_balance_change": "", "received_by_me": "", "spent_by_me": "", "timestamp": 0, "to": null, "total_amount": "", "tx_hash": "", "tx_hex": "", "maker": "5d81c96aa4269c5946c0bd8dad7785ae0f4f595e7aea2ec4f8fe71f77ebf74a9", "maker_payment_wait": 1580231346, "taker_payment_lock": 1580236546, "maker_payment_locktime": 0, "maker_pubkey": "", "secret_hash": "", "transaction": null, "error": ""}, "type": "Started"}, "timestamp": 1580228747389}, {"event": {"data": {"lock_duration": 0, "maker_amount": "", "maker_coin": "", "maker_coin_start_block": 0, "maker_payment_confirmations": 0, "maker_payment_lock": 0, "my_persistent_pub": "", "secret": "", "started_at": 0, "taker": "", "taker_amount": "", "taker_coin": "", "taker_coin_start_block": 0, "taker_payment_confirmations": 0, "uuid": "", "taker_payment_locktime": 0, "taker_pubkey": "", "block_height": 0, "coin": "", "fee_details": null, "from": null, "internal_id": "", "my_balance_change": "", "received_by_me": "", "spent_by_me": "", "timestamp": 0, "to": null, "total_amount": "", "tx_hash": "", "tx_hex": "", "maker": "", "maker_payment_wait": 0, "taker_payment_lock": 0, "maker_payment_locktime": 1580244344, "maker_pubkey": "025d81c96aa4269c5946c0bd8dad7785ae0f4f595e7aea2ec4f8fe71f77ebf74a9", "secret_hash": "b4a2bf218f82de3caf053e85a30b06f16126b06c", "transaction": null, "error": ""}, "type": "Negotiated"}, "timestamp": 1580228818254}, {"event": {"data": {"lock_duration": 0, "maker_amount": "", "maker_coin": "", "maker_coin_start_block": 0, "maker_payment_confirmations": 0, "maker_payment_lock": 0, "my_persistent_pub": "", "secret": "", "started_at": 0, "taker": "", "taker_amount": "", "taker_coin": "", "taker_coin_start_block": 0, "taker_payment_confirmations": 0, "uuid": "", "taker_payment_locktime": 0, "taker_pubkey": "", "block_height": 0, "coin": "KMD", "fee_details": {"amount": "0.00001", "coin": "", "gas": 0, "gas_price": "", "total_fee": ""}, "from": ["RQq3CmCy7DzwSbT1RPZDfVPcC3RAjyR8DJ"], "internal_id": "01ad9c423944f17cae9c1b4e1ffc805a734763b8d657db574d4b4cbcf7f33e7a", "my_balance_change": "-0.00120806", "received_by_me": "1.03447477", "spent_by_me": "1.03568283", "timestamp": 0, "to": ["RQq3CmCy7DzwSbT1RPZDfVPcC3RAjyR8DJ", "RThtXup6Zo7LZAi8kRWgjAyi1s4u6U9Cpf"], "total_amount": "1.03568283", "tx_hash": "01ad9c423944f17cae9c1b4e1ffc805a734763b8d657db574d4b4cbcf7f33e7a", "tx_hex": "0400008085202f890108b38c5208b805eb02289dd8b280de51c0569c99df2b83876098f5e6257c388b010000006a47304402203ae8838b880edfdece2ba144c75af1d182e22170a7e3dcc3ae3eb5a873d46fb8022030e2d9f955340acc24840dcc187a4204e127cf966faffd9ebd9a4adaf43edd36012103683c77e807a47dcd559fa60a6510087e5c5aa0016c094cf5eb4d7e002db18e9fffffffff02fed30100000000001976a914ca1e04745e8ca0c60d8c5881531d51bec470743f88acb57b2a06000000001976a914aa8fc9fcbf345510d419ca273a6e9897b488ee1688acd458305e000000000000000000000000000000", "maker": "", "maker_payment_wait": 0, "taker_payment_lock": 0, "maker_payment_locktime": 0, "maker_pubkey": "", "secret_hash": "", "transaction": null, "error": ""}, "type": "TakerFeeSent"}, "timestamp": 1580228821671}, {"event": {"data": {"lock_duration": 0, "maker_amount": "", "maker_coin": "", "maker_coin_start_block": 0, "maker_payment_confirmations": 0, "maker_payment_lock": 0, "my_persistent_pub": "", "secret": "", "started_at": 0, "taker": "", "taker_amount": "", "taker_coin": "", "taker_coin_start_block": 0, "taker_payment_confirmations": 0, "uuid": "", "taker_payment_locktime": 0, "taker_pubkey": "", "block_height": 0, "coin": "DGB", "fee_details": {"amount": "0.001", "coin": "", "gas": 0, "gas_price": "", "total_fee": ""}, "from": ["DGC1EoeKsW7R3oa1W31qvUPBqqvWT3GkCZ"], "internal_id": "044223f8cc58d27e3375bc9f8b4734f2f4d83c5a23d92a4ea02991d77334409d", "my_balance_change": "0", "received_by_me": "0", "spent_by_me": "0", "timestamp": 0, "to": ["DGC1EoeKsW7R3oa1W31qvUPBqqvWT3GkCZ", "SZc6fbjRtJ8R146Tsge5VdXgzuEff957eE"], "total_amount": "272.48698003", "tx_hash": "044223f8cc58d27e3375bc9f8b4734f2f4d83c5a23d92a4ea02991d77334409d", "tx_hex": "0100000002191445274aa0ff76506c30980ff9605c65cf2851324fbd61d2d0e75cc70b5b08000000006b483045022100b2551d27b1b97cbbb284ab02d4c8dd4373242cb29cce1378d802fd40936a546802203018e47edc29572409b86e87aedd57da5e444e039b5c1a14ba715c7e59c4baf40121025d81c96aa4269c5946c0bd8dad7785ae0f4f595e7aea2ec4f8fe71f77ebf74a9ffffffffed6bcea7c812d4074a915cb0c4167e62e1b41afb2f1e3deef3eea5d868c09377000000006b483045022100b848a63b92df7a9deb156d4520c32a344a2d99aa4b6e28702cc8279ebf67eb6202206b4568a6f6abef244d0d4ec07641a3c955216aec1003d2b09069ecde19002ece0121025d81c96aa4269c5946c0bd8dad7785ae0f4f595e7aea2ec4f8fe71f77ebf74a9ffffffff026438d6260200000017a914870db31508833b4836587b7e93f6831375b59387878f634e31040000001976a914793634de8c88ec851b4b595f2f87a2071ae79c5b88ace660305e", "maker": "", "maker_payment_wait": 0, "taker_payment_lock": 0, "maker_payment_locktime": 0, "maker_pubkey": "", "secret_hash": "", "transaction": null, "error": ""}, "type": "MakerPaymentReceived"}, "timestamp": 1580228865621}, {"event": {"data": null, "type": "MakerPaymentWaitConfirmStarted"}, "timestamp": 1580228865622}, {"event": {"data": null, "type": "MakerPaymentValidatedAndConfirmed"}, "timestamp": 1580228911637}, {"event": {"data": {"lock_duration": 0, "maker_amount": "", "maker_coin": "", "maker_coin_start_block": 0, "maker_payment_confirmations": 0, "maker_payment_lock": 0, "my_persistent_pub": "", "secret": "", "started_at": 0, "taker": "", "taker_amount": "", "taker_coin": "", "taker_coin_start_block": 0, "taker_payment_confirmations": 0, "uuid": "", "taker_payment_locktime": 0, "taker_pubkey": "", "block_height": 0, "coin": "KMD", "fee_details": {"amount": "0.00001", "coin": "", "gas": 0, "gas_price": "", "total_fee": ""}, "from": ["RQq3CmCy7DzwSbT1RPZDfVPcC3RAjyR8DJ"], "internal_id": "92df1f55e3a971e8803f2e7d77394460763a4117475d0666bc784f85c0fa261f", "my_balance_change": "-1.03433989", "received_by_me": "0.00013488", "spent_by_me": "1.03447477", "timestamp": 0, "to": ["RQq3CmCy7DzwSbT1RPZDfVPcC3RAjyR8DJ", "bSP191VVeywArLKLdJBZ767yWgLHUo4fqX"], "total_amount": "1.03447477", "tx_hash": "92df1f55e3a971e8803f2e7d77394460763a4117475d0666bc784f85c0fa261f", "tx_hex": "0400008085202f89017a3ef3f7bc4c4b4d57db57d6b86347735a80fc1f4e1b9cae7cf14439429cad01010000006a47304402202de7b09b808de726d35ac586bfe0303984586c7bc250740ce59a7c0d200e72f902204e8f1ee8b1f7e2f36cc7ee807bfccc0057de589af3ea1d3e66d2bffeb8468d32012103683c77e807a47dcd559fa60a6510087e5c5aa0016c094cf5eb4d7e002db18e9fffffffff021d432a060000000017a91495bc74e552ee50b17986a5cd16e44ea72f97fb1187b0340000000000001976a914aa8fc9fcbf345510d419ca273a6e9897b488ee1688ac3259305e000000000000000000000000000000", "maker": "", "maker_payment_wait": 0, "taker_payment_lock": 0, "maker_payment_locktime": 0, "maker_pubkey": "", "secret_hash": "", "transaction": null, "error": ""}, "type": "TakerPaymentSent"}, "timestamp": 1580228916456}, {"event": {"data": {"lock_duration": 0, "maker_amount": "", "maker_coin": "", "maker_coin_start_block": 0, "maker_payment_confirmations": 0, "maker_payment_lock": 0, "my_persistent_pub": "", "secret": "d105521e776cfa24c3277cb6f15a54bc0756b4d8efdd23373be30530cd28fd63", "started_at": 0, "taker": "", "taker_amount": "", "taker_coin": "", "taker_coin_start_block": 0, "taker_payment_confirmations": 0, "uuid": "", "taker_payment_locktime": 0, "taker_pubkey": "", "block_height": 0, "coin": "", "fee_details": null, "from": null, "internal_id": "", "my_balance_change": "", "received_by_me": "", "spent_by_me": "", "timestamp": 0, "to": null, "total_amount": "", "tx_hash": "", "tx_hex": "", "maker": "", "maker_payment_wait": 0, "taker_payment_lock": 0, "maker_payment_locktime": 0, "maker_pubkey": "", "secret_hash": "", "transaction": {"block_height": 0, "coin": "KMD", "fee_details": {"amount": "0.00001", "coin": "", "gas": 0, "gas_price": "", "total_fee": ""}, "from": ["bSP191VVeywArLKLdJBZ767yWgLHUo4fqX"], "internal_id": "cae054a6352f6b76e83f79686d32b057956d0313233547b266b3a898cfe8f822", "my_balance_change": "0", "received_by_me": "0", "spent_by_me": "0", "timestamp": 0, "to": ["RLL6n4ayAv1haokcEd1QUEYniyeoiYkn7W"], "total_amount": "1.03432989", "tx_hash": "cae054a6352f6b76e83f79686d32b057956d0313233547b266b3a898cfe8f822", "tx_hex": "0400008085202f89011f26fac0854f78bc66065d4717413a76604439777d2e3f80e871a9e3551fdf9200000000d8483045022100f01a9b5693c783d98bbe9f8baee9d8298d3712672d33a47552552bcdab9f6ff102207f18514281e18061b56949358d23bb7915fab4a2f739eb1a54a300a68685eb980120d105521e776cfa24c3277cb6f15a54bc0756b4d8efdd23373be30530cd28fd63004c6b6304027f305eb1752103683c77e807a47dcd559fa60a6510087e5c5aa0016c094cf5eb4d7e002db18e9fac6782012088a914b4a2bf218f82de3caf053e85a30b06f16126b06c8821025d81c96aa4269c5946c0bd8dad7785ae0f4f595e7aea2ec4f8fe71f77ebf74a9ac68ffffffff01353f2a06000000001976a914793634de8c88ec851b4b595f2f87a2071ae79c5b88acc259305e000000000000000000000000000000"}, "error": ""}, "type": "TakerPaymentSpent"}, "timestamp": 1580229070931}, {"event": {"data": {"lock_duration": 0, "maker_amount": "", "maker_coin": "", "maker_coin_start_block": 0, "maker_payment_confirmations": 0, "maker_payment_lock": 0, "my_persistent_pub": "", "secret": "", "started_at": 0, "taker": "", "taker_amount": "", "taker_coin": "", "taker_coin_start_block": 0, "taker_payment_confirmations": 0, "uuid": "", "taker_payment_locktime": 0, "taker_pubkey": "", "block_height": 0, "coin": "DGB", "fee_details": {"amount": "0.001", "coin": "", "gas": 0, "gas_price": "", "total_fee": ""}, "from": ["SZc6fbjRtJ8R146Tsge5VdXgzuEff957eE"], "internal_id": "acd6992e8bbe706b186413c59d885bfe972aa048b410fdb9170dbf8923a70034", "my_balance_change": "92.4140794", "received_by_me": "92.4140794", "spent_by_me": "0", "timestamp": 0, "to": ["DLgwfWGKop6eubGQgoZf7jE1JugsT99Srr"], "total_amount": "92.4150794", "tx_hash": "acd6992e8bbe706b186413c59d885bfe972aa048b410fdb9170dbf8923a70034", "tx_hex": "01000000019d403473d79129a04e2ad9235a3cd8f4f234478b9fbc75337ed258ccf823420400000000d8483045022100a71522028a2e53b4d620ce69aedb466083d921c766e48747f0c991a6540a9466022065aa1c5f0da380bd46d6c5be8986b9f6c28a2a984fdb9308947f0b671b8356100120d105521e776cfa24c3277cb6f15a54bc0756b4d8efdd23373be30530cd28fd63004c6b6304789d305eb17521025d81c96aa4269c5946c0bd8dad7785ae0f4f595e7aea2ec4f8fe71f77ebf74a9ac6782012088a914b4a2bf218f82de3caf053e85a30b06f16126b06c882103683c77e807a47dcd559fa60a6510087e5c5aa0016c094cf5eb4d7e002db18e9fac68ffffffff01c4b1d426020000001976a914aa8fc9fcbf345510d419ca273a6e9897b488ee1688acbe53305e", "maker": "", "maker_payment_wait": 0, "taker_payment_lock": 0, "maker_payment_locktime": 0, "maker_pubkey": "", "secret_hash": "", "transaction": null, "error": ""}, "type": "MakerPaymentSpent"}, "timestamp": 1580229072748}, {"event": {"data": null, "type": "Finished"}, "timestamp": 1580229072749}], "my_info": {"my_amount": "1.034329899962268", "my_coin": "KMD", "other_amount": "92.4150794", "other_coin": "DGB", "started_at": 1580228746}, "success_events": ["Started", "Negotiated", "TakerFeeSent", "MakerPaymentReceived", "MakerPaymentWaitConfirmStarted", "MakerPaymentValidatedAndConfirmed", "TakerPaymentSent", "TakerPaymentSpent", "MakerPaymentSpent", "Finished"], "type": "Taker", "uuid": "f5329fb6-a94e-4f4c-88fe-243fb81ba476", "recoverable": false}