{"error_events": ["StartFailed", "NegotiateFailed", "TakerFeeSendFailed", "MakerPaymentValidateFailed", "MakerPaymentWaitConfirmFailed", "TakerPaymentTransactionFailed", "TakerPaymentWaitConfirmFailed", "TakerPaymentDataSendFailed", "TakerPaymentWaitForSpendFailed", "MakerPaymentSpendFailed", "TakerPaymentWaitRefundStarted", "TakerPaymentRefunded", "TakerPaymentRefundFailed"], "events": [{"event": {"data": {"lock_duration": 7800, "maker_amount": "23.55673203", "maker_coin": "RVN", "maker_coin_start_block": 1113986, "maker_payment_confirmations": 1, "maker_payment_lock": 0, "my_persistent_pub": "03683c77e807a47dcd559fa60a6510087e5c5aa0016c094cf5eb4d7e002db18e9f", "secret": "", "started_at": 1582403991, "taker": "", "taker_amount": "0.9999999999532413", "taker_coin": "KMD", "taker_coin_start_block": 1761056, "taker_payment_confirmations": 2, "uuid": "f8b28874-401a-4f96-9caa-9abe8096bca3", "taker_payment_locktime": 0, "taker_pubkey": "", "block_height": 0, "coin": "", "fee_details": null, "from": null, "internal_id": "", "my_balance_change": "", "received_by_me": "", "spent_by_me": "", "timestamp": 0, "to": null, "total_amount": "", "tx_hash": "", "tx_hex": "", "maker": "1bb83b58ec130e28e0a6d5d2acf2eb01b0d3f1670e021d47d31db8a858219da8", "maker_payment_wait": 1582407111, "taker_payment_lock": 1582411791, "maker_payment_locktime": 0, "maker_pubkey": "", "secret_hash": "", "transaction": null, "error": ""}, "type": "Started"}, "timestamp": 1582403991820}, {"event": {"data": {"lock_duration": 0, "maker_amount": "", "maker_coin": "", "maker_coin_start_block": 0, "maker_payment_confirmations": 0, "maker_payment_lock": 0, "my_persistent_pub": "", "secret": "", "started_at": 0, "taker": "", "taker_amount": "", "taker_coin": "", "taker_coin_start_block": 0, "taker_payment_confirmations": 0, "uuid": "", "taker_payment_locktime": 0, "taker_pubkey": "", "block_height": 0, "coin": "", "fee_details": null, "from": null, "internal_id": "", "my_balance_change": "", "received_by_me": "", "spent_by_me": "", "timestamp": 0, "to": null, "total_amount": "", "tx_hash": "", "tx_hex": "", "maker": "", "maker_payment_wait": 0, "taker_payment_lock": 0, "maker_payment_locktime": 1582419590, "maker_pubkey": "031bb83b58ec130e28e0a6d5d2acf2eb01b0d3f1670e021d47d31db8a858219da8", "secret_hash": "89449e5818129363445ade253c3835cd5676819c", "transaction": null, "error": ""}, "type": "Negotiated"}, "timestamp": 1582404053146}, {"event": {"data": {"lock_duration": 0, "maker_amount": "", "maker_coin": "", "maker_coin_start_block": 0, "maker_payment_confirmations": 0, "maker_payment_lock": 0, "my_persistent_pub": "", "secret": "", "started_at": 0, "taker": "", "taker_amount": "", "taker_coin": "", "taker_coin_start_block": 0, "taker_payment_confirmations": 0, "uuid": "", "taker_payment_locktime": 0, "taker_pubkey": "", "block_height": 0, "coin": "KMD", "fee_details": {"amount": "-0.0002024", "coin": "", "gas": 0, "gas_price": "", "total_fee": ""}, "from": ["RQq3CmCy7DzwSbT1RPZDfVPcC3RAjyR8DJ"], "internal_id": "ff13c536717fcf0a54356b386a980785c87536b08cbd483b8732b2a0a50cc77e", "my_balance_change": "-0.0009559", "received_by_me": "74.45778346", "spent_by_me": "74.45873936", "timestamp": 0, "to": ["RQq3CmCy7DzwSbT1RPZDfVPcC3RAjyR8DJ", "RThtXup6Zo7LZAi8kRWgjAyi1s4u6U9Cpf"], "total_amount": "74.45873936", "tx_hash": "ff13c536717fcf0a54356b386a980785c87536b08cbd483b8732b2a0a50cc77e", "tx_hex": "0400008085202f890100042a373530f93aef5278e214bc9b582676ab303b9fc14ff063f8b74abcdd2f010000006b4830450221009bee674c43588cbf486d556bf23cf328afb02062d304a60fa13c05d58ceba63702205e256bd0ada04dfaca93b5429c560c04bc01d0dfa5c939cb3fa2162114b88d20012103683c77e807a47dcd559fa60a6510087e5c5aa0016c094cf5eb4d7e002db18e9fffffffff0276c40100000000001976a914ca1e04745e8ca0c60d8c5881531d51bec470743f88acaa8fcdbb010000001976a914aa8fc9fcbf345510d419ca273a6e9897b488ee1688accc8e515e000000000000000000000000000000", "maker": "", "maker_payment_wait": 0, "taker_payment_lock": 0, "maker_payment_locktime": 0, "maker_pubkey": "", "secret_hash": "", "transaction": null, "error": ""}, "type": "TakerFeeSent"}, "timestamp": 1582404055370}, {"event": {"data": {"lock_duration": 0, "maker_amount": "", "maker_coin": "", "maker_coin_start_block": 0, "maker_payment_confirmations": 0, "maker_payment_lock": 0, "my_persistent_pub": "", "secret": "", "started_at": 0, "taker": "", "taker_amount": "", "taker_coin": "", "taker_coin_start_block": 0, "taker_payment_confirmations": 0, "uuid": "", "taker_payment_locktime": 0, "taker_pubkey": "", "block_height": 1113988, "coin": "RVN", "fee_details": {"amount": "0.01", "coin": "", "gas": 0, "gas_price": "", "total_fee": ""}, "from": ["RT9MpMyucqXiX8bZLimXBnrrn2ofmdGNKd"], "internal_id": "5d19188d2b2688e95447c60d2441d7fd9b4827b91a884c4cd8fa00ffe999d68c", "my_balance_change": "0", "received_by_me": "0", "spent_by_me": "0", "timestamp": 1582404077, "to": ["RT9MpMyucqXiX8bZLimXBnrrn2ofmdGNKd", "rCmt2MbX6Gh74J7HDuEsRWXpJxMjNWecnq"], "total_amount": "173.10355032", "tx_hash": "5d19188d2b2688e95447c60d2441d7fd9b4827b91a884c4cd8fa00ffe999d68c", "tx_hex": "010000000147b81c0bbd55693adb2e839292cf2ebf9ca5a6c57ae3244bdd63211e30efe1da010000006b483045022100af025212eb35357efb3d579255ed87eb427737e2a31b47bc116d708f0a18947f02201e318135722e61491cfc95ad229f39d433d1ccf67590f10e90ae152cb1f7882f0121031bb83b58ec130e28e0a6d5d2acf2eb01b0d3f1670e021d47d31db8a858219da8ffffffff0273b8688c0000000017a91447bbc16eb1423e936bd30dd184edea6607d93bdc87a5134f7b030000001976a914c3f710deb7320b0efa6edb14e3ebeeb9155fa90d88acea91515e", "maker": "", "maker_payment_wait": 0, "taker_payment_lock": 0, "maker_payment_locktime": 0, "maker_pubkey": "", "secret_hash": "", "transaction": null, "error": ""}, "type": "MakerPaymentReceived"}, "timestamp": 1582404166388}, {"event": {"data": null, "type": "MakerPaymentWaitConfirmStarted"}, "timestamp": 1582404166389}, {"event": {"data": null, "type": "MakerPaymentValidatedAndConfirmed"}, "timestamp": 1582404166794}, {"event": {"data": {"lock_duration": 0, "maker_amount": "", "maker_coin": "", "maker_coin_start_block": 0, "maker_payment_confirmations": 0, "maker_payment_lock": 0, "my_persistent_pub": "", "secret": "", "started_at": 0, "taker": "", "taker_amount": "", "taker_coin": "", "taker_coin_start_block": 0, "taker_payment_confirmations": 0, "uuid": "", "taker_payment_locktime": 0, "taker_pubkey": "", "block_height": 0, "coin": "KMD", "fee_details": {"amount": "0.00001", "coin": "", "gas": 0, "gas_price": "", "total_fee": ""}, "from": ["RQq3CmCy7DzwSbT1RPZDfVPcC3RAjyR8DJ"], "internal_id": "ff7ef264d950ac4a0847a88fe2a04c7089d09a1f8438d2000df00444b7e832bc", "my_balance_change": "-1.00000999", "received_by_me": "73.45777347", "spent_by_me": "74.45778346", "timestamp": 0, "to": ["RQq3CmCy7DzwSbT1RPZDfVPcC3RAjyR8DJ", "bVnU49dXCGy21tLhosUdJwqp6WoS6XvKV3"], "total_amount": "74.45778346", "tx_hash": "ff7ef264d950ac4a0847a88fe2a04c7089d09a1f8438d2000df00444b7e832bc", "tx_hex": "0400008085202f89017ec70ca5a0b232873b48bd8cb03675c88507986a386b35540acf7f7136c513ff010000006a47304402204320f7173ba91e925a281ddd7a45659ab38646b25a8be3d6140bc80d6f2ff3a9022007145cae7ba480aa59f7f238afe9c8587756097f36970ee178f8232136f1138f012103683c77e807a47dcd559fa60a6510087e5c5aa0016c094cf5eb4d7e002db18e9fffffffff02ffe0f5050000000017a914bb14de9f5e41321d9f33764b497b56a4c08eef8e87c3aad7b5010000001976a914aa8fc9fcbf345510d419ca273a6e9897b488ee1688ac498a515e000000000000000000000000000000", "maker": "", "maker_payment_wait": 0, "taker_payment_lock": 0, "maker_payment_locktime": 0, "maker_pubkey": "", "secret_hash": "", "transaction": null, "error": ""}, "type": "TakerPaymentSent"}, "timestamp": 1582404176439}, {"event": {"data": {"lock_duration": 0, "maker_amount": "", "maker_coin": "", "maker_coin_start_block": 0, "maker_payment_confirmations": 0, "maker_payment_lock": 0, "my_persistent_pub": "", "secret": "50f83eca17374ab4bb063620a52a5a6ad5265617b63b8386cfd05ed6ecb54c23", "started_at": 0, "taker": "", "taker_amount": "", "taker_coin": "", "taker_coin_start_block": 0, "taker_payment_confirmations": 0, "uuid": "", "taker_payment_locktime": 0, "taker_pubkey": "", "block_height": 0, "coin": "", "fee_details": null, "from": null, "internal_id": "", "my_balance_change": "", "received_by_me": "", "spent_by_me": "", "timestamp": 0, "to": null, "total_amount": "", "tx_hash": "", "tx_hex": "", "maker": "", "maker_payment_wait": 0, "taker_payment_lock": 0, "maker_payment_locktime": 0, "maker_pubkey": "", "secret_hash": "", "transaction": {"block_height": 0, "coin": "KMD", "fee_details": {"amount": "0.00001", "coin": "", "gas": 0, "gas_price": "", "total_fee": ""}, "from": ["bVnU49dXCGy21tLhosUdJwqp6WoS6XvKV3"], "internal_id": "8493320864239a0f8b3e743021162222dc790fbec8d5f8d91540f33122c5d809", "my_balance_change": "0", "received_by_me": "0", "spent_by_me": "0", "timestamp": 0, "to": ["RT9MpMyucqXiX8bZLimXBnrrn2ofmdGNKd"], "total_amount": "0.99999999", "tx_hash": "8493320864239a0f8b3e743021162222dc790fbec8d5f8d91540f33122c5d809", "tx_hex": "0400008085202f8901bc32e8b74404f00d00d238841f9ad089704ca0e28fa847084aac50d964f27eff00000000d8483045022100b06546d8626413f3d5236de42ff9639220fb9806a5c69f33f8eca50a20b976bb022049aa0a4d1869f0253046358be63b5bb03cc02fa760a1d7d7c5eb9b281b572a87012050f83eca17374ab4bb063620a52a5a6ad5265617b63b8386cfd05ed6ecb54c23004c6b63040fb0515eb1752103683c77e807a47dcd559fa60a6510087e5c5aa0016c094cf5eb4d7e002db18e9fac6782012088a91489449e5818129363445ade253c3835cd5676819c8821031bb83b58ec130e28e0a6d5d2acf2eb01b0d3f1670e021d47d31db8a858219da8ac68ffffffff0117ddf505000000001976a914c3f710deb7320b0efa6edb14e3ebeeb9155fa90d88ac9c8f515e000000000000000000000000000000"}, "error": ""}, "type": "TakerPaymentSpent"}, "timestamp": 1582405541047}, {"event": {"data": {"lock_duration": 0, "maker_amount": "", "maker_coin": "", "maker_coin_start_block": 0, "maker_payment_confirmations": 0, "maker_payment_lock": 0, "my_persistent_pub": "", "secret": "", "started_at": 0, "taker": "", "taker_amount": "", "taker_coin": "", "taker_coin_start_block": 0, "taker_payment_confirmations": 0, "uuid": "", "taker_payment_locktime": 0, "taker_pubkey": "", "block_height": 0, "coin": "", "fee_details": null, "from": null, "internal_id": "", "my_balance_change": "", "received_by_me": "", "spent_by_me": "", "timestamp": 0, "to": null, "total_amount": "", "tx_hash": "", "tx_hex": "", "maker": "", "maker_payment_wait": 0, "taker_payment_lock": 0, "maker_payment_locktime": 0, "maker_pubkey": "", "secret_hash": "", "transaction": null, "error": "taker_swap:899] utxo:1009] rpc_clients:963] JsonRpcError { request: JsonRpcRequest { jsonrpc: \"2.0\", id: \"551\", method: \"blockchain.transaction.broadcast\", params: [String(\"01000000018cd699e9ff00fad84c4c881ab927489bfdd741240dc64754e988262b8d18195d00000000d7473044022005aeb7e6f5d06f3c1dd9c4db96a1116943ad874d83a7870b23a635912c9c84ef02202a71951e3051bfe86993480061a58839af7179c652bb0f650b9dec33dee4677a012050f83eca17374ab4bb063620a52a5a6ad5265617b63b8386cfd05ed6ecb54c23004c6b630486ce515eb17521031bb83b58ec130e28e0a6d5d2acf2eb01b0d3f1670e021d47d31db8a858219da8ac6782012088a91489449e5818129363445ade253c3835cd5676819c882103683c77e807a47dcd559fa60a6510087e5c5aa0016c094cf5eb4d7e002db18e9fac68ffffffff01d331678c000000001976a914aa8fc9fcbf345510d419ca273a6e9897b488ee1688ac9589515e\")] }, error: Response(Object({\"code\": Number(1), \"message\": String(\"the transaction was rejected by network rules.\\n\\n66: min relay fee not met\\n[01000000018cd699e9ff00fad84c4c881ab927489bfdd741240dc64754e988262b8d18195d00000000d7473044022005aeb7e6f5d06f3c1dd9c4db96a1116943ad874d83a7870b23a635912c9c84ef02202a71951e3051bfe86993480061a58839af7179c652bb0f650b9dec33dee4677a012050f83eca17374ab4bb063620a52a5a6ad5265617b63b8386cfd05ed6ecb54c23004c6b630486ce515eb17521031bb83b58ec130e28e0a6d5d2acf2eb01b0d3f1670e021d47d31db8a858219da8ac6782012088a91489449e5818129363445ade253c3835cd5676819c882103683c77e807a47dcd559fa60a6510087e5c5aa0016c094cf5eb4d7e002db18e9fac68ffffffff01d331678c000000001976a914aa8fc9fcbf345510d419ca273a6e9897b488ee1688ac9589515e]\")})) }"}, "type": "MakerPaymentSpendFailed"}, "timestamp": 1582405541252}, {"event": {"data": null, "type": "Finished"}, "timestamp": 1582405541252}], "my_info": {"my_amount": "0.9999999999532413", "my_coin": "KMD", "other_amount": "23.55673203", "other_coin": "RVN", "started_at": 1582403991}, "success_events": ["Started", "Negotiated", "TakerFeeSent", "MakerPaymentReceived", "MakerPaymentWaitConfirmStarted", "MakerPaymentValidatedAndConfirmed", "TakerPaymentSent", "TakerPaymentSpent", "MakerPaymentSpent", "Finished"], "type": "Taker", "uuid": "f8b28874-401a-4f96-9caa-9abe8096bca3", "recoverable": true}